{
	"contracts/SmartContractWallet.sol": {
		"SmartContractWallet": {
			"abi": [
				{
					"inputs": [],
					"stateMutability": "nonpayable",
					"type": "constructor"
				},
				{
					"inputs": [
						{
							"internalType": "address",
							"name": "",
							"type": "address"
						}
					],
					"name": "allowance",
					"outputs": [
						{
							"internalType": "uint256",
							"name": "",
							"type": "uint256"
						}
					],
					"stateMutability": "view",
					"type": "function"
				},
				{
					"inputs": [],
					"name": "confirmationFromGuardiansForReset",
					"outputs": [
						{
							"internalType": "uint256",
							"name": "",
							"type": "uint256"
						}
					],
					"stateMutability": "view",
					"type": "function"
				},
				{
					"inputs": [
						{
							"internalType": "address",
							"name": "",
							"type": "address"
						}
					],
					"name": "guardians",
					"outputs": [
						{
							"internalType": "bool",
							"name": "",
							"type": "bool"
						}
					],
					"stateMutability": "view",
					"type": "function"
				},
				{
					"inputs": [
						{
							"internalType": "address",
							"name": "",
							"type": "address"
						}
					],
					"name": "isAllowedToSend",
					"outputs": [
						{
							"internalType": "bool",
							"name": "",
							"type": "bool"
						}
					],
					"stateMutability": "view",
					"type": "function"
				},
				{
					"inputs": [],
					"name": "owner",
					"outputs": [
						{
							"internalType": "address payable",
							"name": "",
							"type": "address"
						}
					],
					"stateMutability": "view",
					"type": "function"
				},
				{
					"inputs": [
						{
							"internalType": "address payable",
							"name": "_newOwner",
							"type": "address"
						}
					],
					"name": "proposeNewOwner",
					"outputs": [],
					"stateMutability": "nonpayable",
					"type": "function"
				},
				{
					"inputs": [
						{
							"internalType": "address",
							"name": "_for",
							"type": "address"
						},
						{
							"internalType": "uint256",
							"name": "_amount",
							"type": "uint256"
						}
					],
					"name": "setAllowance",
					"outputs": [],
					"stateMutability": "nonpayable",
					"type": "function"
				},
				{
					"inputs": [
						{
							"internalType": "address",
							"name": "_guardian",
							"type": "address"
						},
						{
							"internalType": "bool",
							"name": "_isGuardian",
							"type": "bool"
						}
					],
					"name": "setGuardian",
					"outputs": [],
					"stateMutability": "nonpayable",
					"type": "function"
				},
				{
					"inputs": [
						{
							"internalType": "address payable",
							"name": "_to",
							"type": "address"
						},
						{
							"internalType": "uint256",
							"name": "_amount",
							"type": "uint256"
						},
						{
							"internalType": "bytes",
							"name": "_payload",
							"type": "bytes"
						}
					],
					"name": "transfer",
					"outputs": [
						{
							"internalType": "bytes",
							"name": "",
							"type": "bytes"
						}
					],
					"stateMutability": "nonpayable",
					"type": "function"
				},
				{
					"stateMutability": "payable",
					"type": "receive"
				}
			],
			"devdoc": {
				"kind": "dev",
				"methods": {},
				"version": 1
			},
			"evm": {
				"assembly": "    /* \"contracts/SmartContractWallet.sol\":230:2669  contract SmartContractWallet{... */\n  mstore(0x40, 0x80)\n    /* \"contracts/SmartContractWallet.sol\":668:730  constructor(){... */\n  callvalue\n  dup1\n  iszero\n  tag_1\n  jumpi\n  0x00\n  dup1\n  revert\ntag_1:\n  pop\n    /* \"contracts/SmartContractWallet.sol\":709:719  msg.sender */\n  caller\n    /* \"contracts/SmartContractWallet.sol\":692:697  owner */\n  0x00\n  dup1\n    /* \"contracts/SmartContractWallet.sol\":692:720  owner = payable (msg.sender) */\n  0x0100\n  exp\n  dup2\n  sload\n  dup2\n  0xffffffffffffffffffffffffffffffffffffffff\n  mul\n  not\n  and\n  swap1\n  dup4\n  0xffffffffffffffffffffffffffffffffffffffff\n  and\n  mul\n  or\n  swap1\n  sstore\n  pop\n    /* \"contracts/SmartContractWallet.sol\":230:2669  contract SmartContractWallet{... */\n  dataSize(sub_0)\n  dup1\n  dataOffset(sub_0)\n  0x00\n  codecopy\n  0x00\n  return\nstop\n\nsub_0: assembly {\n        /* \"contracts/SmartContractWallet.sol\":230:2669  contract SmartContractWallet{... */\n      mstore(0x40, 0x80)\n      jumpi(tag_1, lt(calldatasize, 0x04))\n      shr(0xe0, calldataload(0x00))\n      dup1\n      0x3e5beab9\n      gt\n      tag_12\n      jumpi\n      dup1\n      0x3e5beab9\n      eq\n      tag_7\n      jumpi\n      dup1\n      0x58e404b1\n      eq\n      tag_8\n      jumpi\n      dup1\n      0x8da5cb5b\n      eq\n      tag_9\n      jumpi\n      dup1\n      0xb1f8100d\n      eq\n      tag_10\n      jumpi\n      dup1\n      0xbe45fd62\n      eq\n      tag_11\n      jumpi\n      jump(tag_2)\n    tag_12:\n      dup1\n      0x0633b14a\n      eq\n      tag_3\n      jumpi\n      dup1\n      0x0bc605ad\n      eq\n      tag_4\n      jumpi\n      dup1\n      0x2b8a1c5a\n      eq\n      tag_5\n      jumpi\n      dup1\n      0x310ec4a7\n      eq\n      tag_6\n      jumpi\n      jump(tag_2)\n    tag_1:\n      jumpi(tag_2, calldatasize)\n      stop\n    tag_2:\n      0x00\n      dup1\n      revert\n        /* \"contracts/SmartContractWallet.sol\":406:448  mapping (address => bool) public guardians */\n    tag_3:\n      callvalue\n      dup1\n      iszero\n      tag_15\n      jumpi\n      0x00\n      dup1\n      revert\n    tag_15:\n      pop\n      tag_16\n      0x04\n      dup1\n      calldatasize\n      sub\n      dup2\n      add\n      swap1\n      tag_17\n      swap2\n      swap1\n      tag_18\n      jump\t// in\n    tag_17:\n      tag_19\n      jump\t// in\n    tag_16:\n      mload(0x40)\n      tag_20\n      swap2\n      swap1\n      tag_21\n      jump\t// in\n    tag_20:\n      mload(0x40)\n      dup1\n      swap2\n      sub\n      swap1\n      return\n        /* \"contracts/SmartContractWallet.sol\":351:399  mapping (address => bool) public isAllowedToSend */\n    tag_4:\n      callvalue\n      dup1\n      iszero\n      tag_22\n      jumpi\n      0x00\n      dup1\n      revert\n    tag_22:\n      pop\n      tag_23\n      0x04\n      dup1\n      calldatasize\n      sub\n      dup2\n      add\n      swap1\n      tag_24\n      swap2\n      swap1\n      tag_18\n      jump\t// in\n    tag_24:\n      tag_25\n      jump\t// in\n    tag_23:\n      mload(0x40)\n      tag_26\n      swap2\n      swap1\n      tag_21\n      jump\t// in\n    tag_26:\n      mload(0x40)\n      dup1\n      swap2\n      sub\n      swap1\n      return\n        /* \"contracts/SmartContractWallet.sol\":738:929  function setGuardian(address _guardian, bool _isGuardian) public {... */\n    tag_5:\n      callvalue\n      dup1\n      iszero\n      tag_27\n      jumpi\n      0x00\n      dup1\n      revert\n    tag_27:\n      pop\n      tag_28\n      0x04\n      dup1\n      calldatasize\n      sub\n      dup2\n      add\n      swap1\n      tag_29\n      swap2\n      swap1\n      tag_30\n      jump\t// in\n    tag_29:\n      tag_31\n      jump\t// in\n    tag_28:\n      stop\n        /* \"contracts/SmartContractWallet.sol\":1528:1846  function setAllowance(address _for , uint _amount) public{... */\n    tag_6:\n      callvalue\n      dup1\n      iszero\n      tag_32\n      jumpi\n      0x00\n      dup1\n      revert\n    tag_32:\n      pop\n      tag_33\n      0x04\n      dup1\n      calldatasize\n      sub\n      dup2\n      add\n      swap1\n      tag_34\n      swap2\n      swap1\n      tag_35\n      jump\t// in\n    tag_34:\n      tag_36\n      jump\t// in\n    tag_33:\n      stop\n        /* \"contracts/SmartContractWallet.sol\":302:344  mapping (address => uint) public allowance */\n    tag_7:\n      callvalue\n      dup1\n      iszero\n      tag_37\n      jumpi\n      0x00\n      dup1\n      revert\n    tag_37:\n      pop\n      tag_38\n      0x04\n      dup1\n      calldatasize\n      sub\n      dup2\n      add\n      swap1\n      tag_39\n      swap2\n      swap1\n      tag_18\n      jump\t// in\n    tag_39:\n      tag_40\n      jump\t// in\n    tag_38:\n      mload(0x40)\n      tag_41\n      swap2\n      swap1\n      tag_42\n      jump\t// in\n    tag_41:\n      mload(0x40)\n      dup1\n      swap2\n      sub\n      swap1\n      return\n        /* \"contracts/SmartContractWallet.sol\":599:657  uint public constant confirmationFromGuardiansForReset = 3 */\n    tag_8:\n      callvalue\n      dup1\n      iszero\n      tag_43\n      jumpi\n      0x00\n      dup1\n      revert\n    tag_43:\n      pop\n      tag_44\n      tag_45\n      jump\t// in\n    tag_44:\n      mload(0x40)\n      tag_46\n      swap2\n      swap1\n      tag_42\n      jump\t// in\n    tag_46:\n      mload(0x40)\n      dup1\n      swap2\n      sub\n      swap1\n      return\n        /* \"contracts/SmartContractWallet.sol\":265:293  address payable public owner */\n    tag_9:\n      callvalue\n      dup1\n      iszero\n      tag_47\n      jumpi\n      0x00\n      dup1\n      revert\n    tag_47:\n      pop\n      tag_48\n      tag_49\n      jump\t// in\n    tag_48:\n      mload(0x40)\n      tag_50\n      swap2\n      swap1\n      tag_51\n      jump\t// in\n    tag_50:\n      mload(0x40)\n      dup1\n      swap2\n      sub\n      swap1\n      return\n        /* \"contracts/SmartContractWallet.sol\":935:1518  function proposeNewOwner(address payable _newOwner) public {... */\n    tag_10:\n      callvalue\n      dup1\n      iszero\n      tag_52\n      jumpi\n      0x00\n      dup1\n      revert\n    tag_52:\n      pop\n      tag_53\n      0x04\n      dup1\n      calldatasize\n      sub\n      dup2\n      add\n      swap1\n      tag_54\n      swap2\n      swap1\n      tag_55\n      jump\t// in\n    tag_54:\n      tag_56\n      jump\t// in\n    tag_53:\n      stop\n        /* \"contracts/SmartContractWallet.sol\":1877:2620  function transfer (address payable _to , uint _amount, bytes memory _payload)  public returns(bytes memory){... */\n    tag_11:\n      callvalue\n      dup1\n      iszero\n      tag_57\n      jumpi\n      0x00\n      dup1\n      revert\n    tag_57:\n      pop\n      tag_58\n      0x04\n      dup1\n      calldatasize\n      sub\n      dup2\n      add\n      swap1\n      tag_59\n      swap2\n      swap1\n      tag_60\n      jump\t// in\n    tag_59:\n      tag_61\n      jump\t// in\n    tag_58:\n      mload(0x40)\n      tag_62\n      swap2\n      swap1\n      tag_63\n      jump\t// in\n    tag_62:\n      mload(0x40)\n      dup1\n      swap2\n      sub\n      swap1\n      return\n        /* \"contracts/SmartContractWallet.sol\":406:448  mapping (address => bool) public guardians */\n    tag_19:\n      mstore(0x20, 0x03)\n      dup1\n      0x00\n      mstore\n      keccak256(0x00, 0x40)\n      0x00\n      swap2\n      pop\n      sload\n      swap1\n      0x0100\n      exp\n      swap1\n      div\n      0xff\n      and\n      dup2\n      jump\t// out\n        /* \"contracts/SmartContractWallet.sol\":351:399  mapping (address => bool) public isAllowedToSend */\n    tag_25:\n      mstore(0x20, 0x02)\n      dup1\n      0x00\n      mstore\n      keccak256(0x00, 0x40)\n      0x00\n      swap2\n      pop\n      sload\n      swap1\n      0x0100\n      exp\n      swap1\n      div\n      0xff\n      and\n      dup2\n      jump\t// out\n        /* \"contracts/SmartContractWallet.sol\":738:929  function setGuardian(address _guardian, bool _isGuardian) public {... */\n    tag_31:\n        /* \"contracts/SmartContractWallet.sol\":836:841  owner */\n      0x00\n      dup1\n      sload\n      swap1\n      0x0100\n      exp\n      swap1\n      div\n      0xffffffffffffffffffffffffffffffffffffffff\n      and\n        /* \"contracts/SmartContractWallet.sol\":822:841  msg.sender == owner */\n      0xffffffffffffffffffffffffffffffffffffffff\n      and\n        /* \"contracts/SmartContractWallet.sol\":822:832  msg.sender */\n      caller\n        /* \"contracts/SmartContractWallet.sol\":822:841  msg.sender == owner */\n      0xffffffffffffffffffffffffffffffffffffffff\n      and\n      eq\n        /* \"contracts/SmartContractWallet.sol\":814:876  require(msg.sender == owner, \"You're not the owner, aborting\") */\n      tag_65\n      jumpi\n      mload(0x40)\n      0x08c379a000000000000000000000000000000000000000000000000000000000\n      dup2\n      mstore\n      0x04\n      add\n      tag_66\n      swap1\n      tag_67\n      jump\t// in\n    tag_66:\n      mload(0x40)\n      dup1\n      swap2\n      sub\n      swap1\n      revert\n    tag_65:\n        /* \"contracts/SmartContractWallet.sol\":910:921  _isGuardian */\n      dup1\n        /* \"contracts/SmartContractWallet.sol\":887:896  guardians */\n      0x03\n        /* \"contracts/SmartContractWallet.sol\":887:907  guardians[_guardian] */\n      0x00\n        /* \"contracts/SmartContractWallet.sol\":897:906  _guardian */\n      dup5\n        /* \"contracts/SmartContractWallet.sol\":887:907  guardians[_guardian] */\n      0xffffffffffffffffffffffffffffffffffffffff\n      and\n      0xffffffffffffffffffffffffffffffffffffffff\n      and\n      dup2\n      mstore\n      0x20\n      add\n      swap1\n      dup2\n      mstore\n      0x20\n      add\n      0x00\n      keccak256\n      0x00\n        /* \"contracts/SmartContractWallet.sol\":887:921  guardians[_guardian] = _isGuardian */\n      0x0100\n      exp\n      dup2\n      sload\n      dup2\n      0xff\n      mul\n      not\n      and\n      swap1\n      dup4\n      iszero\n      iszero\n      mul\n      or\n      swap1\n      sstore\n      pop\n        /* \"contracts/SmartContractWallet.sol\":738:929  function setGuardian(address _guardian, bool _isGuardian) public {... */\n      pop\n      pop\n      jump\t// out\n        /* \"contracts/SmartContractWallet.sol\":1528:1846  function setAllowance(address _for , uint _amount) public{... */\n    tag_36:\n        /* \"contracts/SmartContractWallet.sol\":1618:1623  owner */\n      0x00\n      dup1\n      sload\n      swap1\n      0x0100\n      exp\n      swap1\n      div\n      0xffffffffffffffffffffffffffffffffffffffff\n      and\n        /* \"contracts/SmartContractWallet.sol\":1604:1623  msg.sender == owner */\n      0xffffffffffffffffffffffffffffffffffffffff\n      and\n        /* \"contracts/SmartContractWallet.sol\":1604:1614  msg.sender */\n      caller\n        /* \"contracts/SmartContractWallet.sol\":1604:1623  msg.sender == owner */\n      0xffffffffffffffffffffffffffffffffffffffff\n      and\n      eq\n        /* \"contracts/SmartContractWallet.sol\":1596:1658  require(msg.sender == owner, \"You're not the owner, aborting\") */\n      tag_69\n      jumpi\n      mload(0x40)\n      0x08c379a000000000000000000000000000000000000000000000000000000000\n      dup2\n      mstore\n      0x04\n      add\n      tag_70\n      swap1\n      tag_67\n      jump\t// in\n    tag_70:\n      mload(0x40)\n      dup1\n      swap2\n      sub\n      swap1\n      revert\n    tag_69:\n        /* \"contracts/SmartContractWallet.sol\":1687:1694  _amount */\n      dup1\n        /* \"contracts/SmartContractWallet.sol\":1669:1678  allowance */\n      0x01\n        /* \"contracts/SmartContractWallet.sol\":1669:1684  allowance[_for] */\n      0x00\n        /* \"contracts/SmartContractWallet.sol\":1679:1683  _for */\n      dup5\n        /* \"contracts/SmartContractWallet.sol\":1669:1684  allowance[_for] */\n      0xffffffffffffffffffffffffffffffffffffffff\n      and\n      0xffffffffffffffffffffffffffffffffffffffff\n      and\n      dup2\n      mstore\n      0x20\n      add\n      swap1\n      dup2\n      mstore\n      0x20\n      add\n      0x00\n      keccak256\n        /* \"contracts/SmartContractWallet.sol\":1669:1694  allowance[_for] = _amount */\n      dup2\n      swap1\n      sstore\n      pop\n        /* \"contracts/SmartContractWallet.sol\":1719:1720  0 */\n      0x00\n        /* \"contracts/SmartContractWallet.sol\":1710:1717  _amount */\n      dup2\n        /* \"contracts/SmartContractWallet.sol\":1710:1720  _amount >0 */\n      gt\n        /* \"contracts/SmartContractWallet.sol\":1707:1837  if(_amount >0){... */\n      iszero\n      tag_71\n      jumpi\n        /* \"contracts/SmartContractWallet.sol\":1760:1764  true */\n      0x01\n        /* \"contracts/SmartContractWallet.sol\":1736:1751  isAllowedToSend */\n      0x02\n        /* \"contracts/SmartContractWallet.sol\":1736:1757  isAllowedToSend[_for] */\n      0x00\n        /* \"contracts/SmartContractWallet.sol\":1752:1756  _for */\n      dup5\n        /* \"contracts/SmartContractWallet.sol\":1736:1757  isAllowedToSend[_for] */\n      0xffffffffffffffffffffffffffffffffffffffff\n      and\n      0xffffffffffffffffffffffffffffffffffffffff\n      and\n      dup2\n      mstore\n      0x20\n      add\n      swap1\n      dup2\n      mstore\n      0x20\n      add\n      0x00\n      keccak256\n      0x00\n        /* \"contracts/SmartContractWallet.sol\":1736:1764  isAllowedToSend[_for] = true */\n      0x0100\n      exp\n      dup2\n      sload\n      dup2\n      0xff\n      mul\n      not\n      and\n      swap1\n      dup4\n      iszero\n      iszero\n      mul\n      or\n      swap1\n      sstore\n      pop\n        /* \"contracts/SmartContractWallet.sol\":1707:1837  if(_amount >0){... */\n      jump(tag_72)\n    tag_71:\n        /* \"contracts/SmartContractWallet.sol\":1820:1825  false */\n      0x00\n        /* \"contracts/SmartContractWallet.sol\":1796:1811  isAllowedToSend */\n      0x02\n        /* \"contracts/SmartContractWallet.sol\":1796:1817  isAllowedToSend[_for] */\n      0x00\n        /* \"contracts/SmartContractWallet.sol\":1812:1816  _for */\n      dup5\n        /* \"contracts/SmartContractWallet.sol\":1796:1817  isAllowedToSend[_for] */\n      0xffffffffffffffffffffffffffffffffffffffff\n      and\n      0xffffffffffffffffffffffffffffffffffffffff\n      and\n      dup2\n      mstore\n      0x20\n      add\n      swap1\n      dup2\n      mstore\n      0x20\n      add\n      0x00\n      keccak256\n      0x00\n        /* \"contracts/SmartContractWallet.sol\":1796:1825  isAllowedToSend[_for] = false */\n      0x0100\n      exp\n      dup2\n      sload\n      dup2\n      0xff\n      mul\n      not\n      and\n      swap1\n      dup4\n      iszero\n      iszero\n      mul\n      or\n      swap1\n      sstore\n      pop\n        /* \"contracts/SmartContractWallet.sol\":1707:1837  if(_amount >0){... */\n    tag_72:\n        /* \"contracts/SmartContractWallet.sol\":1528:1846  function setAllowance(address _for , uint _amount) public{... */\n      pop\n      pop\n      jump\t// out\n        /* \"contracts/SmartContractWallet.sol\":302:344  mapping (address => uint) public allowance */\n    tag_40:\n      mstore(0x20, 0x01)\n      dup1\n      0x00\n      mstore\n      keccak256(0x00, 0x40)\n      0x00\n      swap2\n      pop\n      swap1\n      pop\n      sload\n      dup2\n      jump\t// out\n        /* \"contracts/SmartContractWallet.sol\":599:657  uint public constant confirmationFromGuardiansForReset = 3 */\n    tag_45:\n        /* \"contracts/SmartContractWallet.sol\":656:657  3 */\n      0x03\n        /* \"contracts/SmartContractWallet.sol\":599:657  uint public constant confirmationFromGuardiansForReset = 3 */\n      dup2\n      jump\t// out\n        /* \"contracts/SmartContractWallet.sol\":265:293  address payable public owner */\n    tag_49:\n      0x00\n      dup1\n      sload\n      swap1\n      0x0100\n      exp\n      swap1\n      div\n      0xffffffffffffffffffffffffffffffffffffffff\n      and\n      dup2\n      jump\t// out\n        /* \"contracts/SmartContractWallet.sol\":935:1518  function proposeNewOwner(address payable _newOwner) public {... */\n    tag_56:\n        /* \"contracts/SmartContractWallet.sol\":1013:1022  guardians */\n      0x03\n        /* \"contracts/SmartContractWallet.sol\":1013:1034  guardians[msg.sender] */\n      0x00\n        /* \"contracts/SmartContractWallet.sol\":1023:1033  msg.sender */\n      caller\n        /* \"contracts/SmartContractWallet.sol\":1013:1034  guardians[msg.sender] */\n      0xffffffffffffffffffffffffffffffffffffffff\n      and\n      0xffffffffffffffffffffffffffffffffffffffff\n      and\n      dup2\n      mstore\n      0x20\n      add\n      swap1\n      dup2\n      mstore\n      0x20\n      add\n      0x00\n      keccak256\n      0x00\n      swap1\n      sload\n      swap1\n      0x0100\n      exp\n      swap1\n      div\n      0xff\n      and\n        /* \"contracts/SmartContractWallet.sol\":1005:1078  require(guardians[msg.sender], \"You are not a guardian of this contract\") */\n      tag_74\n      jumpi\n      mload(0x40)\n      0x08c379a000000000000000000000000000000000000000000000000000000000\n      dup2\n      mstore\n      0x04\n      add\n      tag_75\n      swap1\n      tag_76\n      jump\t// in\n    tag_75:\n      mload(0x40)\n      dup1\n      swap2\n      sub\n      swap1\n      revert\n    tag_74:\n        /* \"contracts/SmartContractWallet.sol\":1151:1156  false */\n      0x00\n        /* \"contracts/SmartContractWallet.sol\":1097:1156  nextOwnerGuardianVotedBool[_newOwner][msg.sender] ==  false */\n      iszero\n      iszero\n        /* \"contracts/SmartContractWallet.sol\":1097:1123  nextOwnerGuardianVotedBool */\n      0x05\n        /* \"contracts/SmartContractWallet.sol\":1097:1134  nextOwnerGuardianVotedBool[_newOwner] */\n      0x00\n        /* \"contracts/SmartContractWallet.sol\":1124:1133  _newOwner */\n      dup4\n        /* \"contracts/SmartContractWallet.sol\":1097:1134  nextOwnerGuardianVotedBool[_newOwner] */\n      0xffffffffffffffffffffffffffffffffffffffff\n      and\n      0xffffffffffffffffffffffffffffffffffffffff\n      and\n      dup2\n      mstore\n      0x20\n      add\n      swap1\n      dup2\n      mstore\n      0x20\n      add\n      0x00\n      keccak256\n        /* \"contracts/SmartContractWallet.sol\":1097:1146  nextOwnerGuardianVotedBool[_newOwner][msg.sender] */\n      0x00\n        /* \"contracts/SmartContractWallet.sol\":1135:1145  msg.sender */\n      caller\n        /* \"contracts/SmartContractWallet.sol\":1097:1146  nextOwnerGuardianVotedBool[_newOwner][msg.sender] */\n      0xffffffffffffffffffffffffffffffffffffffff\n      and\n      0xffffffffffffffffffffffffffffffffffffffff\n      and\n      dup2\n      mstore\n      0x20\n      add\n      swap1\n      dup2\n      mstore\n      0x20\n      add\n      0x00\n      keccak256\n      0x00\n      swap1\n      sload\n      swap1\n      0x0100\n      exp\n      swap1\n      div\n      0xff\n      and\n        /* \"contracts/SmartContractWallet.sol\":1097:1156  nextOwnerGuardianVotedBool[_newOwner][msg.sender] ==  false */\n      iszero\n      iszero\n      eq\n        /* \"contracts/SmartContractWallet.sol\":1089:1192  require(nextOwnerGuardianVotedBool[_newOwner][msg.sender] ==  false, \"You are already voted, aborting\") */\n      tag_77\n      jumpi\n      mload(0x40)\n      0x08c379a000000000000000000000000000000000000000000000000000000000\n      dup2\n      mstore\n      0x04\n      add\n      tag_78\n      swap1\n      tag_79\n      jump\t// in\n    tag_78:\n      mload(0x40)\n      dup1\n      swap2\n      sub\n      swap1\n      revert\n    tag_77:\n        /* \"contracts/SmartContractWallet.sol\":1219:1228  nextOwner */\n      0x04\n      0x00\n      swap1\n      sload\n      swap1\n      0x0100\n      exp\n      swap1\n      div\n      0xffffffffffffffffffffffffffffffffffffffff\n      and\n        /* \"contracts/SmartContractWallet.sol\":1206:1228  _newOwner != nextOwner */\n      0xffffffffffffffffffffffffffffffffffffffff\n      and\n        /* \"contracts/SmartContractWallet.sol\":1206:1215  _newOwner */\n      dup2\n        /* \"contracts/SmartContractWallet.sol\":1206:1228  _newOwner != nextOwner */\n      0xffffffffffffffffffffffffffffffffffffffff\n      and\n      eq\n        /* \"contracts/SmartContractWallet.sol\":1203:1315  if(_newOwner != nextOwner){... */\n      tag_80\n      jumpi\n        /* \"contracts/SmartContractWallet.sol\":1256:1265  _newOwner */\n      dup1\n        /* \"contracts/SmartContractWallet.sol\":1244:1253  nextOwner */\n      0x04\n      0x00\n        /* \"contracts/SmartContractWallet.sol\":1244:1265  nextOwner = _newOwner */\n      0x0100\n      exp\n      dup2\n      sload\n      dup2\n      0xffffffffffffffffffffffffffffffffffffffff\n      mul\n      not\n      and\n      swap1\n      dup4\n      0xffffffffffffffffffffffffffffffffffffffff\n      and\n      mul\n      or\n      swap1\n      sstore\n      pop\n        /* \"contracts/SmartContractWallet.sol\":1302:1303  0 */\n      0x00\n        /* \"contracts/SmartContractWallet.sol\":1280:1299  guardiansResetCount */\n      0x06\n        /* \"contracts/SmartContractWallet.sol\":1280:1303  guardiansResetCount = 0 */\n      dup2\n      swap1\n      sstore\n      pop\n        /* \"contracts/SmartContractWallet.sol\":1203:1315  if(_newOwner != nextOwner){... */\n    tag_80:\n        /* \"contracts/SmartContractWallet.sol\":1327:1346  guardiansResetCount */\n      0x06\n      0x00\n        /* \"contracts/SmartContractWallet.sol\":1327:1348  guardiansResetCount++ */\n      dup2\n      sload\n      dup1\n      swap3\n      swap2\n      swap1\n      tag_81\n      swap1\n      tag_82\n      jump\t// in\n    tag_81:\n      swap2\n      swap1\n      pop\n      sstore\n      pop\n        /* \"contracts/SmartContractWallet.sol\":656:657  3 */\n      0x03\n        /* \"contracts/SmartContractWallet.sol\":1364:1383  guardiansResetCount */\n      sload(0x06)\n        /* \"contracts/SmartContractWallet.sol\":1364:1420  guardiansResetCount >= confirmationFromGuardiansForReset */\n      lt\n        /* \"contracts/SmartContractWallet.sol\":1361:1511  if(guardiansResetCount >= confirmationFromGuardiansForReset){... */\n      tag_83\n      jumpi\n        /* \"contracts/SmartContractWallet.sol\":1444:1453  nextOwner */\n      0x04\n      0x00\n      swap1\n      sload\n      swap1\n      0x0100\n      exp\n      swap1\n      div\n      0xffffffffffffffffffffffffffffffffffffffff\n      and\n        /* \"contracts/SmartContractWallet.sol\":1436:1441  owner */\n      0x00\n      dup1\n        /* \"contracts/SmartContractWallet.sol\":1436:1453  owner = nextOwner */\n      0x0100\n      exp\n      dup2\n      sload\n      dup2\n      0xffffffffffffffffffffffffffffffffffffffff\n      mul\n      not\n      and\n      swap1\n      dup4\n      0xffffffffffffffffffffffffffffffffffffffff\n      and\n      mul\n      or\n      swap1\n      sstore\n      pop\n        /* \"contracts/SmartContractWallet.sol\":1496:1497  0 */\n      0x00\n        /* \"contracts/SmartContractWallet.sol\":1468:1477  nextOwner */\n      0x04\n      0x00\n        /* \"contracts/SmartContractWallet.sol\":1468:1499  nextOwner = payable(address(0)) */\n      0x0100\n      exp\n      dup2\n      sload\n      dup2\n      0xffffffffffffffffffffffffffffffffffffffff\n      mul\n      not\n      and\n      swap1\n      dup4\n      0xffffffffffffffffffffffffffffffffffffffff\n      and\n      mul\n      or\n      swap1\n      sstore\n      pop\n        /* \"contracts/SmartContractWallet.sol\":1361:1511  if(guardiansResetCount >= confirmationFromGuardiansForReset){... */\n    tag_83:\n        /* \"contracts/SmartContractWallet.sol\":935:1518  function proposeNewOwner(address payable _newOwner) public {... */\n      pop\n      jump\t// out\n        /* \"contracts/SmartContractWallet.sol\":1877:2620  function transfer (address payable _to , uint _amount, bytes memory _payload)  public returns(bytes memory){... */\n    tag_61:\n        /* \"contracts/SmartContractWallet.sol\":1971:1983  bytes memory */\n      0x60\n        /* \"contracts/SmartContractWallet.sol\":2061:2066  owner */\n      0x00\n      dup1\n      sload\n      swap1\n      0x0100\n      exp\n      swap1\n      div\n      0xffffffffffffffffffffffffffffffffffffffff\n      and\n        /* \"contracts/SmartContractWallet.sol\":2047:2066  msg.sender == owner */\n      0xffffffffffffffffffffffffffffffffffffffff\n      and\n        /* \"contracts/SmartContractWallet.sol\":2047:2057  msg.sender */\n      caller\n        /* \"contracts/SmartContractWallet.sol\":2047:2066  msg.sender == owner */\n      0xffffffffffffffffffffffffffffffffffffffff\n      and\n      eq\n        /* \"contracts/SmartContractWallet.sol\":2039:2100  require(msg.sender == owner,\"You're not the owner, aborting\") */\n      tag_85\n      jumpi\n      mload(0x40)\n      0x08c379a000000000000000000000000000000000000000000000000000000000\n      dup2\n      mstore\n      0x04\n      add\n      tag_86\n      swap1\n      tag_67\n      jump\t// in\n    tag_86:\n      mload(0x40)\n      dup1\n      swap2\n      sub\n      swap1\n      revert\n    tag_85:\n        /* \"contracts/SmartContractWallet.sol\":2128:2133  owner */\n      0x00\n      dup1\n      sload\n      swap1\n      0x0100\n      exp\n      swap1\n      div\n      0xffffffffffffffffffffffffffffffffffffffff\n      and\n        /* \"contracts/SmartContractWallet.sol\":2114:2133  msg.sender != owner */\n      0xffffffffffffffffffffffffffffffffffffffff\n      and\n        /* \"contracts/SmartContractWallet.sol\":2114:2124  msg.sender */\n      caller\n        /* \"contracts/SmartContractWallet.sol\":2114:2133  msg.sender != owner */\n      0xffffffffffffffffffffffffffffffffffffffff\n      and\n      eq\n        /* \"contracts/SmartContractWallet.sol\":2111:2434  if(msg.sender != owner){... */\n      tag_87\n      jumpi\n        /* \"contracts/SmartContractWallet.sol\":2182:2189  _amount */\n      dup3\n        /* \"contracts/SmartContractWallet.sol\":2157:2166  allowance */\n      0x01\n        /* \"contracts/SmartContractWallet.sol\":2157:2178  allowance[msg.sender] */\n      0x00\n        /* \"contracts/SmartContractWallet.sol\":2167:2177  msg.sender */\n      caller\n        /* \"contracts/SmartContractWallet.sol\":2157:2178  allowance[msg.sender] */\n      0xffffffffffffffffffffffffffffffffffffffff\n      and\n      0xffffffffffffffffffffffffffffffffffffffff\n      and\n      dup2\n      mstore\n      0x20\n      add\n      swap1\n      dup2\n      mstore\n      0x20\n      add\n      0x00\n      keccak256\n      sload\n        /* \"contracts/SmartContractWallet.sol\":2157:2189  allowance[msg.sender] >= _amount */\n      lt\n      iszero\n        /* \"contracts/SmartContractWallet.sol\":2149:2252  require(allowance[msg.sender] >= _amount , \"You are trying to send more than you allowed to, aborting\") */\n      tag_88\n      jumpi\n      mload(0x40)\n      0x08c379a000000000000000000000000000000000000000000000000000000000\n      dup2\n      mstore\n      0x04\n      add\n      tag_89\n      swap1\n      tag_90\n      jump\t// in\n    tag_89:\n      mload(0x40)\n      dup1\n      swap2\n      sub\n      swap1\n      revert\n    tag_88:\n        /* \"contracts/SmartContractWallet.sol\":2275:2290  isAllowedToSend */\n      0x02\n        /* \"contracts/SmartContractWallet.sol\":2275:2302  isAllowedToSend[msg.sender] */\n      0x00\n        /* \"contracts/SmartContractWallet.sol\":2291:2301  msg.sender */\n      caller\n        /* \"contracts/SmartContractWallet.sol\":2275:2302  isAllowedToSend[msg.sender] */\n      0xffffffffffffffffffffffffffffffffffffffff\n      and\n      0xffffffffffffffffffffffffffffffffffffffff\n      and\n      dup2\n      mstore\n      0x20\n      add\n      swap1\n      dup2\n      mstore\n      0x20\n      add\n      0x00\n      keccak256\n      0x00\n      swap1\n      sload\n      swap1\n      0x0100\n      exp\n      swap1\n      div\n      0xff\n      and\n        /* \"contracts/SmartContractWallet.sol\":2267:2373  require(isAllowedToSend[msg.sender], \"You are not allowed to send anything from this contract, aborting.\") */\n      tag_91\n      jumpi\n      mload(0x40)\n      0x08c379a000000000000000000000000000000000000000000000000000000000\n      dup2\n      mstore\n      0x04\n      add\n      tag_92\n      swap1\n      tag_93\n      jump\t// in\n    tag_92:\n      mload(0x40)\n      dup1\n      swap2\n      sub\n      swap1\n      revert\n    tag_91:\n        /* \"contracts/SmartContractWallet.sol\":2415:2422  _amount */\n      dup3\n        /* \"contracts/SmartContractWallet.sol\":2390:2399  allowance */\n      0x01\n        /* \"contracts/SmartContractWallet.sol\":2390:2411  allowance[msg.sender] */\n      0x00\n        /* \"contracts/SmartContractWallet.sol\":2400:2410  msg.sender */\n      caller\n        /* \"contracts/SmartContractWallet.sol\":2390:2411  allowance[msg.sender] */\n      0xffffffffffffffffffffffffffffffffffffffff\n      and\n      0xffffffffffffffffffffffffffffffffffffffff\n      and\n      dup2\n      mstore\n      0x20\n      add\n      swap1\n      dup2\n      mstore\n      0x20\n      add\n      0x00\n      keccak256\n      0x00\n        /* \"contracts/SmartContractWallet.sol\":2390:2422  allowance[msg.sender] -= _amount */\n      dup3\n      dup3\n      sload\n      tag_94\n      swap2\n      swap1\n      tag_95\n      jump\t// in\n    tag_94:\n      swap3\n      pop\n      pop\n      dup2\n      swap1\n      sstore\n      pop\n        /* \"contracts/SmartContractWallet.sol\":2111:2434  if(msg.sender != owner){... */\n    tag_87:\n        /* \"contracts/SmartContractWallet.sol\":2445:2457  bool success */\n      0x00\n        /* \"contracts/SmartContractWallet.sol\":2459:2482  bytes memory returnData */\n      dup1\n        /* \"contracts/SmartContractWallet.sol\":2486:2489  _to */\n      dup6\n        /* \"contracts/SmartContractWallet.sol\":2486:2494  _to.call */\n      0xffffffffffffffffffffffffffffffffffffffff\n      and\n        /* \"contracts/SmartContractWallet.sol\":2502:2509  _amount */\n      dup6\n        /* \"contracts/SmartContractWallet.sol\":2511:2519  _payload */\n      dup6\n        /* \"contracts/SmartContractWallet.sol\":2486:2520  _to.call{value: _amount}(_payload) */\n      mload(0x40)\n      tag_96\n      swap2\n      swap1\n      tag_97\n      jump\t// in\n    tag_96:\n      0x00\n      mload(0x40)\n      dup1\n      dup4\n      sub\n      dup2\n      dup6\n      dup8\n      gas\n      call\n      swap3\n      pop\n      pop\n      pop\n      returndatasize\n      dup1\n      0x00\n      dup2\n      eq\n      tag_100\n      jumpi\n      mload(0x40)\n      swap2\n      pop\n      and(add(returndatasize, 0x3f), not(0x1f))\n      dup3\n      add\n      0x40\n      mstore\n      returndatasize\n      dup3\n      mstore\n      returndatasize\n      0x00\n      0x20\n      dup5\n      add\n      returndatacopy\n      jump(tag_99)\n    tag_100:\n      0x60\n      swap2\n      pop\n    tag_99:\n      pop\n        /* \"contracts/SmartContractWallet.sol\":2444:2520  (bool success, bytes memory returnData) = _to.call{value: _amount}(_payload) */\n      swap2\n      pop\n      swap2\n      pop\n        /* \"contracts/SmartContractWallet.sol\":2539:2546  success */\n      dup2\n        /* \"contracts/SmartContractWallet.sol\":2531:2584  require(success, \"Aborting, call was not successful\") */\n      tag_101\n      jumpi\n      mload(0x40)\n      0x08c379a000000000000000000000000000000000000000000000000000000000\n      dup2\n      mstore\n      0x04\n      add\n      tag_102\n      swap1\n      tag_103\n      jump\t// in\n    tag_102:\n      mload(0x40)\n      dup1\n      swap2\n      sub\n      swap1\n      revert\n    tag_101:\n        /* \"contracts/SmartContractWallet.sol\":2602:2612  returnData */\n      dup1\n        /* \"contracts/SmartContractWallet.sol\":2595:2612  return returnData */\n      swap3\n      pop\n      pop\n      pop\n        /* \"contracts/SmartContractWallet.sol\":1877:2620  function transfer (address payable _to , uint _amount, bytes memory _payload)  public returns(bytes memory){... */\n      swap4\n      swap3\n      pop\n      pop\n      pop\n      jump\t// out\n        /* \"#utility.yul\":7:82   */\n    tag_104:\n        /* \"#utility.yul\":40:46   */\n      0x00\n        /* \"#utility.yul\":73:75   */\n      0x40\n        /* \"#utility.yul\":67:76   */\n      mload\n        /* \"#utility.yul\":57:76   */\n      swap1\n      pop\n        /* \"#utility.yul\":7:82   */\n      swap1\n      jump\t// out\n        /* \"#utility.yul\":88:205   */\n    tag_105:\n        /* \"#utility.yul\":197:198   */\n      0x00\n        /* \"#utility.yul\":194:195   */\n      dup1\n        /* \"#utility.yul\":187:199   */\n      revert\n        /* \"#utility.yul\":211:328   */\n    tag_106:\n        /* \"#utility.yul\":320:321   */\n      0x00\n        /* \"#utility.yul\":317:318   */\n      dup1\n        /* \"#utility.yul\":310:322   */\n      revert\n        /* \"#utility.yul\":334:460   */\n    tag_107:\n        /* \"#utility.yul\":371:378   */\n      0x00\n        /* \"#utility.yul\":411:453   */\n      0xffffffffffffffffffffffffffffffffffffffff\n        /* \"#utility.yul\":404:409   */\n      dup3\n        /* \"#utility.yul\":400:454   */\n      and\n        /* \"#utility.yul\":389:454   */\n      swap1\n      pop\n        /* \"#utility.yul\":334:460   */\n      swap2\n      swap1\n      pop\n      jump\t// out\n        /* \"#utility.yul\":466:562   */\n    tag_108:\n        /* \"#utility.yul\":503:510   */\n      0x00\n        /* \"#utility.yul\":532:556   */\n      tag_159\n        /* \"#utility.yul\":550:555   */\n      dup3\n        /* \"#utility.yul\":532:556   */\n      tag_107\n      jump\t// in\n    tag_159:\n        /* \"#utility.yul\":521:556   */\n      swap1\n      pop\n        /* \"#utility.yul\":466:562   */\n      swap2\n      swap1\n      pop\n      jump\t// out\n        /* \"#utility.yul\":568:690   */\n    tag_109:\n        /* \"#utility.yul\":641:665   */\n      tag_161\n        /* \"#utility.yul\":659:664   */\n      dup2\n        /* \"#utility.yul\":641:665   */\n      tag_108\n      jump\t// in\n    tag_161:\n        /* \"#utility.yul\":634:639   */\n      dup2\n        /* \"#utility.yul\":631:666   */\n      eq\n        /* \"#utility.yul\":621:684   */\n      tag_162\n      jumpi\n        /* \"#utility.yul\":680:681   */\n      0x00\n        /* \"#utility.yul\":677:678   */\n      dup1\n        /* \"#utility.yul\":670:682   */\n      revert\n        /* \"#utility.yul\":621:684   */\n    tag_162:\n        /* \"#utility.yul\":568:690   */\n      pop\n      jump\t// out\n        /* \"#utility.yul\":696:835   */\n    tag_110:\n        /* \"#utility.yul\":742:747   */\n      0x00\n        /* \"#utility.yul\":780:786   */\n      dup2\n        /* \"#utility.yul\":767:787   */\n      calldataload\n        /* \"#utility.yul\":758:787   */\n      swap1\n      pop\n        /* \"#utility.yul\":796:829   */\n      tag_164\n        /* \"#utility.yul\":823:828   */\n      dup2\n        /* \"#utility.yul\":796:829   */\n      tag_109\n      jump\t// in\n    tag_164:\n        /* \"#utility.yul\":696:835   */\n      swap3\n      swap2\n      pop\n      pop\n      jump\t// out\n        /* \"#utility.yul\":841:1170   */\n    tag_18:\n        /* \"#utility.yul\":900:906   */\n      0x00\n        /* \"#utility.yul\":949:951   */\n      0x20\n        /* \"#utility.yul\":937:946   */\n      dup3\n        /* \"#utility.yul\":928:935   */\n      dup5\n        /* \"#utility.yul\":924:947   */\n      sub\n        /* \"#utility.yul\":920:952   */\n      slt\n        /* \"#utility.yul\":917:1036   */\n      iszero\n      tag_166\n      jumpi\n        /* \"#utility.yul\":955:1034   */\n      tag_167\n      tag_105\n      jump\t// in\n    tag_167:\n        /* \"#utility.yul\":917:1036   */\n    tag_166:\n        /* \"#utility.yul\":1075:1076   */\n      0x00\n        /* \"#utility.yul\":1100:1153   */\n      tag_168\n        /* \"#utility.yul\":1145:1152   */\n      dup5\n        /* \"#utility.yul\":1136:1142   */\n      dup3\n        /* \"#utility.yul\":1125:1134   */\n      dup6\n        /* \"#utility.yul\":1121:1143   */\n      add\n        /* \"#utility.yul\":1100:1153   */\n      tag_110\n      jump\t// in\n    tag_168:\n        /* \"#utility.yul\":1090:1153   */\n      swap2\n      pop\n        /* \"#utility.yul\":1046:1163   */\n      pop\n        /* \"#utility.yul\":841:1170   */\n      swap3\n      swap2\n      pop\n      pop\n      jump\t// out\n        /* \"#utility.yul\":1176:1266   */\n    tag_111:\n        /* \"#utility.yul\":1210:1217   */\n      0x00\n        /* \"#utility.yul\":1253:1258   */\n      dup2\n        /* \"#utility.yul\":1246:1259   */\n      iszero\n        /* \"#utility.yul\":1239:1260   */\n      iszero\n        /* \"#utility.yul\":1228:1260   */\n      swap1\n      pop\n        /* \"#utility.yul\":1176:1266   */\n      swap2\n      swap1\n      pop\n      jump\t// out\n        /* \"#utility.yul\":1272:1381   */\n    tag_112:\n        /* \"#utility.yul\":1353:1374   */\n      tag_171\n        /* \"#utility.yul\":1368:1373   */\n      dup2\n        /* \"#utility.yul\":1353:1374   */\n      tag_111\n      jump\t// in\n    tag_171:\n        /* \"#utility.yul\":1348:1351   */\n      dup3\n        /* \"#utility.yul\":1341:1375   */\n      mstore\n        /* \"#utility.yul\":1272:1381   */\n      pop\n      pop\n      jump\t// out\n        /* \"#utility.yul\":1387:1597   */\n    tag_21:\n        /* \"#utility.yul\":1474:1478   */\n      0x00\n        /* \"#utility.yul\":1512:1514   */\n      0x20\n        /* \"#utility.yul\":1501:1510   */\n      dup3\n        /* \"#utility.yul\":1497:1515   */\n      add\n        /* \"#utility.yul\":1489:1515   */\n      swap1\n      pop\n        /* \"#utility.yul\":1525:1590   */\n      tag_173\n        /* \"#utility.yul\":1587:1588   */\n      0x00\n        /* \"#utility.yul\":1576:1585   */\n      dup4\n        /* \"#utility.yul\":1572:1589   */\n      add\n        /* \"#utility.yul\":1563:1569   */\n      dup5\n        /* \"#utility.yul\":1525:1590   */\n      tag_112\n      jump\t// in\n    tag_173:\n        /* \"#utility.yul\":1387:1597   */\n      swap3\n      swap2\n      pop\n      pop\n      jump\t// out\n        /* \"#utility.yul\":1603:1719   */\n    tag_113:\n        /* \"#utility.yul\":1673:1694   */\n      tag_175\n        /* \"#utility.yul\":1688:1693   */\n      dup2\n        /* \"#utility.yul\":1673:1694   */\n      tag_111\n      jump\t// in\n    tag_175:\n        /* \"#utility.yul\":1666:1671   */\n      dup2\n        /* \"#utility.yul\":1663:1695   */\n      eq\n        /* \"#utility.yul\":1653:1713   */\n      tag_176\n      jumpi\n        /* \"#utility.yul\":1709:1710   */\n      0x00\n        /* \"#utility.yul\":1706:1707   */\n      dup1\n        /* \"#utility.yul\":1699:1711   */\n      revert\n        /* \"#utility.yul\":1653:1713   */\n    tag_176:\n        /* \"#utility.yul\":1603:1719   */\n      pop\n      jump\t// out\n        /* \"#utility.yul\":1725:1858   */\n    tag_114:\n        /* \"#utility.yul\":1768:1773   */\n      0x00\n        /* \"#utility.yul\":1806:1812   */\n      dup2\n        /* \"#utility.yul\":1793:1813   */\n      calldataload\n        /* \"#utility.yul\":1784:1813   */\n      swap1\n      pop\n        /* \"#utility.yul\":1822:1852   */\n      tag_178\n        /* \"#utility.yul\":1846:1851   */\n      dup2\n        /* \"#utility.yul\":1822:1852   */\n      tag_113\n      jump\t// in\n    tag_178:\n        /* \"#utility.yul\":1725:1858   */\n      swap3\n      swap2\n      pop\n      pop\n      jump\t// out\n        /* \"#utility.yul\":1864:2332   */\n    tag_30:\n        /* \"#utility.yul\":1929:1935   */\n      0x00\n        /* \"#utility.yul\":1937:1943   */\n      dup1\n        /* \"#utility.yul\":1986:1988   */\n      0x40\n        /* \"#utility.yul\":1974:1983   */\n      dup4\n        /* \"#utility.yul\":1965:1972   */\n      dup6\n        /* \"#utility.yul\":1961:1984   */\n      sub\n        /* \"#utility.yul\":1957:1989   */\n      slt\n        /* \"#utility.yul\":1954:2073   */\n      iszero\n      tag_180\n      jumpi\n        /* \"#utility.yul\":1992:2071   */\n      tag_181\n      tag_105\n      jump\t// in\n    tag_181:\n        /* \"#utility.yul\":1954:2073   */\n    tag_180:\n        /* \"#utility.yul\":2112:2113   */\n      0x00\n        /* \"#utility.yul\":2137:2190   */\n      tag_182\n        /* \"#utility.yul\":2182:2189   */\n      dup6\n        /* \"#utility.yul\":2173:2179   */\n      dup3\n        /* \"#utility.yul\":2162:2171   */\n      dup7\n        /* \"#utility.yul\":2158:2180   */\n      add\n        /* \"#utility.yul\":2137:2190   */\n      tag_110\n      jump\t// in\n    tag_182:\n        /* \"#utility.yul\":2127:2190   */\n      swap3\n      pop\n        /* \"#utility.yul\":2083:2200   */\n      pop\n        /* \"#utility.yul\":2239:2241   */\n      0x20\n        /* \"#utility.yul\":2265:2315   */\n      tag_183\n        /* \"#utility.yul\":2307:2314   */\n      dup6\n        /* \"#utility.yul\":2298:2304   */\n      dup3\n        /* \"#utility.yul\":2287:2296   */\n      dup7\n        /* \"#utility.yul\":2283:2305   */\n      add\n        /* \"#utility.yul\":2265:2315   */\n      tag_114\n      jump\t// in\n    tag_183:\n        /* \"#utility.yul\":2255:2315   */\n      swap2\n      pop\n        /* \"#utility.yul\":2210:2325   */\n      pop\n        /* \"#utility.yul\":1864:2332   */\n      swap3\n      pop\n      swap3\n      swap1\n      pop\n      jump\t// out\n        /* \"#utility.yul\":2338:2415   */\n    tag_115:\n        /* \"#utility.yul\":2375:2382   */\n      0x00\n        /* \"#utility.yul\":2404:2409   */\n      dup2\n        /* \"#utility.yul\":2393:2409   */\n      swap1\n      pop\n        /* \"#utility.yul\":2338:2415   */\n      swap2\n      swap1\n      pop\n      jump\t// out\n        /* \"#utility.yul\":2421:2543   */\n    tag_116:\n        /* \"#utility.yul\":2494:2518   */\n      tag_186\n        /* \"#utility.yul\":2512:2517   */\n      dup2\n        /* \"#utility.yul\":2494:2518   */\n      tag_115\n      jump\t// in\n    tag_186:\n        /* \"#utility.yul\":2487:2492   */\n      dup2\n        /* \"#utility.yul\":2484:2519   */\n      eq\n        /* \"#utility.yul\":2474:2537   */\n      tag_187\n      jumpi\n        /* \"#utility.yul\":2533:2534   */\n      0x00\n        /* \"#utility.yul\":2530:2531   */\n      dup1\n        /* \"#utility.yul\":2523:2535   */\n      revert\n        /* \"#utility.yul\":2474:2537   */\n    tag_187:\n        /* \"#utility.yul\":2421:2543   */\n      pop\n      jump\t// out\n        /* \"#utility.yul\":2549:2688   */\n    tag_117:\n        /* \"#utility.yul\":2595:2600   */\n      0x00\n        /* \"#utility.yul\":2633:2639   */\n      dup2\n        /* \"#utility.yul\":2620:2640   */\n      calldataload\n        /* \"#utility.yul\":2611:2640   */\n      swap1\n      pop\n        /* \"#utility.yul\":2649:2682   */\n      tag_189\n        /* \"#utility.yul\":2676:2681   */\n      dup2\n        /* \"#utility.yul\":2649:2682   */\n      tag_116\n      jump\t// in\n    tag_189:\n        /* \"#utility.yul\":2549:2688   */\n      swap3\n      swap2\n      pop\n      pop\n      jump\t// out\n        /* \"#utility.yul\":2694:3168   */\n    tag_35:\n        /* \"#utility.yul\":2762:2768   */\n      0x00\n        /* \"#utility.yul\":2770:2776   */\n      dup1\n        /* \"#utility.yul\":2819:2821   */\n      0x40\n        /* \"#utility.yul\":2807:2816   */\n      dup4\n        /* \"#utility.yul\":2798:2805   */\n      dup6\n        /* \"#utility.yul\":2794:2817   */\n      sub\n        /* \"#utility.yul\":2790:2822   */\n      slt\n        /* \"#utility.yul\":2787:2906   */\n      iszero\n      tag_191\n      jumpi\n        /* \"#utility.yul\":2825:2904   */\n      tag_192\n      tag_105\n      jump\t// in\n    tag_192:\n        /* \"#utility.yul\":2787:2906   */\n    tag_191:\n        /* \"#utility.yul\":2945:2946   */\n      0x00\n        /* \"#utility.yul\":2970:3023   */\n      tag_193\n        /* \"#utility.yul\":3015:3022   */\n      dup6\n        /* \"#utility.yul\":3006:3012   */\n      dup3\n        /* \"#utility.yul\":2995:3004   */\n      dup7\n        /* \"#utility.yul\":2991:3013   */\n      add\n        /* \"#utility.yul\":2970:3023   */\n      tag_110\n      jump\t// in\n    tag_193:\n        /* \"#utility.yul\":2960:3023   */\n      swap3\n      pop\n        /* \"#utility.yul\":2916:3033   */\n      pop\n        /* \"#utility.yul\":3072:3074   */\n      0x20\n        /* \"#utility.yul\":3098:3151   */\n      tag_194\n        /* \"#utility.yul\":3143:3150   */\n      dup6\n        /* \"#utility.yul\":3134:3140   */\n      dup3\n        /* \"#utility.yul\":3123:3132   */\n      dup7\n        /* \"#utility.yul\":3119:3141   */\n      add\n        /* \"#utility.yul\":3098:3151   */\n      tag_117\n      jump\t// in\n    tag_194:\n        /* \"#utility.yul\":3088:3151   */\n      swap2\n      pop\n        /* \"#utility.yul\":3043:3161   */\n      pop\n        /* \"#utility.yul\":2694:3168   */\n      swap3\n      pop\n      swap3\n      swap1\n      pop\n      jump\t// out\n        /* \"#utility.yul\":3174:3292   */\n    tag_118:\n        /* \"#utility.yul\":3261:3285   */\n      tag_196\n        /* \"#utility.yul\":3279:3284   */\n      dup2\n        /* \"#utility.yul\":3261:3285   */\n      tag_115\n      jump\t// in\n    tag_196:\n        /* \"#utility.yul\":3256:3259   */\n      dup3\n        /* \"#utility.yul\":3249:3286   */\n      mstore\n        /* \"#utility.yul\":3174:3292   */\n      pop\n      pop\n      jump\t// out\n        /* \"#utility.yul\":3298:3520   */\n    tag_42:\n        /* \"#utility.yul\":3391:3395   */\n      0x00\n        /* \"#utility.yul\":3429:3431   */\n      0x20\n        /* \"#utility.yul\":3418:3427   */\n      dup3\n        /* \"#utility.yul\":3414:3432   */\n      add\n        /* \"#utility.yul\":3406:3432   */\n      swap1\n      pop\n        /* \"#utility.yul\":3442:3513   */\n      tag_198\n        /* \"#utility.yul\":3510:3511   */\n      0x00\n        /* \"#utility.yul\":3499:3508   */\n      dup4\n        /* \"#utility.yul\":3495:3512   */\n      add\n        /* \"#utility.yul\":3486:3492   */\n      dup5\n        /* \"#utility.yul\":3442:3513   */\n      tag_118\n      jump\t// in\n    tag_198:\n        /* \"#utility.yul\":3298:3520   */\n      swap3\n      swap2\n      pop\n      pop\n      jump\t// out\n        /* \"#utility.yul\":3526:3630   */\n    tag_119:\n        /* \"#utility.yul\":3571:3578   */\n      0x00\n        /* \"#utility.yul\":3600:3624   */\n      tag_200\n        /* \"#utility.yul\":3618:3623   */\n      dup3\n        /* \"#utility.yul\":3600:3624   */\n      tag_107\n      jump\t// in\n    tag_200:\n        /* \"#utility.yul\":3589:3624   */\n      swap1\n      pop\n        /* \"#utility.yul\":3526:3630   */\n      swap2\n      swap1\n      pop\n      jump\t// out\n        /* \"#utility.yul\":3636:3778   */\n    tag_120:\n        /* \"#utility.yul\":3739:3771   */\n      tag_202\n        /* \"#utility.yul\":3765:3770   */\n      dup2\n        /* \"#utility.yul\":3739:3771   */\n      tag_119\n      jump\t// in\n    tag_202:\n        /* \"#utility.yul\":3734:3737   */\n      dup3\n        /* \"#utility.yul\":3727:3772   */\n      mstore\n        /* \"#utility.yul\":3636:3778   */\n      pop\n      pop\n      jump\t// out\n        /* \"#utility.yul\":3784:4038   */\n    tag_51:\n        /* \"#utility.yul\":3893:3897   */\n      0x00\n        /* \"#utility.yul\":3931:3933   */\n      0x20\n        /* \"#utility.yul\":3920:3929   */\n      dup3\n        /* \"#utility.yul\":3916:3934   */\n      add\n        /* \"#utility.yul\":3908:3934   */\n      swap1\n      pop\n        /* \"#utility.yul\":3944:4031   */\n      tag_204\n        /* \"#utility.yul\":4028:4029   */\n      0x00\n        /* \"#utility.yul\":4017:4026   */\n      dup4\n        /* \"#utility.yul\":4013:4030   */\n      add\n        /* \"#utility.yul\":4004:4010   */\n      dup5\n        /* \"#utility.yul\":3944:4031   */\n      tag_120\n      jump\t// in\n    tag_204:\n        /* \"#utility.yul\":3784:4038   */\n      swap3\n      swap2\n      pop\n      pop\n      jump\t// out\n        /* \"#utility.yul\":4044:4182   */\n    tag_121:\n        /* \"#utility.yul\":4125:4157   */\n      tag_206\n        /* \"#utility.yul\":4151:4156   */\n      dup2\n        /* \"#utility.yul\":4125:4157   */\n      tag_119\n      jump\t// in\n    tag_206:\n        /* \"#utility.yul\":4118:4123   */\n      dup2\n        /* \"#utility.yul\":4115:4158   */\n      eq\n        /* \"#utility.yul\":4105:4176   */\n      tag_207\n      jumpi\n        /* \"#utility.yul\":4172:4173   */\n      0x00\n        /* \"#utility.yul\":4169:4170   */\n      dup1\n        /* \"#utility.yul\":4162:4174   */\n      revert\n        /* \"#utility.yul\":4105:4176   */\n    tag_207:\n        /* \"#utility.yul\":4044:4182   */\n      pop\n      jump\t// out\n        /* \"#utility.yul\":4188:4343   */\n    tag_122:\n        /* \"#utility.yul\":4242:4247   */\n      0x00\n        /* \"#utility.yul\":4280:4286   */\n      dup2\n        /* \"#utility.yul\":4267:4287   */\n      calldataload\n        /* \"#utility.yul\":4258:4287   */\n      swap1\n      pop\n        /* \"#utility.yul\":4296:4337   */\n      tag_209\n        /* \"#utility.yul\":4331:4336   */\n      dup2\n        /* \"#utility.yul\":4296:4337   */\n      tag_121\n      jump\t// in\n    tag_209:\n        /* \"#utility.yul\":4188:4343   */\n      swap3\n      swap2\n      pop\n      pop\n      jump\t// out\n        /* \"#utility.yul\":4349:4694   */\n    tag_55:\n        /* \"#utility.yul\":4416:4422   */\n      0x00\n        /* \"#utility.yul\":4465:4467   */\n      0x20\n        /* \"#utility.yul\":4453:4462   */\n      dup3\n        /* \"#utility.yul\":4444:4451   */\n      dup5\n        /* \"#utility.yul\":4440:4463   */\n      sub\n        /* \"#utility.yul\":4436:4468   */\n      slt\n        /* \"#utility.yul\":4433:4552   */\n      iszero\n      tag_211\n      jumpi\n        /* \"#utility.yul\":4471:4550   */\n      tag_212\n      tag_105\n      jump\t// in\n    tag_212:\n        /* \"#utility.yul\":4433:4552   */\n    tag_211:\n        /* \"#utility.yul\":4591:4592   */\n      0x00\n        /* \"#utility.yul\":4616:4677   */\n      tag_213\n        /* \"#utility.yul\":4669:4676   */\n      dup5\n        /* \"#utility.yul\":4660:4666   */\n      dup3\n        /* \"#utility.yul\":4649:4658   */\n      dup6\n        /* \"#utility.yul\":4645:4667   */\n      add\n        /* \"#utility.yul\":4616:4677   */\n      tag_122\n      jump\t// in\n    tag_213:\n        /* \"#utility.yul\":4606:4677   */\n      swap2\n      pop\n        /* \"#utility.yul\":4562:4687   */\n      pop\n        /* \"#utility.yul\":4349:4694   */\n      swap3\n      swap2\n      pop\n      pop\n      jump\t// out\n        /* \"#utility.yul\":4700:4817   */\n    tag_123:\n        /* \"#utility.yul\":4809:4810   */\n      0x00\n        /* \"#utility.yul\":4806:4807   */\n      dup1\n        /* \"#utility.yul\":4799:4811   */\n      revert\n        /* \"#utility.yul\":4823:4940   */\n    tag_124:\n        /* \"#utility.yul\":4932:4933   */\n      0x00\n        /* \"#utility.yul\":4929:4930   */\n      dup1\n        /* \"#utility.yul\":4922:4934   */\n      revert\n        /* \"#utility.yul\":4946:5048   */\n    tag_125:\n        /* \"#utility.yul\":4987:4993   */\n      0x00\n        /* \"#utility.yul\":5038:5040   */\n      0x1f\n        /* \"#utility.yul\":5034:5041   */\n      not\n        /* \"#utility.yul\":5029:5031   */\n      0x1f\n        /* \"#utility.yul\":5022:5027   */\n      dup4\n        /* \"#utility.yul\":5018:5032   */\n      add\n        /* \"#utility.yul\":5014:5042   */\n      and\n        /* \"#utility.yul\":5004:5042   */\n      swap1\n      pop\n        /* \"#utility.yul\":4946:5048   */\n      swap2\n      swap1\n      pop\n      jump\t// out\n        /* \"#utility.yul\":5054:5234   */\n    tag_126:\n        /* \"#utility.yul\":5102:5179   */\n      0x4e487b7100000000000000000000000000000000000000000000000000000000\n        /* \"#utility.yul\":5099:5100   */\n      0x00\n        /* \"#utility.yul\":5092:5180   */\n      mstore\n        /* \"#utility.yul\":5199:5203   */\n      0x41\n        /* \"#utility.yul\":5196:5197   */\n      0x04\n        /* \"#utility.yul\":5189:5204   */\n      mstore\n        /* \"#utility.yul\":5223:5227   */\n      0x24\n        /* \"#utility.yul\":5220:5221   */\n      0x00\n        /* \"#utility.yul\":5213:5228   */\n      revert\n        /* \"#utility.yul\":5240:5521   */\n    tag_127:\n        /* \"#utility.yul\":5323:5350   */\n      tag_219\n        /* \"#utility.yul\":5345:5349   */\n      dup3\n        /* \"#utility.yul\":5323:5350   */\n      tag_125\n      jump\t// in\n    tag_219:\n        /* \"#utility.yul\":5315:5321   */\n      dup2\n        /* \"#utility.yul\":5311:5351   */\n      add\n        /* \"#utility.yul\":5453:5459   */\n      dup2\n        /* \"#utility.yul\":5441:5451   */\n      dup2\n        /* \"#utility.yul\":5438:5460   */\n      lt\n        /* \"#utility.yul\":5417:5435   */\n      0xffffffffffffffff\n        /* \"#utility.yul\":5405:5415   */\n      dup3\n        /* \"#utility.yul\":5402:5436   */\n      gt\n        /* \"#utility.yul\":5399:5461   */\n      or\n        /* \"#utility.yul\":5396:5484   */\n      iszero\n      tag_220\n      jumpi\n        /* \"#utility.yul\":5464:5482   */\n      tag_221\n      tag_126\n      jump\t// in\n    tag_221:\n        /* \"#utility.yul\":5396:5484   */\n    tag_220:\n        /* \"#utility.yul\":5504:5514   */\n      dup1\n        /* \"#utility.yul\":5500:5502   */\n      0x40\n        /* \"#utility.yul\":5493:5515   */\n      mstore\n        /* \"#utility.yul\":5283:5521   */\n      pop\n        /* \"#utility.yul\":5240:5521   */\n      pop\n      pop\n      jump\t// out\n        /* \"#utility.yul\":5527:5656   */\n    tag_128:\n        /* \"#utility.yul\":5561:5567   */\n      0x00\n        /* \"#utility.yul\":5588:5608   */\n      tag_223\n      tag_104\n      jump\t// in\n    tag_223:\n        /* \"#utility.yul\":5578:5608   */\n      swap1\n      pop\n        /* \"#utility.yul\":5617:5650   */\n      tag_224\n        /* \"#utility.yul\":5645:5649   */\n      dup3\n        /* \"#utility.yul\":5637:5643   */\n      dup3\n        /* \"#utility.yul\":5617:5650   */\n      tag_127\n      jump\t// in\n    tag_224:\n        /* \"#utility.yul\":5527:5656   */\n      swap2\n      swap1\n      pop\n      jump\t// out\n        /* \"#utility.yul\":5662:5969   */\n    tag_129:\n        /* \"#utility.yul\":5723:5727   */\n      0x00\n        /* \"#utility.yul\":5813:5831   */\n      0xffffffffffffffff\n        /* \"#utility.yul\":5805:5811   */\n      dup3\n        /* \"#utility.yul\":5802:5832   */\n      gt\n        /* \"#utility.yul\":5799:5855   */\n      iszero\n      tag_226\n      jumpi\n        /* \"#utility.yul\":5835:5853   */\n      tag_227\n      tag_126\n      jump\t// in\n    tag_227:\n        /* \"#utility.yul\":5799:5855   */\n    tag_226:\n        /* \"#utility.yul\":5873:5902   */\n      tag_228\n        /* \"#utility.yul\":5895:5901   */\n      dup3\n        /* \"#utility.yul\":5873:5902   */\n      tag_125\n      jump\t// in\n    tag_228:\n        /* \"#utility.yul\":5865:5902   */\n      swap1\n      pop\n        /* \"#utility.yul\":5957:5961   */\n      0x20\n        /* \"#utility.yul\":5951:5955   */\n      dup2\n        /* \"#utility.yul\":5947:5962   */\n      add\n        /* \"#utility.yul\":5939:5962   */\n      swap1\n      pop\n        /* \"#utility.yul\":5662:5969   */\n      swap2\n      swap1\n      pop\n      jump\t// out\n        /* \"#utility.yul\":5975:6123   */\n    tag_130:\n        /* \"#utility.yul\":6073:6079   */\n      dup3\n        /* \"#utility.yul\":6068:6071   */\n      dup2\n        /* \"#utility.yul\":6063:6066   */\n      dup4\n        /* \"#utility.yul\":6050:6080   */\n      calldatacopy\n        /* \"#utility.yul\":6114:6115   */\n      0x00\n        /* \"#utility.yul\":6105:6111   */\n      dup4\n        /* \"#utility.yul\":6100:6103   */\n      dup4\n        /* \"#utility.yul\":6096:6112   */\n      add\n        /* \"#utility.yul\":6089:6116   */\n      mstore\n        /* \"#utility.yul\":5975:6123   */\n      pop\n      pop\n      pop\n      jump\t// out\n        /* \"#utility.yul\":6129:6552   */\n    tag_131:\n        /* \"#utility.yul\":6206:6211   */\n      0x00\n        /* \"#utility.yul\":6231:6296   */\n      tag_231\n        /* \"#utility.yul\":6247:6295   */\n      tag_232\n        /* \"#utility.yul\":6288:6294   */\n      dup5\n        /* \"#utility.yul\":6247:6295   */\n      tag_129\n      jump\t// in\n    tag_232:\n        /* \"#utility.yul\":6231:6296   */\n      tag_128\n      jump\t// in\n    tag_231:\n        /* \"#utility.yul\":6222:6296   */\n      swap1\n      pop\n        /* \"#utility.yul\":6319:6325   */\n      dup3\n        /* \"#utility.yul\":6312:6317   */\n      dup2\n        /* \"#utility.yul\":6305:6326   */\n      mstore\n        /* \"#utility.yul\":6357:6361   */\n      0x20\n        /* \"#utility.yul\":6350:6355   */\n      dup2\n        /* \"#utility.yul\":6346:6362   */\n      add\n        /* \"#utility.yul\":6395:6398   */\n      dup5\n        /* \"#utility.yul\":6386:6392   */\n      dup5\n        /* \"#utility.yul\":6381:6384   */\n      dup5\n        /* \"#utility.yul\":6377:6393   */\n      add\n        /* \"#utility.yul\":6374:6399   */\n      gt\n        /* \"#utility.yul\":6371:6483   */\n      iszero\n      tag_233\n      jumpi\n        /* \"#utility.yul\":6402:6481   */\n      tag_234\n      tag_124\n      jump\t// in\n    tag_234:\n        /* \"#utility.yul\":6371:6483   */\n    tag_233:\n        /* \"#utility.yul\":6492:6546   */\n      tag_235\n        /* \"#utility.yul\":6539:6545   */\n      dup5\n        /* \"#utility.yul\":6534:6537   */\n      dup3\n        /* \"#utility.yul\":6529:6532   */\n      dup6\n        /* \"#utility.yul\":6492:6546   */\n      tag_130\n      jump\t// in\n    tag_235:\n        /* \"#utility.yul\":6212:6552   */\n      pop\n        /* \"#utility.yul\":6129:6552   */\n      swap4\n      swap3\n      pop\n      pop\n      pop\n      jump\t// out\n        /* \"#utility.yul\":6571:6909   */\n    tag_132:\n        /* \"#utility.yul\":6626:6631   */\n      0x00\n        /* \"#utility.yul\":6675:6678   */\n      dup3\n        /* \"#utility.yul\":6668:6672   */\n      0x1f\n        /* \"#utility.yul\":6660:6666   */\n      dup4\n        /* \"#utility.yul\":6656:6673   */\n      add\n        /* \"#utility.yul\":6652:6679   */\n      slt\n        /* \"#utility.yul\":6642:6764   */\n      tag_237\n      jumpi\n        /* \"#utility.yul\":6683:6762   */\n      tag_238\n      tag_123\n      jump\t// in\n    tag_238:\n        /* \"#utility.yul\":6642:6764   */\n    tag_237:\n        /* \"#utility.yul\":6800:6806   */\n      dup2\n        /* \"#utility.yul\":6787:6807   */\n      calldataload\n        /* \"#utility.yul\":6825:6903   */\n      tag_239\n        /* \"#utility.yul\":6899:6902   */\n      dup5\n        /* \"#utility.yul\":6891:6897   */\n      dup3\n        /* \"#utility.yul\":6884:6888   */\n      0x20\n        /* \"#utility.yul\":6876:6882   */\n      dup7\n        /* \"#utility.yul\":6872:6889   */\n      add\n        /* \"#utility.yul\":6825:6903   */\n      tag_131\n      jump\t// in\n    tag_239:\n        /* \"#utility.yul\":6816:6903   */\n      swap2\n      pop\n        /* \"#utility.yul\":6632:6909   */\n      pop\n        /* \"#utility.yul\":6571:6909   */\n      swap3\n      swap2\n      pop\n      pop\n      jump\t// out\n        /* \"#utility.yul\":6915:7728   */\n    tag_60:\n        /* \"#utility.yul\":7009:7015   */\n      0x00\n        /* \"#utility.yul\":7017:7023   */\n      dup1\n        /* \"#utility.yul\":7025:7031   */\n      0x00\n        /* \"#utility.yul\":7074:7076   */\n      0x60\n        /* \"#utility.yul\":7062:7071   */\n      dup5\n        /* \"#utility.yul\":7053:7060   */\n      dup7\n        /* \"#utility.yul\":7049:7072   */\n      sub\n        /* \"#utility.yul\":7045:7077   */\n      slt\n        /* \"#utility.yul\":7042:7161   */\n      iszero\n      tag_241\n      jumpi\n        /* \"#utility.yul\":7080:7159   */\n      tag_242\n      tag_105\n      jump\t// in\n    tag_242:\n        /* \"#utility.yul\":7042:7161   */\n    tag_241:\n        /* \"#utility.yul\":7200:7201   */\n      0x00\n        /* \"#utility.yul\":7225:7286   */\n      tag_243\n        /* \"#utility.yul\":7278:7285   */\n      dup7\n        /* \"#utility.yul\":7269:7275   */\n      dup3\n        /* \"#utility.yul\":7258:7267   */\n      dup8\n        /* \"#utility.yul\":7254:7276   */\n      add\n        /* \"#utility.yul\":7225:7286   */\n      tag_122\n      jump\t// in\n    tag_243:\n        /* \"#utility.yul\":7215:7286   */\n      swap4\n      pop\n        /* \"#utility.yul\":7171:7296   */\n      pop\n        /* \"#utility.yul\":7335:7337   */\n      0x20\n        /* \"#utility.yul\":7361:7414   */\n      tag_244\n        /* \"#utility.yul\":7406:7413   */\n      dup7\n        /* \"#utility.yul\":7397:7403   */\n      dup3\n        /* \"#utility.yul\":7386:7395   */\n      dup8\n        /* \"#utility.yul\":7382:7404   */\n      add\n        /* \"#utility.yul\":7361:7414   */\n      tag_117\n      jump\t// in\n    tag_244:\n        /* \"#utility.yul\":7351:7414   */\n      swap3\n      pop\n        /* \"#utility.yul\":7306:7424   */\n      pop\n        /* \"#utility.yul\":7491:7493   */\n      0x40\n        /* \"#utility.yul\":7480:7489   */\n      dup5\n        /* \"#utility.yul\":7476:7494   */\n      add\n        /* \"#utility.yul\":7463:7495   */\n      calldataload\n        /* \"#utility.yul\":7522:7540   */\n      0xffffffffffffffff\n        /* \"#utility.yul\":7514:7520   */\n      dup2\n        /* \"#utility.yul\":7511:7541   */\n      gt\n        /* \"#utility.yul\":7508:7625   */\n      iszero\n      tag_245\n      jumpi\n        /* \"#utility.yul\":7544:7623   */\n      tag_246\n      tag_106\n      jump\t// in\n    tag_246:\n        /* \"#utility.yul\":7508:7625   */\n    tag_245:\n        /* \"#utility.yul\":7649:7711   */\n      tag_247\n        /* \"#utility.yul\":7703:7710   */\n      dup7\n        /* \"#utility.yul\":7694:7700   */\n      dup3\n        /* \"#utility.yul\":7683:7692   */\n      dup8\n        /* \"#utility.yul\":7679:7701   */\n      add\n        /* \"#utility.yul\":7649:7711   */\n      tag_132\n      jump\t// in\n    tag_247:\n        /* \"#utility.yul\":7639:7711   */\n      swap2\n      pop\n        /* \"#utility.yul\":7434:7721   */\n      pop\n        /* \"#utility.yul\":6915:7728   */\n      swap3\n      pop\n      swap3\n      pop\n      swap3\n      jump\t// out\n        /* \"#utility.yul\":7734:7832   */\n    tag_133:\n        /* \"#utility.yul\":7785:7791   */\n      0x00\n        /* \"#utility.yul\":7819:7824   */\n      dup2\n        /* \"#utility.yul\":7813:7825   */\n      mload\n        /* \"#utility.yul\":7803:7825   */\n      swap1\n      pop\n        /* \"#utility.yul\":7734:7832   */\n      swap2\n      swap1\n      pop\n      jump\t// out\n        /* \"#utility.yul\":7838:8006   */\n    tag_134:\n        /* \"#utility.yul\":7921:7932   */\n      0x00\n        /* \"#utility.yul\":7955:7961   */\n      dup3\n        /* \"#utility.yul\":7950:7953   */\n      dup3\n        /* \"#utility.yul\":7943:7962   */\n      mstore\n        /* \"#utility.yul\":7995:7999   */\n      0x20\n        /* \"#utility.yul\":7990:7993   */\n      dup3\n        /* \"#utility.yul\":7986:8000   */\n      add\n        /* \"#utility.yul\":7971:8000   */\n      swap1\n      pop\n        /* \"#utility.yul\":7838:8006   */\n      swap3\n      swap2\n      pop\n      pop\n      jump\t// out\n        /* \"#utility.yul\":8012:8151   */\n    tag_135:\n        /* \"#utility.yul\":8101:8107   */\n      dup3\n        /* \"#utility.yul\":8096:8099   */\n      dup2\n        /* \"#utility.yul\":8091:8094   */\n      dup4\n        /* \"#utility.yul\":8085:8108   */\n      mcopy\n        /* \"#utility.yul\":8142:8143   */\n      0x00\n        /* \"#utility.yul\":8133:8139   */\n      dup4\n        /* \"#utility.yul\":8128:8131   */\n      dup4\n        /* \"#utility.yul\":8124:8140   */\n      add\n        /* \"#utility.yul\":8117:8144   */\n      mstore\n        /* \"#utility.yul\":8012:8151   */\n      pop\n      pop\n      pop\n      jump\t// out\n        /* \"#utility.yul\":8157:8530   */\n    tag_136:\n        /* \"#utility.yul\":8243:8246   */\n      0x00\n        /* \"#utility.yul\":8271:8309   */\n      tag_252\n        /* \"#utility.yul\":8303:8308   */\n      dup3\n        /* \"#utility.yul\":8271:8309   */\n      tag_133\n      jump\t// in\n    tag_252:\n        /* \"#utility.yul\":8325:8395   */\n      tag_253\n        /* \"#utility.yul\":8388:8394   */\n      dup2\n        /* \"#utility.yul\":8383:8386   */\n      dup6\n        /* \"#utility.yul\":8325:8395   */\n      tag_134\n      jump\t// in\n    tag_253:\n        /* \"#utility.yul\":8318:8395   */\n      swap4\n      pop\n        /* \"#utility.yul\":8404:8469   */\n      tag_254\n        /* \"#utility.yul\":8462:8468   */\n      dup2\n        /* \"#utility.yul\":8457:8460   */\n      dup6\n        /* \"#utility.yul\":8450:8454   */\n      0x20\n        /* \"#utility.yul\":8443:8448   */\n      dup7\n        /* \"#utility.yul\":8439:8455   */\n      add\n        /* \"#utility.yul\":8404:8469   */\n      tag_135\n      jump\t// in\n    tag_254:\n        /* \"#utility.yul\":8494:8523   */\n      tag_255\n        /* \"#utility.yul\":8516:8522   */\n      dup2\n        /* \"#utility.yul\":8494:8523   */\n      tag_125\n      jump\t// in\n    tag_255:\n        /* \"#utility.yul\":8489:8492   */\n      dup5\n        /* \"#utility.yul\":8485:8524   */\n      add\n        /* \"#utility.yul\":8478:8524   */\n      swap2\n      pop\n        /* \"#utility.yul\":8247:8530   */\n      pop\n        /* \"#utility.yul\":8157:8530   */\n      swap3\n      swap2\n      pop\n      pop\n      jump\t// out\n        /* \"#utility.yul\":8536:8845   */\n    tag_63:\n        /* \"#utility.yul\":8647:8651   */\n      0x00\n        /* \"#utility.yul\":8685:8687   */\n      0x20\n        /* \"#utility.yul\":8674:8683   */\n      dup3\n        /* \"#utility.yul\":8670:8688   */\n      add\n        /* \"#utility.yul\":8662:8688   */\n      swap1\n      pop\n        /* \"#utility.yul\":8734:8743   */\n      dup2\n        /* \"#utility.yul\":8728:8732   */\n      dup2\n        /* \"#utility.yul\":8724:8744   */\n      sub\n        /* \"#utility.yul\":8720:8721   */\n      0x00\n        /* \"#utility.yul\":8709:8718   */\n      dup4\n        /* \"#utility.yul\":8705:8722   */\n      add\n        /* \"#utility.yul\":8698:8745   */\n      mstore\n        /* \"#utility.yul\":8762:8838   */\n      tag_257\n        /* \"#utility.yul\":8833:8837   */\n      dup2\n        /* \"#utility.yul\":8824:8830   */\n      dup5\n        /* \"#utility.yul\":8762:8838   */\n      tag_136\n      jump\t// in\n    tag_257:\n        /* \"#utility.yul\":8754:8838   */\n      swap1\n      pop\n        /* \"#utility.yul\":8536:8845   */\n      swap3\n      swap2\n      pop\n      pop\n      jump\t// out\n        /* \"#utility.yul\":8851:9020   */\n    tag_137:\n        /* \"#utility.yul\":8935:8946   */\n      0x00\n        /* \"#utility.yul\":8969:8975   */\n      dup3\n        /* \"#utility.yul\":8964:8967   */\n      dup3\n        /* \"#utility.yul\":8957:8976   */\n      mstore\n        /* \"#utility.yul\":9009:9013   */\n      0x20\n        /* \"#utility.yul\":9004:9007   */\n      dup3\n        /* \"#utility.yul\":9000:9014   */\n      add\n        /* \"#utility.yul\":8985:9014   */\n      swap1\n      pop\n        /* \"#utility.yul\":8851:9020   */\n      swap3\n      swap2\n      pop\n      pop\n      jump\t// out\n        /* \"#utility.yul\":9026:9206   */\n    tag_138:\n        /* \"#utility.yul\":9166:9198   */\n      0x596f75277265206e6f7420746865206f776e65722c2061626f7274696e670000\n        /* \"#utility.yul\":9162:9163   */\n      0x00\n        /* \"#utility.yul\":9154:9160   */\n      dup3\n        /* \"#utility.yul\":9150:9164   */\n      add\n        /* \"#utility.yul\":9143:9199   */\n      mstore\n        /* \"#utility.yul\":9026:9206   */\n      pop\n      jump\t// out\n        /* \"#utility.yul\":9212:9578   */\n    tag_139:\n        /* \"#utility.yul\":9354:9357   */\n      0x00\n        /* \"#utility.yul\":9375:9442   */\n      tag_261\n        /* \"#utility.yul\":9439:9441   */\n      0x1e\n        /* \"#utility.yul\":9434:9437   */\n      dup4\n        /* \"#utility.yul\":9375:9442   */\n      tag_137\n      jump\t// in\n    tag_261:\n        /* \"#utility.yul\":9368:9442   */\n      swap2\n      pop\n        /* \"#utility.yul\":9451:9544   */\n      tag_262\n        /* \"#utility.yul\":9540:9543   */\n      dup3\n        /* \"#utility.yul\":9451:9544   */\n      tag_138\n      jump\t// in\n    tag_262:\n        /* \"#utility.yul\":9569:9571   */\n      0x20\n        /* \"#utility.yul\":9564:9567   */\n      dup3\n        /* \"#utility.yul\":9560:9572   */\n      add\n        /* \"#utility.yul\":9553:9572   */\n      swap1\n      pop\n        /* \"#utility.yul\":9212:9578   */\n      swap2\n      swap1\n      pop\n      jump\t// out\n        /* \"#utility.yul\":9584:10003   */\n    tag_67:\n        /* \"#utility.yul\":9750:9754   */\n      0x00\n        /* \"#utility.yul\":9788:9790   */\n      0x20\n        /* \"#utility.yul\":9777:9786   */\n      dup3\n        /* \"#utility.yul\":9773:9791   */\n      add\n        /* \"#utility.yul\":9765:9791   */\n      swap1\n      pop\n        /* \"#utility.yul\":9837:9846   */\n      dup2\n        /* \"#utility.yul\":9831:9835   */\n      dup2\n        /* \"#utility.yul\":9827:9847   */\n      sub\n        /* \"#utility.yul\":9823:9824   */\n      0x00\n        /* \"#utility.yul\":9812:9821   */\n      dup4\n        /* \"#utility.yul\":9808:9825   */\n      add\n        /* \"#utility.yul\":9801:9848   */\n      mstore\n        /* \"#utility.yul\":9865:9996   */\n      tag_264\n        /* \"#utility.yul\":9991:9995   */\n      dup2\n        /* \"#utility.yul\":9865:9996   */\n      tag_139\n      jump\t// in\n    tag_264:\n        /* \"#utility.yul\":9857:9996   */\n      swap1\n      pop\n        /* \"#utility.yul\":9584:10003   */\n      swap2\n      swap1\n      pop\n      jump\t// out\n        /* \"#utility.yul\":10009:10235   */\n    tag_140:\n        /* \"#utility.yul\":10149:10183   */\n      0x596f7520617265206e6f74206120677561726469616e206f6620746869732063\n        /* \"#utility.yul\":10145:10146   */\n      0x00\n        /* \"#utility.yul\":10137:10143   */\n      dup3\n        /* \"#utility.yul\":10133:10147   */\n      add\n        /* \"#utility.yul\":10126:10184   */\n      mstore\n        /* \"#utility.yul\":10218:10227   */\n      0x6f6e747261637400000000000000000000000000000000000000000000000000\n        /* \"#utility.yul\":10213:10215   */\n      0x20\n        /* \"#utility.yul\":10205:10211   */\n      dup3\n        /* \"#utility.yul\":10201:10216   */\n      add\n        /* \"#utility.yul\":10194:10228   */\n      mstore\n        /* \"#utility.yul\":10009:10235   */\n      pop\n      jump\t// out\n        /* \"#utility.yul\":10241:10607   */\n    tag_141:\n        /* \"#utility.yul\":10383:10386   */\n      0x00\n        /* \"#utility.yul\":10404:10471   */\n      tag_267\n        /* \"#utility.yul\":10468:10470   */\n      0x27\n        /* \"#utility.yul\":10463:10466   */\n      dup4\n        /* \"#utility.yul\":10404:10471   */\n      tag_137\n      jump\t// in\n    tag_267:\n        /* \"#utility.yul\":10397:10471   */\n      swap2\n      pop\n        /* \"#utility.yul\":10480:10573   */\n      tag_268\n        /* \"#utility.yul\":10569:10572   */\n      dup3\n        /* \"#utility.yul\":10480:10573   */\n      tag_140\n      jump\t// in\n    tag_268:\n        /* \"#utility.yul\":10598:10600   */\n      0x40\n        /* \"#utility.yul\":10593:10596   */\n      dup3\n        /* \"#utility.yul\":10589:10601   */\n      add\n        /* \"#utility.yul\":10582:10601   */\n      swap1\n      pop\n        /* \"#utility.yul\":10241:10607   */\n      swap2\n      swap1\n      pop\n      jump\t// out\n        /* \"#utility.yul\":10613:11032   */\n    tag_76:\n        /* \"#utility.yul\":10779:10783   */\n      0x00\n        /* \"#utility.yul\":10817:10819   */\n      0x20\n        /* \"#utility.yul\":10806:10815   */\n      dup3\n        /* \"#utility.yul\":10802:10820   */\n      add\n        /* \"#utility.yul\":10794:10820   */\n      swap1\n      pop\n        /* \"#utility.yul\":10866:10875   */\n      dup2\n        /* \"#utility.yul\":10860:10864   */\n      dup2\n        /* \"#utility.yul\":10856:10876   */\n      sub\n        /* \"#utility.yul\":10852:10853   */\n      0x00\n        /* \"#utility.yul\":10841:10850   */\n      dup4\n        /* \"#utility.yul\":10837:10854   */\n      add\n        /* \"#utility.yul\":10830:10877   */\n      mstore\n        /* \"#utility.yul\":10894:11025   */\n      tag_270\n        /* \"#utility.yul\":11020:11024   */\n      dup2\n        /* \"#utility.yul\":10894:11025   */\n      tag_141\n      jump\t// in\n    tag_270:\n        /* \"#utility.yul\":10886:11025   */\n      swap1\n      pop\n        /* \"#utility.yul\":10613:11032   */\n      swap2\n      swap1\n      pop\n      jump\t// out\n        /* \"#utility.yul\":11038:11219   */\n    tag_142:\n        /* \"#utility.yul\":11178:11211   */\n      0x596f752061726520616c726561647920766f7465642c2061626f7274696e6700\n        /* \"#utility.yul\":11174:11175   */\n      0x00\n        /* \"#utility.yul\":11166:11172   */\n      dup3\n        /* \"#utility.yul\":11162:11176   */\n      add\n        /* \"#utility.yul\":11155:11212   */\n      mstore\n        /* \"#utility.yul\":11038:11219   */\n      pop\n      jump\t// out\n        /* \"#utility.yul\":11225:11591   */\n    tag_143:\n        /* \"#utility.yul\":11367:11370   */\n      0x00\n        /* \"#utility.yul\":11388:11455   */\n      tag_273\n        /* \"#utility.yul\":11452:11454   */\n      0x1f\n        /* \"#utility.yul\":11447:11450   */\n      dup4\n        /* \"#utility.yul\":11388:11455   */\n      tag_137\n      jump\t// in\n    tag_273:\n        /* \"#utility.yul\":11381:11455   */\n      swap2\n      pop\n        /* \"#utility.yul\":11464:11557   */\n      tag_274\n        /* \"#utility.yul\":11553:11556   */\n      dup3\n        /* \"#utility.yul\":11464:11557   */\n      tag_142\n      jump\t// in\n    tag_274:\n        /* \"#utility.yul\":11582:11584   */\n      0x20\n        /* \"#utility.yul\":11577:11580   */\n      dup3\n        /* \"#utility.yul\":11573:11585   */\n      add\n        /* \"#utility.yul\":11566:11585   */\n      swap1\n      pop\n        /* \"#utility.yul\":11225:11591   */\n      swap2\n      swap1\n      pop\n      jump\t// out\n        /* \"#utility.yul\":11597:12016   */\n    tag_79:\n        /* \"#utility.yul\":11763:11767   */\n      0x00\n        /* \"#utility.yul\":11801:11803   */\n      0x20\n        /* \"#utility.yul\":11790:11799   */\n      dup3\n        /* \"#utility.yul\":11786:11804   */\n      add\n        /* \"#utility.yul\":11778:11804   */\n      swap1\n      pop\n        /* \"#utility.yul\":11850:11859   */\n      dup2\n        /* \"#utility.yul\":11844:11848   */\n      dup2\n        /* \"#utility.yul\":11840:11860   */\n      sub\n        /* \"#utility.yul\":11836:11837   */\n      0x00\n        /* \"#utility.yul\":11825:11834   */\n      dup4\n        /* \"#utility.yul\":11821:11838   */\n      add\n        /* \"#utility.yul\":11814:11861   */\n      mstore\n        /* \"#utility.yul\":11878:12009   */\n      tag_276\n        /* \"#utility.yul\":12004:12008   */\n      dup2\n        /* \"#utility.yul\":11878:12009   */\n      tag_143\n      jump\t// in\n    tag_276:\n        /* \"#utility.yul\":11870:12009   */\n      swap1\n      pop\n        /* \"#utility.yul\":11597:12016   */\n      swap2\n      swap1\n      pop\n      jump\t// out\n        /* \"#utility.yul\":12022:12202   */\n    tag_144:\n        /* \"#utility.yul\":12070:12147   */\n      0x4e487b7100000000000000000000000000000000000000000000000000000000\n        /* \"#utility.yul\":12067:12068   */\n      0x00\n        /* \"#utility.yul\":12060:12148   */\n      mstore\n        /* \"#utility.yul\":12167:12171   */\n      0x11\n        /* \"#utility.yul\":12164:12165   */\n      0x04\n        /* \"#utility.yul\":12157:12172   */\n      mstore\n        /* \"#utility.yul\":12191:12195   */\n      0x24\n        /* \"#utility.yul\":12188:12189   */\n      0x00\n        /* \"#utility.yul\":12181:12196   */\n      revert\n        /* \"#utility.yul\":12208:12441   */\n    tag_82:\n        /* \"#utility.yul\":12247:12250   */\n      0x00\n        /* \"#utility.yul\":12270:12294   */\n      tag_279\n        /* \"#utility.yul\":12288:12293   */\n      dup3\n        /* \"#utility.yul\":12270:12294   */\n      tag_115\n      jump\t// in\n    tag_279:\n        /* \"#utility.yul\":12261:12294   */\n      swap2\n      pop\n        /* \"#utility.yul\":12316:12382   */\n      0xffffffffffffffffffffffffffffffffffffffffffffffffffffffffffffffff\n        /* \"#utility.yul\":12309:12314   */\n      dup3\n        /* \"#utility.yul\":12306:12383   */\n      sub\n        /* \"#utility.yul\":12303:12406   */\n      tag_280\n      jumpi\n        /* \"#utility.yul\":12386:12404   */\n      tag_281\n      tag_144\n      jump\t// in\n    tag_281:\n        /* \"#utility.yul\":12303:12406   */\n    tag_280:\n        /* \"#utility.yul\":12433:12434   */\n      0x01\n        /* \"#utility.yul\":12426:12431   */\n      dup3\n        /* \"#utility.yul\":12422:12435   */\n      add\n        /* \"#utility.yul\":12415:12435   */\n      swap1\n      pop\n        /* \"#utility.yul\":12208:12441   */\n      swap2\n      swap1\n      pop\n      jump\t// out\n        /* \"#utility.yul\":12447:12691   */\n    tag_145:\n        /* \"#utility.yul\":12587:12621   */\n      0x596f752061726520747279696e6720746f2073656e64206d6f7265207468616e\n        /* \"#utility.yul\":12583:12584   */\n      0x00\n        /* \"#utility.yul\":12575:12581   */\n      dup3\n        /* \"#utility.yul\":12571:12585   */\n      add\n        /* \"#utility.yul\":12564:12622   */\n      mstore\n        /* \"#utility.yul\":12656:12683   */\n      0x20796f7520616c6c6f77656420746f2c2061626f7274696e6700000000000000\n        /* \"#utility.yul\":12651:12653   */\n      0x20\n        /* \"#utility.yul\":12643:12649   */\n      dup3\n        /* \"#utility.yul\":12639:12654   */\n      add\n        /* \"#utility.yul\":12632:12684   */\n      mstore\n        /* \"#utility.yul\":12447:12691   */\n      pop\n      jump\t// out\n        /* \"#utility.yul\":12697:13063   */\n    tag_146:\n        /* \"#utility.yul\":12839:12842   */\n      0x00\n        /* \"#utility.yul\":12860:12927   */\n      tag_284\n        /* \"#utility.yul\":12924:12926   */\n      0x39\n        /* \"#utility.yul\":12919:12922   */\n      dup4\n        /* \"#utility.yul\":12860:12927   */\n      tag_137\n      jump\t// in\n    tag_284:\n        /* \"#utility.yul\":12853:12927   */\n      swap2\n      pop\n        /* \"#utility.yul\":12936:13029   */\n      tag_285\n        /* \"#utility.yul\":13025:13028   */\n      dup3\n        /* \"#utility.yul\":12936:13029   */\n      tag_145\n      jump\t// in\n    tag_285:\n        /* \"#utility.yul\":13054:13056   */\n      0x40\n        /* \"#utility.yul\":13049:13052   */\n      dup3\n        /* \"#utility.yul\":13045:13057   */\n      add\n        /* \"#utility.yul\":13038:13057   */\n      swap1\n      pop\n        /* \"#utility.yul\":12697:13063   */\n      swap2\n      swap1\n      pop\n      jump\t// out\n        /* \"#utility.yul\":13069:13488   */\n    tag_90:\n        /* \"#utility.yul\":13235:13239   */\n      0x00\n        /* \"#utility.yul\":13273:13275   */\n      0x20\n        /* \"#utility.yul\":13262:13271   */\n      dup3\n        /* \"#utility.yul\":13258:13276   */\n      add\n        /* \"#utility.yul\":13250:13276   */\n      swap1\n      pop\n        /* \"#utility.yul\":13322:13331   */\n      dup2\n        /* \"#utility.yul\":13316:13320   */\n      dup2\n        /* \"#utility.yul\":13312:13332   */\n      sub\n        /* \"#utility.yul\":13308:13309   */\n      0x00\n        /* \"#utility.yul\":13297:13306   */\n      dup4\n        /* \"#utility.yul\":13293:13310   */\n      add\n        /* \"#utility.yul\":13286:13333   */\n      mstore\n        /* \"#utility.yul\":13350:13481   */\n      tag_287\n        /* \"#utility.yul\":13476:13480   */\n      dup2\n        /* \"#utility.yul\":13350:13481   */\n      tag_146\n      jump\t// in\n    tag_287:\n        /* \"#utility.yul\":13342:13481   */\n      swap1\n      pop\n        /* \"#utility.yul\":13069:13488   */\n      swap2\n      swap1\n      pop\n      jump\t// out\n        /* \"#utility.yul\":13494:13784   */\n    tag_147:\n        /* \"#utility.yul\":13634:13668   */\n      0x596f7520617265206e6f7420616c6c6f77656420746f2073656e6420616e7974\n        /* \"#utility.yul\":13630:13631   */\n      0x00\n        /* \"#utility.yul\":13622:13628   */\n      dup3\n        /* \"#utility.yul\":13618:13632   */\n      add\n        /* \"#utility.yul\":13611:13669   */\n      mstore\n        /* \"#utility.yul\":13703:13737   */\n      0x68696e672066726f6d207468697320636f6e74726163742c2061626f7274696e\n        /* \"#utility.yul\":13698:13700   */\n      0x20\n        /* \"#utility.yul\":13690:13696   */\n      dup3\n        /* \"#utility.yul\":13686:13701   */\n      add\n        /* \"#utility.yul\":13679:13738   */\n      mstore\n        /* \"#utility.yul\":13772:13776   */\n      0x672e000000000000000000000000000000000000000000000000000000000000\n        /* \"#utility.yul\":13767:13769   */\n      0x40\n        /* \"#utility.yul\":13759:13765   */\n      dup3\n        /* \"#utility.yul\":13755:13770   */\n      add\n        /* \"#utility.yul\":13748:13777   */\n      mstore\n        /* \"#utility.yul\":13494:13784   */\n      pop\n      jump\t// out\n        /* \"#utility.yul\":13790:14156   */\n    tag_148:\n        /* \"#utility.yul\":13932:13935   */\n      0x00\n        /* \"#utility.yul\":13953:14020   */\n      tag_290\n        /* \"#utility.yul\":14017:14019   */\n      0x42\n        /* \"#utility.yul\":14012:14015   */\n      dup4\n        /* \"#utility.yul\":13953:14020   */\n      tag_137\n      jump\t// in\n    tag_290:\n        /* \"#utility.yul\":13946:14020   */\n      swap2\n      pop\n        /* \"#utility.yul\":14029:14122   */\n      tag_291\n        /* \"#utility.yul\":14118:14121   */\n      dup3\n        /* \"#utility.yul\":14029:14122   */\n      tag_147\n      jump\t// in\n    tag_291:\n        /* \"#utility.yul\":14147:14149   */\n      0x60\n        /* \"#utility.yul\":14142:14145   */\n      dup3\n        /* \"#utility.yul\":14138:14150   */\n      add\n        /* \"#utility.yul\":14131:14150   */\n      swap1\n      pop\n        /* \"#utility.yul\":13790:14156   */\n      swap2\n      swap1\n      pop\n      jump\t// out\n        /* \"#utility.yul\":14162:14581   */\n    tag_93:\n        /* \"#utility.yul\":14328:14332   */\n      0x00\n        /* \"#utility.yul\":14366:14368   */\n      0x20\n        /* \"#utility.yul\":14355:14364   */\n      dup3\n        /* \"#utility.yul\":14351:14369   */\n      add\n        /* \"#utility.yul\":14343:14369   */\n      swap1\n      pop\n        /* \"#utility.yul\":14415:14424   */\n      dup2\n        /* \"#utility.yul\":14409:14413   */\n      dup2\n        /* \"#utility.yul\":14405:14425   */\n      sub\n        /* \"#utility.yul\":14401:14402   */\n      0x00\n        /* \"#utility.yul\":14390:14399   */\n      dup4\n        /* \"#utility.yul\":14386:14403   */\n      add\n        /* \"#utility.yul\":14379:14426   */\n      mstore\n        /* \"#utility.yul\":14443:14574   */\n      tag_293\n        /* \"#utility.yul\":14569:14573   */\n      dup2\n        /* \"#utility.yul\":14443:14574   */\n      tag_148\n      jump\t// in\n    tag_293:\n        /* \"#utility.yul\":14435:14574   */\n      swap1\n      pop\n        /* \"#utility.yul\":14162:14581   */\n      swap2\n      swap1\n      pop\n      jump\t// out\n        /* \"#utility.yul\":14587:14781   */\n    tag_95:\n        /* \"#utility.yul\":14627:14631   */\n      0x00\n        /* \"#utility.yul\":14647:14667   */\n      tag_295\n        /* \"#utility.yul\":14665:14666   */\n      dup3\n        /* \"#utility.yul\":14647:14667   */\n      tag_115\n      jump\t// in\n    tag_295:\n        /* \"#utility.yul\":14642:14667   */\n      swap2\n      pop\n        /* \"#utility.yul\":14681:14701   */\n      tag_296\n        /* \"#utility.yul\":14699:14700   */\n      dup4\n        /* \"#utility.yul\":14681:14701   */\n      tag_115\n      jump\t// in\n    tag_296:\n        /* \"#utility.yul\":14676:14701   */\n      swap3\n      pop\n        /* \"#utility.yul\":14725:14726   */\n      dup3\n        /* \"#utility.yul\":14722:14723   */\n      dup3\n        /* \"#utility.yul\":14718:14727   */\n      sub\n        /* \"#utility.yul\":14710:14727   */\n      swap1\n      pop\n        /* \"#utility.yul\":14749:14750   */\n      dup2\n        /* \"#utility.yul\":14743:14747   */\n      dup2\n        /* \"#utility.yul\":14740:14751   */\n      gt\n        /* \"#utility.yul\":14737:14774   */\n      iszero\n      tag_297\n      jumpi\n        /* \"#utility.yul\":14754:14772   */\n      tag_298\n      tag_144\n      jump\t// in\n    tag_298:\n        /* \"#utility.yul\":14737:14774   */\n    tag_297:\n        /* \"#utility.yul\":14587:14781   */\n      swap3\n      swap2\n      pop\n      pop\n      jump\t// out\n        /* \"#utility.yul\":14787:14934   */\n    tag_149:\n        /* \"#utility.yul\":14888:14899   */\n      0x00\n        /* \"#utility.yul\":14925:14928   */\n      dup2\n        /* \"#utility.yul\":14910:14928   */\n      swap1\n      pop\n        /* \"#utility.yul\":14787:14934   */\n      swap3\n      swap2\n      pop\n      pop\n      jump\t// out\n        /* \"#utility.yul\":14940:15326   */\n    tag_150:\n        /* \"#utility.yul\":15044:15047   */\n      0x00\n        /* \"#utility.yul\":15072:15110   */\n      tag_301\n        /* \"#utility.yul\":15104:15109   */\n      dup3\n        /* \"#utility.yul\":15072:15110   */\n      tag_133\n      jump\t// in\n    tag_301:\n        /* \"#utility.yul\":15126:15214   */\n      tag_302\n        /* \"#utility.yul\":15207:15213   */\n      dup2\n        /* \"#utility.yul\":15202:15205   */\n      dup6\n        /* \"#utility.yul\":15126:15214   */\n      tag_149\n      jump\t// in\n    tag_302:\n        /* \"#utility.yul\":15119:15214   */\n      swap4\n      pop\n        /* \"#utility.yul\":15223:15288   */\n      tag_303\n        /* \"#utility.yul\":15281:15287   */\n      dup2\n        /* \"#utility.yul\":15276:15279   */\n      dup6\n        /* \"#utility.yul\":15269:15273   */\n      0x20\n        /* \"#utility.yul\":15262:15267   */\n      dup7\n        /* \"#utility.yul\":15258:15274   */\n      add\n        /* \"#utility.yul\":15223:15288   */\n      tag_135\n      jump\t// in\n    tag_303:\n        /* \"#utility.yul\":15313:15319   */\n      dup1\n        /* \"#utility.yul\":15308:15311   */\n      dup5\n        /* \"#utility.yul\":15304:15320   */\n      add\n        /* \"#utility.yul\":15297:15320   */\n      swap2\n      pop\n        /* \"#utility.yul\":15048:15326   */\n      pop\n        /* \"#utility.yul\":14940:15326   */\n      swap3\n      swap2\n      pop\n      pop\n      jump\t// out\n        /* \"#utility.yul\":15332:15603   */\n    tag_97:\n        /* \"#utility.yul\":15462:15465   */\n      0x00\n        /* \"#utility.yul\":15484:15577   */\n      tag_305\n        /* \"#utility.yul\":15573:15576   */\n      dup3\n        /* \"#utility.yul\":15564:15570   */\n      dup5\n        /* \"#utility.yul\":15484:15577   */\n      tag_150\n      jump\t// in\n    tag_305:\n        /* \"#utility.yul\":15477:15577   */\n      swap2\n      pop\n        /* \"#utility.yul\":15594:15597   */\n      dup2\n        /* \"#utility.yul\":15587:15597   */\n      swap1\n      pop\n        /* \"#utility.yul\":15332:15603   */\n      swap3\n      swap2\n      pop\n      pop\n      jump\t// out\n        /* \"#utility.yul\":15609:15829   */\n    tag_151:\n        /* \"#utility.yul\":15749:15783   */\n      0x41626f7274696e672c2063616c6c20776173206e6f7420737563636573736675\n        /* \"#utility.yul\":15745:15746   */\n      0x00\n        /* \"#utility.yul\":15737:15743   */\n      dup3\n        /* \"#utility.yul\":15733:15747   */\n      add\n        /* \"#utility.yul\":15726:15784   */\n      mstore\n        /* \"#utility.yul\":15818:15821   */\n      0x6c00000000000000000000000000000000000000000000000000000000000000\n        /* \"#utility.yul\":15813:15815   */\n      0x20\n        /* \"#utility.yul\":15805:15811   */\n      dup3\n        /* \"#utility.yul\":15801:15816   */\n      add\n        /* \"#utility.yul\":15794:15822   */\n      mstore\n        /* \"#utility.yul\":15609:15829   */\n      pop\n      jump\t// out\n        /* \"#utility.yul\":15835:16201   */\n    tag_152:\n        /* \"#utility.yul\":15977:15980   */\n      0x00\n        /* \"#utility.yul\":15998:16065   */\n      tag_308\n        /* \"#utility.yul\":16062:16064   */\n      0x21\n        /* \"#utility.yul\":16057:16060   */\n      dup4\n        /* \"#utility.yul\":15998:16065   */\n      tag_137\n      jump\t// in\n    tag_308:\n        /* \"#utility.yul\":15991:16065   */\n      swap2\n      pop\n        /* \"#utility.yul\":16074:16167   */\n      tag_309\n        /* \"#utility.yul\":16163:16166   */\n      dup3\n        /* \"#utility.yul\":16074:16167   */\n      tag_151\n      jump\t// in\n    tag_309:\n        /* \"#utility.yul\":16192:16194   */\n      0x40\n        /* \"#utility.yul\":16187:16190   */\n      dup3\n        /* \"#utility.yul\":16183:16195   */\n      add\n        /* \"#utility.yul\":16176:16195   */\n      swap1\n      pop\n        /* \"#utility.yul\":15835:16201   */\n      swap2\n      swap1\n      pop\n      jump\t// out\n        /* \"#utility.yul\":16207:16626   */\n    tag_103:\n        /* \"#utility.yul\":16373:16377   */\n      0x00\n        /* \"#utility.yul\":16411:16413   */\n      0x20\n        /* \"#utility.yul\":16400:16409   */\n      dup3\n        /* \"#utility.yul\":16396:16414   */\n      add\n        /* \"#utility.yul\":16388:16414   */\n      swap1\n      pop\n        /* \"#utility.yul\":16460:16469   */\n      dup2\n        /* \"#utility.yul\":16454:16458   */\n      dup2\n        /* \"#utility.yul\":16450:16470   */\n      sub\n        /* \"#utility.yul\":16446:16447   */\n      0x00\n        /* \"#utility.yul\":16435:16444   */\n      dup4\n        /* \"#utility.yul\":16431:16448   */\n      add\n        /* \"#utility.yul\":16424:16471   */\n      mstore\n        /* \"#utility.yul\":16488:16619   */\n      tag_311\n        /* \"#utility.yul\":16614:16618   */\n      dup2\n        /* \"#utility.yul\":16488:16619   */\n      tag_152\n      jump\t// in\n    tag_311:\n        /* \"#utility.yul\":16480:16619   */\n      swap1\n      pop\n        /* \"#utility.yul\":16207:16626   */\n      swap2\n      swap1\n      pop\n      jump\t// out\n\n    auxdata: 0xa2646970667358221220c2e17e6538ebb05d6281bede0aec1165943433fefdf2ee2a4c1239d9c531d5a264736f6c634300081a0033\n}\n",
				"bytecode": {
					"linkReferences": {},
					"object": "6080604052348015600e575f80fd5b50335f806101000a81548173ffffffffffffffffffffffffffffffffffffffff021916908373ffffffffffffffffffffffffffffffffffffffff1602179055506113cb8061005b5f395ff3fe608060405260043610610089575f3560e01c80633e5beab9116100585780633e5beab91461015c57806358e404b1146101985780638da5cb5b146101c2578063b1f8100d146101ec578063be45fd621461021457610090565b80630633b14a146100945780630bc605ad146100d05780632b8a1c5a1461010c578063310ec4a71461013457610090565b3661009057005b5f80fd5b34801561009f575f80fd5b506100ba60048036038101906100b59190610b4b565b610250565b6040516100c79190610b90565b60405180910390f35b3480156100db575f80fd5b506100f660048036038101906100f19190610b4b565b61026d565b6040516101039190610b90565b60405180910390f35b348015610117575f80fd5b50610132600480360381019061012d9190610bd3565b61028a565b005b34801561013f575f80fd5b5061015a60048036038101906101559190610c44565b61036f565b005b348015610167575f80fd5b50610182600480360381019061017d9190610b4b565b6104f9565b60405161018f9190610c91565b60405180910390f35b3480156101a3575f80fd5b506101ac61050e565b6040516101b99190610c91565b60405180910390f35b3480156101cd575f80fd5b506101d6610513565b6040516101e39190610cca565b60405180910390f35b3480156101f7575f80fd5b50610212600480360381019061020d9190610d0d565b610536565b005b34801561021f575f80fd5b5061023a60048036038101906102359190610e74565b6107ea565b6040516102479190610f40565b60405180910390f35b6003602052805f5260405f205f915054906101000a900460ff1681565b6002602052805f5260405f205f915054906101000a900460ff1681565b5f8054906101000a900473ffffffffffffffffffffffffffffffffffffffff1673ffffffffffffffffffffffffffffffffffffffff163373ffffffffffffffffffffffffffffffffffffffff1614610317576040517f08c379a000000000000000000000000000000000000000000000000000000000815260040161030e90610fba565b60405180910390fd5b8060035f8473ffffffffffffffffffffffffffffffffffffffff1673ffffffffffffffffffffffffffffffffffffffff1681526020019081526020015f205f6101000a81548160ff0219169083151502179055505050565b5f8054906101000a900473ffffffffffffffffffffffffffffffffffffffff1673ffffffffffffffffffffffffffffffffffffffff163373ffffffffffffffffffffffffffffffffffffffff16146103fc576040517f08c379a00000000000000000000000000000000000000000000000000000000081526004016103f390610fba565b60405180910390fd5b8060015f8473ffffffffffffffffffffffffffffffffffffffff1673ffffffffffffffffffffffffffffffffffffffff1681526020019081526020015f20819055505f8111156104a057600160025f8473ffffffffffffffffffffffffffffffffffffffff1673ffffffffffffffffffffffffffffffffffffffff1681526020019081526020015f205f6101000a81548160ff0219169083151502179055506104f5565b5f60025f8473ffffffffffffffffffffffffffffffffffffffff1673ffffffffffffffffffffffffffffffffffffffff1681526020019081526020015f205f6101000a81548160ff0219169083151502179055505b5050565b6001602052805f5260405f205f915090505481565b600381565b5f8054906101000a900473ffffffffffffffffffffffffffffffffffffffff1681565b60035f3373ffffffffffffffffffffffffffffffffffffffff1673ffffffffffffffffffffffffffffffffffffffff1681526020019081526020015f205f9054906101000a900460ff166105bf576040517f08c379a00000000000000000000000000000000000000000000000000000000081526004016105b690611048565b60405180910390fd5b5f151560055f8373ffffffffffffffffffffffffffffffffffffffff1673ffffffffffffffffffffffffffffffffffffffff1681526020019081526020015f205f3373ffffffffffffffffffffffffffffffffffffffff1673ffffffffffffffffffffffffffffffffffffffff1681526020019081526020015f205f9054906101000a900460ff16151514610689576040517f08c379a0000000000000000000000000000000000000000000000000000000008152600401610680906110b0565b60405180910390fd5b60045f9054906101000a900473ffffffffffffffffffffffffffffffffffffffff1673ffffffffffffffffffffffffffffffffffffffff168173ffffffffffffffffffffffffffffffffffffffff1614610725578060045f6101000a81548173ffffffffffffffffffffffffffffffffffffffff021916908373ffffffffffffffffffffffffffffffffffffffff1602179055505f6006819055505b60065f815480929190610737906110fb565b91905055506003600654106107e75760045f9054906101000a900473ffffffffffffffffffffffffffffffffffffffff165f806101000a81548173ffffffffffffffffffffffffffffffffffffffff021916908373ffffffffffffffffffffffffffffffffffffffff1602179055505f60045f6101000a81548173ffffffffffffffffffffffffffffffffffffffff021916908373ffffffffffffffffffffffffffffffffffffffff1602179055505b50565b60605f8054906101000a900473ffffffffffffffffffffffffffffffffffffffff1673ffffffffffffffffffffffffffffffffffffffff163373ffffffffffffffffffffffffffffffffffffffff1614610879576040517f08c379a000000000000000000000000000000000000000000000000000000000815260040161087090610fba565b60405180910390fd5b5f8054906101000a900473ffffffffffffffffffffffffffffffffffffffff1673ffffffffffffffffffffffffffffffffffffffff163373ffffffffffffffffffffffffffffffffffffffff1614610a28578260015f3373ffffffffffffffffffffffffffffffffffffffff1673ffffffffffffffffffffffffffffffffffffffff1681526020019081526020015f2054101561094b576040517f08c379a0000000000000000000000000000000000000000000000000000000008152600401610942906111b2565b60405180910390fd5b60025f3373ffffffffffffffffffffffffffffffffffffffff1673ffffffffffffffffffffffffffffffffffffffff1681526020019081526020015f205f9054906101000a900460ff166109d4576040517f08c379a00000000000000000000000000000000000000000000000000000000081526004016109cb90611266565b60405180910390fd5b8260015f3373ffffffffffffffffffffffffffffffffffffffff1673ffffffffffffffffffffffffffffffffffffffff1681526020019081526020015f205f828254610a209190611284565b925050819055505b5f808573ffffffffffffffffffffffffffffffffffffffff168585604051610a5091906112f1565b5f6040518083038185875af1925050503d805f8114610a8a576040519150601f19603f3d011682016040523d82523d5f602084013e610a8f565b606091505b509150915081610ad4576040517f08c379a0000000000000000000000000000000000000000000000000000000008152600401610acb90611377565b60405180910390fd5b80925050509392505050565b5f604051905090565b5f80fd5b5f80fd5b5f73ffffffffffffffffffffffffffffffffffffffff82169050919050565b5f610b1a82610af1565b9050919050565b610b2a81610b10565b8114610b34575f80fd5b50565b5f81359050610b4581610b21565b92915050565b5f60208284031215610b6057610b5f610ae9565b5b5f610b6d84828501610b37565b91505092915050565b5f8115159050919050565b610b8a81610b76565b82525050565b5f602082019050610ba35f830184610b81565b92915050565b610bb281610b76565b8114610bbc575f80fd5b50565b5f81359050610bcd81610ba9565b92915050565b5f8060408385031215610be957610be8610ae9565b5b5f610bf685828601610b37565b9250506020610c0785828601610bbf565b9150509250929050565b5f819050919050565b610c2381610c11565b8114610c2d575f80fd5b50565b5f81359050610c3e81610c1a565b92915050565b5f8060408385031215610c5a57610c59610ae9565b5b5f610c6785828601610b37565b9250506020610c7885828601610c30565b9150509250929050565b610c8b81610c11565b82525050565b5f602082019050610ca45f830184610c82565b92915050565b5f610cb482610af1565b9050919050565b610cc481610caa565b82525050565b5f602082019050610cdd5f830184610cbb565b92915050565b610cec81610caa565b8114610cf6575f80fd5b50565b5f81359050610d0781610ce3565b92915050565b5f60208284031215610d2257610d21610ae9565b5b5f610d2f84828501610cf9565b91505092915050565b5f80fd5b5f80fd5b5f601f19601f8301169050919050565b7f4e487b71000000000000000000000000000000000000000000000000000000005f52604160045260245ffd5b610d8682610d40565b810181811067ffffffffffffffff82111715610da557610da4610d50565b5b80604052505050565b5f610db7610ae0565b9050610dc38282610d7d565b919050565b5f67ffffffffffffffff821115610de257610de1610d50565b5b610deb82610d40565b9050602081019050919050565b828183375f83830152505050565b5f610e18610e1384610dc8565b610dae565b905082815260208101848484011115610e3457610e33610d3c565b5b610e3f848285610df8565b509392505050565b5f82601f830112610e5b57610e5a610d38565b5b8135610e6b848260208601610e06565b91505092915050565b5f805f60608486031215610e8b57610e8a610ae9565b5b5f610e9886828701610cf9565b9350506020610ea986828701610c30565b925050604084013567ffffffffffffffff811115610eca57610ec9610aed565b5b610ed686828701610e47565b9150509250925092565b5f81519050919050565b5f82825260208201905092915050565b8281835e5f83830152505050565b5f610f1282610ee0565b610f1c8185610eea565b9350610f2c818560208601610efa565b610f3581610d40565b840191505092915050565b5f6020820190508181035f830152610f588184610f08565b905092915050565b5f82825260208201905092915050565b7f596f75277265206e6f7420746865206f776e65722c2061626f7274696e6700005f82015250565b5f610fa4601e83610f60565b9150610faf82610f70565b602082019050919050565b5f6020820190508181035f830152610fd181610f98565b9050919050565b7f596f7520617265206e6f74206120677561726469616e206f66207468697320635f8201527f6f6e747261637400000000000000000000000000000000000000000000000000602082015250565b5f611032602783610f60565b915061103d82610fd8565b604082019050919050565b5f6020820190508181035f83015261105f81611026565b9050919050565b7f596f752061726520616c726561647920766f7465642c2061626f7274696e67005f82015250565b5f61109a601f83610f60565b91506110a582611066565b602082019050919050565b5f6020820190508181035f8301526110c78161108e565b9050919050565b7f4e487b71000000000000000000000000000000000000000000000000000000005f52601160045260245ffd5b5f61110582610c11565b91507fffffffffffffffffffffffffffffffffffffffffffffffffffffffffffffffff8203611137576111366110ce565b5b600182019050919050565b7f596f752061726520747279696e6720746f2073656e64206d6f7265207468616e5f8201527f20796f7520616c6c6f77656420746f2c2061626f7274696e6700000000000000602082015250565b5f61119c603983610f60565b91506111a782611142565b604082019050919050565b5f6020820190508181035f8301526111c981611190565b9050919050565b7f596f7520617265206e6f7420616c6c6f77656420746f2073656e6420616e79745f8201527f68696e672066726f6d207468697320636f6e74726163742c2061626f7274696e60208201527f672e000000000000000000000000000000000000000000000000000000000000604082015250565b5f611250604283610f60565b915061125b826111d0565b606082019050919050565b5f6020820190508181035f83015261127d81611244565b9050919050565b5f61128e82610c11565b915061129983610c11565b92508282039050818111156112b1576112b06110ce565b5b92915050565b5f81905092915050565b5f6112cb82610ee0565b6112d581856112b7565b93506112e5818560208601610efa565b80840191505092915050565b5f6112fc82846112c1565b915081905092915050565b7f41626f7274696e672c2063616c6c20776173206e6f74207375636365737366755f8201527f6c00000000000000000000000000000000000000000000000000000000000000602082015250565b5f611361602183610f60565b915061136c82611307565b604082019050919050565b5f6020820190508181035f83015261138e81611355565b905091905056fea2646970667358221220c2e17e6538ebb05d6281bede0aec1165943433fefdf2ee2a4c1239d9c531d5a264736f6c634300081a0033",
					"opcodes": "PUSH1 0x80 PUSH1 0x40 MSTORE CALLVALUE DUP1 ISZERO PUSH1 0xE JUMPI PUSH0 DUP1 REVERT JUMPDEST POP CALLER PUSH0 DUP1 PUSH2 0x100 EXP DUP2 SLOAD DUP2 PUSH20 0xFFFFFFFFFFFFFFFFFFFFFFFFFFFFFFFFFFFFFFFF MUL NOT AND SWAP1 DUP4 PUSH20 0xFFFFFFFFFFFFFFFFFFFFFFFFFFFFFFFFFFFFFFFF AND MUL OR SWAP1 SSTORE POP PUSH2 0x13CB DUP1 PUSH2 0x5B PUSH0 CODECOPY PUSH0 RETURN INVALID PUSH1 0x80 PUSH1 0x40 MSTORE PUSH1 0x4 CALLDATASIZE LT PUSH2 0x89 JUMPI PUSH0 CALLDATALOAD PUSH1 0xE0 SHR DUP1 PUSH4 0x3E5BEAB9 GT PUSH2 0x58 JUMPI DUP1 PUSH4 0x3E5BEAB9 EQ PUSH2 0x15C JUMPI DUP1 PUSH4 0x58E404B1 EQ PUSH2 0x198 JUMPI DUP1 PUSH4 0x8DA5CB5B EQ PUSH2 0x1C2 JUMPI DUP1 PUSH4 0xB1F8100D EQ PUSH2 0x1EC JUMPI DUP1 PUSH4 0xBE45FD62 EQ PUSH2 0x214 JUMPI PUSH2 0x90 JUMP JUMPDEST DUP1 PUSH4 0x633B14A EQ PUSH2 0x94 JUMPI DUP1 PUSH4 0xBC605AD EQ PUSH2 0xD0 JUMPI DUP1 PUSH4 0x2B8A1C5A EQ PUSH2 0x10C JUMPI DUP1 PUSH4 0x310EC4A7 EQ PUSH2 0x134 JUMPI PUSH2 0x90 JUMP JUMPDEST CALLDATASIZE PUSH2 0x90 JUMPI STOP JUMPDEST PUSH0 DUP1 REVERT JUMPDEST CALLVALUE DUP1 ISZERO PUSH2 0x9F JUMPI PUSH0 DUP1 REVERT JUMPDEST POP PUSH2 0xBA PUSH1 0x4 DUP1 CALLDATASIZE SUB DUP2 ADD SWAP1 PUSH2 0xB5 SWAP2 SWAP1 PUSH2 0xB4B JUMP JUMPDEST PUSH2 0x250 JUMP JUMPDEST PUSH1 0x40 MLOAD PUSH2 0xC7 SWAP2 SWAP1 PUSH2 0xB90 JUMP JUMPDEST PUSH1 0x40 MLOAD DUP1 SWAP2 SUB SWAP1 RETURN JUMPDEST CALLVALUE DUP1 ISZERO PUSH2 0xDB JUMPI PUSH0 DUP1 REVERT JUMPDEST POP PUSH2 0xF6 PUSH1 0x4 DUP1 CALLDATASIZE SUB DUP2 ADD SWAP1 PUSH2 0xF1 SWAP2 SWAP1 PUSH2 0xB4B JUMP JUMPDEST PUSH2 0x26D JUMP JUMPDEST PUSH1 0x40 MLOAD PUSH2 0x103 SWAP2 SWAP1 PUSH2 0xB90 JUMP JUMPDEST PUSH1 0x40 MLOAD DUP1 SWAP2 SUB SWAP1 RETURN JUMPDEST CALLVALUE DUP1 ISZERO PUSH2 0x117 JUMPI PUSH0 DUP1 REVERT JUMPDEST POP PUSH2 0x132 PUSH1 0x4 DUP1 CALLDATASIZE SUB DUP2 ADD SWAP1 PUSH2 0x12D SWAP2 SWAP1 PUSH2 0xBD3 JUMP JUMPDEST PUSH2 0x28A JUMP JUMPDEST STOP JUMPDEST CALLVALUE DUP1 ISZERO PUSH2 0x13F JUMPI PUSH0 DUP1 REVERT JUMPDEST POP PUSH2 0x15A PUSH1 0x4 DUP1 CALLDATASIZE SUB DUP2 ADD SWAP1 PUSH2 0x155 SWAP2 SWAP1 PUSH2 0xC44 JUMP JUMPDEST PUSH2 0x36F JUMP JUMPDEST STOP JUMPDEST CALLVALUE DUP1 ISZERO PUSH2 0x167 JUMPI PUSH0 DUP1 REVERT JUMPDEST POP PUSH2 0x182 PUSH1 0x4 DUP1 CALLDATASIZE SUB DUP2 ADD SWAP1 PUSH2 0x17D SWAP2 SWAP1 PUSH2 0xB4B JUMP JUMPDEST PUSH2 0x4F9 JUMP JUMPDEST PUSH1 0x40 MLOAD PUSH2 0x18F SWAP2 SWAP1 PUSH2 0xC91 JUMP JUMPDEST PUSH1 0x40 MLOAD DUP1 SWAP2 SUB SWAP1 RETURN JUMPDEST CALLVALUE DUP1 ISZERO PUSH2 0x1A3 JUMPI PUSH0 DUP1 REVERT JUMPDEST POP PUSH2 0x1AC PUSH2 0x50E JUMP JUMPDEST PUSH1 0x40 MLOAD PUSH2 0x1B9 SWAP2 SWAP1 PUSH2 0xC91 JUMP JUMPDEST PUSH1 0x40 MLOAD DUP1 SWAP2 SUB SWAP1 RETURN JUMPDEST CALLVALUE DUP1 ISZERO PUSH2 0x1CD JUMPI PUSH0 DUP1 REVERT JUMPDEST POP PUSH2 0x1D6 PUSH2 0x513 JUMP JUMPDEST PUSH1 0x40 MLOAD PUSH2 0x1E3 SWAP2 SWAP1 PUSH2 0xCCA JUMP JUMPDEST PUSH1 0x40 MLOAD DUP1 SWAP2 SUB SWAP1 RETURN JUMPDEST CALLVALUE DUP1 ISZERO PUSH2 0x1F7 JUMPI PUSH0 DUP1 REVERT JUMPDEST POP PUSH2 0x212 PUSH1 0x4 DUP1 CALLDATASIZE SUB DUP2 ADD SWAP1 PUSH2 0x20D SWAP2 SWAP1 PUSH2 0xD0D JUMP JUMPDEST PUSH2 0x536 JUMP JUMPDEST STOP JUMPDEST CALLVALUE DUP1 ISZERO PUSH2 0x21F JUMPI PUSH0 DUP1 REVERT JUMPDEST POP PUSH2 0x23A PUSH1 0x4 DUP1 CALLDATASIZE SUB DUP2 ADD SWAP1 PUSH2 0x235 SWAP2 SWAP1 PUSH2 0xE74 JUMP JUMPDEST PUSH2 0x7EA JUMP JUMPDEST PUSH1 0x40 MLOAD PUSH2 0x247 SWAP2 SWAP1 PUSH2 0xF40 JUMP JUMPDEST PUSH1 0x40 MLOAD DUP1 SWAP2 SUB SWAP1 RETURN JUMPDEST PUSH1 0x3 PUSH1 0x20 MSTORE DUP1 PUSH0 MSTORE PUSH1 0x40 PUSH0 KECCAK256 PUSH0 SWAP2 POP SLOAD SWAP1 PUSH2 0x100 EXP SWAP1 DIV PUSH1 0xFF AND DUP2 JUMP JUMPDEST PUSH1 0x2 PUSH1 0x20 MSTORE DUP1 PUSH0 MSTORE PUSH1 0x40 PUSH0 KECCAK256 PUSH0 SWAP2 POP SLOAD SWAP1 PUSH2 0x100 EXP SWAP1 DIV PUSH1 0xFF AND DUP2 JUMP JUMPDEST PUSH0 DUP1 SLOAD SWAP1 PUSH2 0x100 EXP SWAP1 DIV PUSH20 0xFFFFFFFFFFFFFFFFFFFFFFFFFFFFFFFFFFFFFFFF AND PUSH20 0xFFFFFFFFFFFFFFFFFFFFFFFFFFFFFFFFFFFFFFFF AND CALLER PUSH20 0xFFFFFFFFFFFFFFFFFFFFFFFFFFFFFFFFFFFFFFFF AND EQ PUSH2 0x317 JUMPI PUSH1 0x40 MLOAD PUSH32 0x8C379A000000000000000000000000000000000000000000000000000000000 DUP2 MSTORE PUSH1 0x4 ADD PUSH2 0x30E SWAP1 PUSH2 0xFBA JUMP JUMPDEST PUSH1 0x40 MLOAD DUP1 SWAP2 SUB SWAP1 REVERT JUMPDEST DUP1 PUSH1 0x3 PUSH0 DUP5 PUSH20 0xFFFFFFFFFFFFFFFFFFFFFFFFFFFFFFFFFFFFFFFF AND PUSH20 0xFFFFFFFFFFFFFFFFFFFFFFFFFFFFFFFFFFFFFFFF AND DUP2 MSTORE PUSH1 0x20 ADD SWAP1 DUP2 MSTORE PUSH1 0x20 ADD PUSH0 KECCAK256 PUSH0 PUSH2 0x100 EXP DUP2 SLOAD DUP2 PUSH1 0xFF MUL NOT AND SWAP1 DUP4 ISZERO ISZERO MUL OR SWAP1 SSTORE POP POP POP JUMP JUMPDEST PUSH0 DUP1 SLOAD SWAP1 PUSH2 0x100 EXP SWAP1 DIV PUSH20 0xFFFFFFFFFFFFFFFFFFFFFFFFFFFFFFFFFFFFFFFF AND PUSH20 0xFFFFFFFFFFFFFFFFFFFFFFFFFFFFFFFFFFFFFFFF AND CALLER PUSH20 0xFFFFFFFFFFFFFFFFFFFFFFFFFFFFFFFFFFFFFFFF AND EQ PUSH2 0x3FC JUMPI PUSH1 0x40 MLOAD PUSH32 0x8C379A000000000000000000000000000000000000000000000000000000000 DUP2 MSTORE PUSH1 0x4 ADD PUSH2 0x3F3 SWAP1 PUSH2 0xFBA JUMP JUMPDEST PUSH1 0x40 MLOAD DUP1 SWAP2 SUB SWAP1 REVERT JUMPDEST DUP1 PUSH1 0x1 PUSH0 DUP5 PUSH20 0xFFFFFFFFFFFFFFFFFFFFFFFFFFFFFFFFFFFFFFFF AND PUSH20 0xFFFFFFFFFFFFFFFFFFFFFFFFFFFFFFFFFFFFFFFF AND DUP2 MSTORE PUSH1 0x20 ADD SWAP1 DUP2 MSTORE PUSH1 0x20 ADD PUSH0 KECCAK256 DUP2 SWAP1 SSTORE POP PUSH0 DUP2 GT ISZERO PUSH2 0x4A0 JUMPI PUSH1 0x1 PUSH1 0x2 PUSH0 DUP5 PUSH20 0xFFFFFFFFFFFFFFFFFFFFFFFFFFFFFFFFFFFFFFFF AND PUSH20 0xFFFFFFFFFFFFFFFFFFFFFFFFFFFFFFFFFFFFFFFF AND DUP2 MSTORE PUSH1 0x20 ADD SWAP1 DUP2 MSTORE PUSH1 0x20 ADD PUSH0 KECCAK256 PUSH0 PUSH2 0x100 EXP DUP2 SLOAD DUP2 PUSH1 0xFF MUL NOT AND SWAP1 DUP4 ISZERO ISZERO MUL OR SWAP1 SSTORE POP PUSH2 0x4F5 JUMP JUMPDEST PUSH0 PUSH1 0x2 PUSH0 DUP5 PUSH20 0xFFFFFFFFFFFFFFFFFFFFFFFFFFFFFFFFFFFFFFFF AND PUSH20 0xFFFFFFFFFFFFFFFFFFFFFFFFFFFFFFFFFFFFFFFF AND DUP2 MSTORE PUSH1 0x20 ADD SWAP1 DUP2 MSTORE PUSH1 0x20 ADD PUSH0 KECCAK256 PUSH0 PUSH2 0x100 EXP DUP2 SLOAD DUP2 PUSH1 0xFF MUL NOT AND SWAP1 DUP4 ISZERO ISZERO MUL OR SWAP1 SSTORE POP JUMPDEST POP POP JUMP JUMPDEST PUSH1 0x1 PUSH1 0x20 MSTORE DUP1 PUSH0 MSTORE PUSH1 0x40 PUSH0 KECCAK256 PUSH0 SWAP2 POP SWAP1 POP SLOAD DUP2 JUMP JUMPDEST PUSH1 0x3 DUP2 JUMP JUMPDEST PUSH0 DUP1 SLOAD SWAP1 PUSH2 0x100 EXP SWAP1 DIV PUSH20 0xFFFFFFFFFFFFFFFFFFFFFFFFFFFFFFFFFFFFFFFF AND DUP2 JUMP JUMPDEST PUSH1 0x3 PUSH0 CALLER PUSH20 0xFFFFFFFFFFFFFFFFFFFFFFFFFFFFFFFFFFFFFFFF AND PUSH20 0xFFFFFFFFFFFFFFFFFFFFFFFFFFFFFFFFFFFFFFFF AND DUP2 MSTORE PUSH1 0x20 ADD SWAP1 DUP2 MSTORE PUSH1 0x20 ADD PUSH0 KECCAK256 PUSH0 SWAP1 SLOAD SWAP1 PUSH2 0x100 EXP SWAP1 DIV PUSH1 0xFF AND PUSH2 0x5BF JUMPI PUSH1 0x40 MLOAD PUSH32 0x8C379A000000000000000000000000000000000000000000000000000000000 DUP2 MSTORE PUSH1 0x4 ADD PUSH2 0x5B6 SWAP1 PUSH2 0x1048 JUMP JUMPDEST PUSH1 0x40 MLOAD DUP1 SWAP2 SUB SWAP1 REVERT JUMPDEST PUSH0 ISZERO ISZERO PUSH1 0x5 PUSH0 DUP4 PUSH20 0xFFFFFFFFFFFFFFFFFFFFFFFFFFFFFFFFFFFFFFFF AND PUSH20 0xFFFFFFFFFFFFFFFFFFFFFFFFFFFFFFFFFFFFFFFF AND DUP2 MSTORE PUSH1 0x20 ADD SWAP1 DUP2 MSTORE PUSH1 0x20 ADD PUSH0 KECCAK256 PUSH0 CALLER PUSH20 0xFFFFFFFFFFFFFFFFFFFFFFFFFFFFFFFFFFFFFFFF AND PUSH20 0xFFFFFFFFFFFFFFFFFFFFFFFFFFFFFFFFFFFFFFFF AND DUP2 MSTORE PUSH1 0x20 ADD SWAP1 DUP2 MSTORE PUSH1 0x20 ADD PUSH0 KECCAK256 PUSH0 SWAP1 SLOAD SWAP1 PUSH2 0x100 EXP SWAP1 DIV PUSH1 0xFF AND ISZERO ISZERO EQ PUSH2 0x689 JUMPI PUSH1 0x40 MLOAD PUSH32 0x8C379A000000000000000000000000000000000000000000000000000000000 DUP2 MSTORE PUSH1 0x4 ADD PUSH2 0x680 SWAP1 PUSH2 0x10B0 JUMP JUMPDEST PUSH1 0x40 MLOAD DUP1 SWAP2 SUB SWAP1 REVERT JUMPDEST PUSH1 0x4 PUSH0 SWAP1 SLOAD SWAP1 PUSH2 0x100 EXP SWAP1 DIV PUSH20 0xFFFFFFFFFFFFFFFFFFFFFFFFFFFFFFFFFFFFFFFF AND PUSH20 0xFFFFFFFFFFFFFFFFFFFFFFFFFFFFFFFFFFFFFFFF AND DUP2 PUSH20 0xFFFFFFFFFFFFFFFFFFFFFFFFFFFFFFFFFFFFFFFF AND EQ PUSH2 0x725 JUMPI DUP1 PUSH1 0x4 PUSH0 PUSH2 0x100 EXP DUP2 SLOAD DUP2 PUSH20 0xFFFFFFFFFFFFFFFFFFFFFFFFFFFFFFFFFFFFFFFF MUL NOT AND SWAP1 DUP4 PUSH20 0xFFFFFFFFFFFFFFFFFFFFFFFFFFFFFFFFFFFFFFFF AND MUL OR SWAP1 SSTORE POP PUSH0 PUSH1 0x6 DUP2 SWAP1 SSTORE POP JUMPDEST PUSH1 0x6 PUSH0 DUP2 SLOAD DUP1 SWAP3 SWAP2 SWAP1 PUSH2 0x737 SWAP1 PUSH2 0x10FB JUMP JUMPDEST SWAP2 SWAP1 POP SSTORE POP PUSH1 0x3 PUSH1 0x6 SLOAD LT PUSH2 0x7E7 JUMPI PUSH1 0x4 PUSH0 SWAP1 SLOAD SWAP1 PUSH2 0x100 EXP SWAP1 DIV PUSH20 0xFFFFFFFFFFFFFFFFFFFFFFFFFFFFFFFFFFFFFFFF AND PUSH0 DUP1 PUSH2 0x100 EXP DUP2 SLOAD DUP2 PUSH20 0xFFFFFFFFFFFFFFFFFFFFFFFFFFFFFFFFFFFFFFFF MUL NOT AND SWAP1 DUP4 PUSH20 0xFFFFFFFFFFFFFFFFFFFFFFFFFFFFFFFFFFFFFFFF AND MUL OR SWAP1 SSTORE POP PUSH0 PUSH1 0x4 PUSH0 PUSH2 0x100 EXP DUP2 SLOAD DUP2 PUSH20 0xFFFFFFFFFFFFFFFFFFFFFFFFFFFFFFFFFFFFFFFF MUL NOT AND SWAP1 DUP4 PUSH20 0xFFFFFFFFFFFFFFFFFFFFFFFFFFFFFFFFFFFFFFFF AND MUL OR SWAP1 SSTORE POP JUMPDEST POP JUMP JUMPDEST PUSH1 0x60 PUSH0 DUP1 SLOAD SWAP1 PUSH2 0x100 EXP SWAP1 DIV PUSH20 0xFFFFFFFFFFFFFFFFFFFFFFFFFFFFFFFFFFFFFFFF AND PUSH20 0xFFFFFFFFFFFFFFFFFFFFFFFFFFFFFFFFFFFFFFFF AND CALLER PUSH20 0xFFFFFFFFFFFFFFFFFFFFFFFFFFFFFFFFFFFFFFFF AND EQ PUSH2 0x879 JUMPI PUSH1 0x40 MLOAD PUSH32 0x8C379A000000000000000000000000000000000000000000000000000000000 DUP2 MSTORE PUSH1 0x4 ADD PUSH2 0x870 SWAP1 PUSH2 0xFBA JUMP JUMPDEST PUSH1 0x40 MLOAD DUP1 SWAP2 SUB SWAP1 REVERT JUMPDEST PUSH0 DUP1 SLOAD SWAP1 PUSH2 0x100 EXP SWAP1 DIV PUSH20 0xFFFFFFFFFFFFFFFFFFFFFFFFFFFFFFFFFFFFFFFF AND PUSH20 0xFFFFFFFFFFFFFFFFFFFFFFFFFFFFFFFFFFFFFFFF AND CALLER PUSH20 0xFFFFFFFFFFFFFFFFFFFFFFFFFFFFFFFFFFFFFFFF AND EQ PUSH2 0xA28 JUMPI DUP3 PUSH1 0x1 PUSH0 CALLER PUSH20 0xFFFFFFFFFFFFFFFFFFFFFFFFFFFFFFFFFFFFFFFF AND PUSH20 0xFFFFFFFFFFFFFFFFFFFFFFFFFFFFFFFFFFFFFFFF AND DUP2 MSTORE PUSH1 0x20 ADD SWAP1 DUP2 MSTORE PUSH1 0x20 ADD PUSH0 KECCAK256 SLOAD LT ISZERO PUSH2 0x94B JUMPI PUSH1 0x40 MLOAD PUSH32 0x8C379A000000000000000000000000000000000000000000000000000000000 DUP2 MSTORE PUSH1 0x4 ADD PUSH2 0x942 SWAP1 PUSH2 0x11B2 JUMP JUMPDEST PUSH1 0x40 MLOAD DUP1 SWAP2 SUB SWAP1 REVERT JUMPDEST PUSH1 0x2 PUSH0 CALLER PUSH20 0xFFFFFFFFFFFFFFFFFFFFFFFFFFFFFFFFFFFFFFFF AND PUSH20 0xFFFFFFFFFFFFFFFFFFFFFFFFFFFFFFFFFFFFFFFF AND DUP2 MSTORE PUSH1 0x20 ADD SWAP1 DUP2 MSTORE PUSH1 0x20 ADD PUSH0 KECCAK256 PUSH0 SWAP1 SLOAD SWAP1 PUSH2 0x100 EXP SWAP1 DIV PUSH1 0xFF AND PUSH2 0x9D4 JUMPI PUSH1 0x40 MLOAD PUSH32 0x8C379A000000000000000000000000000000000000000000000000000000000 DUP2 MSTORE PUSH1 0x4 ADD PUSH2 0x9CB SWAP1 PUSH2 0x1266 JUMP JUMPDEST PUSH1 0x40 MLOAD DUP1 SWAP2 SUB SWAP1 REVERT JUMPDEST DUP3 PUSH1 0x1 PUSH0 CALLER PUSH20 0xFFFFFFFFFFFFFFFFFFFFFFFFFFFFFFFFFFFFFFFF AND PUSH20 0xFFFFFFFFFFFFFFFFFFFFFFFFFFFFFFFFFFFFFFFF AND DUP2 MSTORE PUSH1 0x20 ADD SWAP1 DUP2 MSTORE PUSH1 0x20 ADD PUSH0 KECCAK256 PUSH0 DUP3 DUP3 SLOAD PUSH2 0xA20 SWAP2 SWAP1 PUSH2 0x1284 JUMP JUMPDEST SWAP3 POP POP DUP2 SWAP1 SSTORE POP JUMPDEST PUSH0 DUP1 DUP6 PUSH20 0xFFFFFFFFFFFFFFFFFFFFFFFFFFFFFFFFFFFFFFFF AND DUP6 DUP6 PUSH1 0x40 MLOAD PUSH2 0xA50 SWAP2 SWAP1 PUSH2 0x12F1 JUMP JUMPDEST PUSH0 PUSH1 0x40 MLOAD DUP1 DUP4 SUB DUP2 DUP6 DUP8 GAS CALL SWAP3 POP POP POP RETURNDATASIZE DUP1 PUSH0 DUP2 EQ PUSH2 0xA8A JUMPI PUSH1 0x40 MLOAD SWAP2 POP PUSH1 0x1F NOT PUSH1 0x3F RETURNDATASIZE ADD AND DUP3 ADD PUSH1 0x40 MSTORE RETURNDATASIZE DUP3 MSTORE RETURNDATASIZE PUSH0 PUSH1 0x20 DUP5 ADD RETURNDATACOPY PUSH2 0xA8F JUMP JUMPDEST PUSH1 0x60 SWAP2 POP JUMPDEST POP SWAP2 POP SWAP2 POP DUP2 PUSH2 0xAD4 JUMPI PUSH1 0x40 MLOAD PUSH32 0x8C379A000000000000000000000000000000000000000000000000000000000 DUP2 MSTORE PUSH1 0x4 ADD PUSH2 0xACB SWAP1 PUSH2 0x1377 JUMP JUMPDEST PUSH1 0x40 MLOAD DUP1 SWAP2 SUB SWAP1 REVERT JUMPDEST DUP1 SWAP3 POP POP POP SWAP4 SWAP3 POP POP POP JUMP JUMPDEST PUSH0 PUSH1 0x40 MLOAD SWAP1 POP SWAP1 JUMP JUMPDEST PUSH0 DUP1 REVERT JUMPDEST PUSH0 DUP1 REVERT JUMPDEST PUSH0 PUSH20 0xFFFFFFFFFFFFFFFFFFFFFFFFFFFFFFFFFFFFFFFF DUP3 AND SWAP1 POP SWAP2 SWAP1 POP JUMP JUMPDEST PUSH0 PUSH2 0xB1A DUP3 PUSH2 0xAF1 JUMP JUMPDEST SWAP1 POP SWAP2 SWAP1 POP JUMP JUMPDEST PUSH2 0xB2A DUP2 PUSH2 0xB10 JUMP JUMPDEST DUP2 EQ PUSH2 0xB34 JUMPI PUSH0 DUP1 REVERT JUMPDEST POP JUMP JUMPDEST PUSH0 DUP2 CALLDATALOAD SWAP1 POP PUSH2 0xB45 DUP2 PUSH2 0xB21 JUMP JUMPDEST SWAP3 SWAP2 POP POP JUMP JUMPDEST PUSH0 PUSH1 0x20 DUP3 DUP5 SUB SLT ISZERO PUSH2 0xB60 JUMPI PUSH2 0xB5F PUSH2 0xAE9 JUMP JUMPDEST JUMPDEST PUSH0 PUSH2 0xB6D DUP5 DUP3 DUP6 ADD PUSH2 0xB37 JUMP JUMPDEST SWAP2 POP POP SWAP3 SWAP2 POP POP JUMP JUMPDEST PUSH0 DUP2 ISZERO ISZERO SWAP1 POP SWAP2 SWAP1 POP JUMP JUMPDEST PUSH2 0xB8A DUP2 PUSH2 0xB76 JUMP JUMPDEST DUP3 MSTORE POP POP JUMP JUMPDEST PUSH0 PUSH1 0x20 DUP3 ADD SWAP1 POP PUSH2 0xBA3 PUSH0 DUP4 ADD DUP5 PUSH2 0xB81 JUMP JUMPDEST SWAP3 SWAP2 POP POP JUMP JUMPDEST PUSH2 0xBB2 DUP2 PUSH2 0xB76 JUMP JUMPDEST DUP2 EQ PUSH2 0xBBC JUMPI PUSH0 DUP1 REVERT JUMPDEST POP JUMP JUMPDEST PUSH0 DUP2 CALLDATALOAD SWAP1 POP PUSH2 0xBCD DUP2 PUSH2 0xBA9 JUMP JUMPDEST SWAP3 SWAP2 POP POP JUMP JUMPDEST PUSH0 DUP1 PUSH1 0x40 DUP4 DUP6 SUB SLT ISZERO PUSH2 0xBE9 JUMPI PUSH2 0xBE8 PUSH2 0xAE9 JUMP JUMPDEST JUMPDEST PUSH0 PUSH2 0xBF6 DUP6 DUP3 DUP7 ADD PUSH2 0xB37 JUMP JUMPDEST SWAP3 POP POP PUSH1 0x20 PUSH2 0xC07 DUP6 DUP3 DUP7 ADD PUSH2 0xBBF JUMP JUMPDEST SWAP2 POP POP SWAP3 POP SWAP3 SWAP1 POP JUMP JUMPDEST PUSH0 DUP2 SWAP1 POP SWAP2 SWAP1 POP JUMP JUMPDEST PUSH2 0xC23 DUP2 PUSH2 0xC11 JUMP JUMPDEST DUP2 EQ PUSH2 0xC2D JUMPI PUSH0 DUP1 REVERT JUMPDEST POP JUMP JUMPDEST PUSH0 DUP2 CALLDATALOAD SWAP1 POP PUSH2 0xC3E DUP2 PUSH2 0xC1A JUMP JUMPDEST SWAP3 SWAP2 POP POP JUMP JUMPDEST PUSH0 DUP1 PUSH1 0x40 DUP4 DUP6 SUB SLT ISZERO PUSH2 0xC5A JUMPI PUSH2 0xC59 PUSH2 0xAE9 JUMP JUMPDEST JUMPDEST PUSH0 PUSH2 0xC67 DUP6 DUP3 DUP7 ADD PUSH2 0xB37 JUMP JUMPDEST SWAP3 POP POP PUSH1 0x20 PUSH2 0xC78 DUP6 DUP3 DUP7 ADD PUSH2 0xC30 JUMP JUMPDEST SWAP2 POP POP SWAP3 POP SWAP3 SWAP1 POP JUMP JUMPDEST PUSH2 0xC8B DUP2 PUSH2 0xC11 JUMP JUMPDEST DUP3 MSTORE POP POP JUMP JUMPDEST PUSH0 PUSH1 0x20 DUP3 ADD SWAP1 POP PUSH2 0xCA4 PUSH0 DUP4 ADD DUP5 PUSH2 0xC82 JUMP JUMPDEST SWAP3 SWAP2 POP POP JUMP JUMPDEST PUSH0 PUSH2 0xCB4 DUP3 PUSH2 0xAF1 JUMP JUMPDEST SWAP1 POP SWAP2 SWAP1 POP JUMP JUMPDEST PUSH2 0xCC4 DUP2 PUSH2 0xCAA JUMP JUMPDEST DUP3 MSTORE POP POP JUMP JUMPDEST PUSH0 PUSH1 0x20 DUP3 ADD SWAP1 POP PUSH2 0xCDD PUSH0 DUP4 ADD DUP5 PUSH2 0xCBB JUMP JUMPDEST SWAP3 SWAP2 POP POP JUMP JUMPDEST PUSH2 0xCEC DUP2 PUSH2 0xCAA JUMP JUMPDEST DUP2 EQ PUSH2 0xCF6 JUMPI PUSH0 DUP1 REVERT JUMPDEST POP JUMP JUMPDEST PUSH0 DUP2 CALLDATALOAD SWAP1 POP PUSH2 0xD07 DUP2 PUSH2 0xCE3 JUMP JUMPDEST SWAP3 SWAP2 POP POP JUMP JUMPDEST PUSH0 PUSH1 0x20 DUP3 DUP5 SUB SLT ISZERO PUSH2 0xD22 JUMPI PUSH2 0xD21 PUSH2 0xAE9 JUMP JUMPDEST JUMPDEST PUSH0 PUSH2 0xD2F DUP5 DUP3 DUP6 ADD PUSH2 0xCF9 JUMP JUMPDEST SWAP2 POP POP SWAP3 SWAP2 POP POP JUMP JUMPDEST PUSH0 DUP1 REVERT JUMPDEST PUSH0 DUP1 REVERT JUMPDEST PUSH0 PUSH1 0x1F NOT PUSH1 0x1F DUP4 ADD AND SWAP1 POP SWAP2 SWAP1 POP JUMP JUMPDEST PUSH32 0x4E487B7100000000000000000000000000000000000000000000000000000000 PUSH0 MSTORE PUSH1 0x41 PUSH1 0x4 MSTORE PUSH1 0x24 PUSH0 REVERT JUMPDEST PUSH2 0xD86 DUP3 PUSH2 0xD40 JUMP JUMPDEST DUP2 ADD DUP2 DUP2 LT PUSH8 0xFFFFFFFFFFFFFFFF DUP3 GT OR ISZERO PUSH2 0xDA5 JUMPI PUSH2 0xDA4 PUSH2 0xD50 JUMP JUMPDEST JUMPDEST DUP1 PUSH1 0x40 MSTORE POP POP POP JUMP JUMPDEST PUSH0 PUSH2 0xDB7 PUSH2 0xAE0 JUMP JUMPDEST SWAP1 POP PUSH2 0xDC3 DUP3 DUP3 PUSH2 0xD7D JUMP JUMPDEST SWAP2 SWAP1 POP JUMP JUMPDEST PUSH0 PUSH8 0xFFFFFFFFFFFFFFFF DUP3 GT ISZERO PUSH2 0xDE2 JUMPI PUSH2 0xDE1 PUSH2 0xD50 JUMP JUMPDEST JUMPDEST PUSH2 0xDEB DUP3 PUSH2 0xD40 JUMP JUMPDEST SWAP1 POP PUSH1 0x20 DUP2 ADD SWAP1 POP SWAP2 SWAP1 POP JUMP JUMPDEST DUP3 DUP2 DUP4 CALLDATACOPY PUSH0 DUP4 DUP4 ADD MSTORE POP POP POP JUMP JUMPDEST PUSH0 PUSH2 0xE18 PUSH2 0xE13 DUP5 PUSH2 0xDC8 JUMP JUMPDEST PUSH2 0xDAE JUMP JUMPDEST SWAP1 POP DUP3 DUP2 MSTORE PUSH1 0x20 DUP2 ADD DUP5 DUP5 DUP5 ADD GT ISZERO PUSH2 0xE34 JUMPI PUSH2 0xE33 PUSH2 0xD3C JUMP JUMPDEST JUMPDEST PUSH2 0xE3F DUP5 DUP3 DUP6 PUSH2 0xDF8 JUMP JUMPDEST POP SWAP4 SWAP3 POP POP POP JUMP JUMPDEST PUSH0 DUP3 PUSH1 0x1F DUP4 ADD SLT PUSH2 0xE5B JUMPI PUSH2 0xE5A PUSH2 0xD38 JUMP JUMPDEST JUMPDEST DUP2 CALLDATALOAD PUSH2 0xE6B DUP5 DUP3 PUSH1 0x20 DUP7 ADD PUSH2 0xE06 JUMP JUMPDEST SWAP2 POP POP SWAP3 SWAP2 POP POP JUMP JUMPDEST PUSH0 DUP1 PUSH0 PUSH1 0x60 DUP5 DUP7 SUB SLT ISZERO PUSH2 0xE8B JUMPI PUSH2 0xE8A PUSH2 0xAE9 JUMP JUMPDEST JUMPDEST PUSH0 PUSH2 0xE98 DUP7 DUP3 DUP8 ADD PUSH2 0xCF9 JUMP JUMPDEST SWAP4 POP POP PUSH1 0x20 PUSH2 0xEA9 DUP7 DUP3 DUP8 ADD PUSH2 0xC30 JUMP JUMPDEST SWAP3 POP POP PUSH1 0x40 DUP5 ADD CALLDATALOAD PUSH8 0xFFFFFFFFFFFFFFFF DUP2 GT ISZERO PUSH2 0xECA JUMPI PUSH2 0xEC9 PUSH2 0xAED JUMP JUMPDEST JUMPDEST PUSH2 0xED6 DUP7 DUP3 DUP8 ADD PUSH2 0xE47 JUMP JUMPDEST SWAP2 POP POP SWAP3 POP SWAP3 POP SWAP3 JUMP JUMPDEST PUSH0 DUP2 MLOAD SWAP1 POP SWAP2 SWAP1 POP JUMP JUMPDEST PUSH0 DUP3 DUP3 MSTORE PUSH1 0x20 DUP3 ADD SWAP1 POP SWAP3 SWAP2 POP POP JUMP JUMPDEST DUP3 DUP2 DUP4 MCOPY PUSH0 DUP4 DUP4 ADD MSTORE POP POP POP JUMP JUMPDEST PUSH0 PUSH2 0xF12 DUP3 PUSH2 0xEE0 JUMP JUMPDEST PUSH2 0xF1C DUP2 DUP6 PUSH2 0xEEA JUMP JUMPDEST SWAP4 POP PUSH2 0xF2C DUP2 DUP6 PUSH1 0x20 DUP7 ADD PUSH2 0xEFA JUMP JUMPDEST PUSH2 0xF35 DUP2 PUSH2 0xD40 JUMP JUMPDEST DUP5 ADD SWAP2 POP POP SWAP3 SWAP2 POP POP JUMP JUMPDEST PUSH0 PUSH1 0x20 DUP3 ADD SWAP1 POP DUP2 DUP2 SUB PUSH0 DUP4 ADD MSTORE PUSH2 0xF58 DUP2 DUP5 PUSH2 0xF08 JUMP JUMPDEST SWAP1 POP SWAP3 SWAP2 POP POP JUMP JUMPDEST PUSH0 DUP3 DUP3 MSTORE PUSH1 0x20 DUP3 ADD SWAP1 POP SWAP3 SWAP2 POP POP JUMP JUMPDEST PUSH32 0x596F75277265206E6F7420746865206F776E65722C2061626F7274696E670000 PUSH0 DUP3 ADD MSTORE POP JUMP JUMPDEST PUSH0 PUSH2 0xFA4 PUSH1 0x1E DUP4 PUSH2 0xF60 JUMP JUMPDEST SWAP2 POP PUSH2 0xFAF DUP3 PUSH2 0xF70 JUMP JUMPDEST PUSH1 0x20 DUP3 ADD SWAP1 POP SWAP2 SWAP1 POP JUMP JUMPDEST PUSH0 PUSH1 0x20 DUP3 ADD SWAP1 POP DUP2 DUP2 SUB PUSH0 DUP4 ADD MSTORE PUSH2 0xFD1 DUP2 PUSH2 0xF98 JUMP JUMPDEST SWAP1 POP SWAP2 SWAP1 POP JUMP JUMPDEST PUSH32 0x596F7520617265206E6F74206120677561726469616E206F6620746869732063 PUSH0 DUP3 ADD MSTORE PUSH32 0x6F6E747261637400000000000000000000000000000000000000000000000000 PUSH1 0x20 DUP3 ADD MSTORE POP JUMP JUMPDEST PUSH0 PUSH2 0x1032 PUSH1 0x27 DUP4 PUSH2 0xF60 JUMP JUMPDEST SWAP2 POP PUSH2 0x103D DUP3 PUSH2 0xFD8 JUMP JUMPDEST PUSH1 0x40 DUP3 ADD SWAP1 POP SWAP2 SWAP1 POP JUMP JUMPDEST PUSH0 PUSH1 0x20 DUP3 ADD SWAP1 POP DUP2 DUP2 SUB PUSH0 DUP4 ADD MSTORE PUSH2 0x105F DUP2 PUSH2 0x1026 JUMP JUMPDEST SWAP1 POP SWAP2 SWAP1 POP JUMP JUMPDEST PUSH32 0x596F752061726520616C726561647920766F7465642C2061626F7274696E6700 PUSH0 DUP3 ADD MSTORE POP JUMP JUMPDEST PUSH0 PUSH2 0x109A PUSH1 0x1F DUP4 PUSH2 0xF60 JUMP JUMPDEST SWAP2 POP PUSH2 0x10A5 DUP3 PUSH2 0x1066 JUMP JUMPDEST PUSH1 0x20 DUP3 ADD SWAP1 POP SWAP2 SWAP1 POP JUMP JUMPDEST PUSH0 PUSH1 0x20 DUP3 ADD SWAP1 POP DUP2 DUP2 SUB PUSH0 DUP4 ADD MSTORE PUSH2 0x10C7 DUP2 PUSH2 0x108E JUMP JUMPDEST SWAP1 POP SWAP2 SWAP1 POP JUMP JUMPDEST PUSH32 0x4E487B7100000000000000000000000000000000000000000000000000000000 PUSH0 MSTORE PUSH1 0x11 PUSH1 0x4 MSTORE PUSH1 0x24 PUSH0 REVERT JUMPDEST PUSH0 PUSH2 0x1105 DUP3 PUSH2 0xC11 JUMP JUMPDEST SWAP2 POP PUSH32 0xFFFFFFFFFFFFFFFFFFFFFFFFFFFFFFFFFFFFFFFFFFFFFFFFFFFFFFFFFFFFFFFF DUP3 SUB PUSH2 0x1137 JUMPI PUSH2 0x1136 PUSH2 0x10CE JUMP JUMPDEST JUMPDEST PUSH1 0x1 DUP3 ADD SWAP1 POP SWAP2 SWAP1 POP JUMP JUMPDEST PUSH32 0x596F752061726520747279696E6720746F2073656E64206D6F7265207468616E PUSH0 DUP3 ADD MSTORE PUSH32 0x20796F7520616C6C6F77656420746F2C2061626F7274696E6700000000000000 PUSH1 0x20 DUP3 ADD MSTORE POP JUMP JUMPDEST PUSH0 PUSH2 0x119C PUSH1 0x39 DUP4 PUSH2 0xF60 JUMP JUMPDEST SWAP2 POP PUSH2 0x11A7 DUP3 PUSH2 0x1142 JUMP JUMPDEST PUSH1 0x40 DUP3 ADD SWAP1 POP SWAP2 SWAP1 POP JUMP JUMPDEST PUSH0 PUSH1 0x20 DUP3 ADD SWAP1 POP DUP2 DUP2 SUB PUSH0 DUP4 ADD MSTORE PUSH2 0x11C9 DUP2 PUSH2 0x1190 JUMP JUMPDEST SWAP1 POP SWAP2 SWAP1 POP JUMP JUMPDEST PUSH32 0x596F7520617265206E6F7420616C6C6F77656420746F2073656E6420616E7974 PUSH0 DUP3 ADD MSTORE PUSH32 0x68696E672066726F6D207468697320636F6E74726163742C2061626F7274696E PUSH1 0x20 DUP3 ADD MSTORE PUSH32 0x672E000000000000000000000000000000000000000000000000000000000000 PUSH1 0x40 DUP3 ADD MSTORE POP JUMP JUMPDEST PUSH0 PUSH2 0x1250 PUSH1 0x42 DUP4 PUSH2 0xF60 JUMP JUMPDEST SWAP2 POP PUSH2 0x125B DUP3 PUSH2 0x11D0 JUMP JUMPDEST PUSH1 0x60 DUP3 ADD SWAP1 POP SWAP2 SWAP1 POP JUMP JUMPDEST PUSH0 PUSH1 0x20 DUP3 ADD SWAP1 POP DUP2 DUP2 SUB PUSH0 DUP4 ADD MSTORE PUSH2 0x127D DUP2 PUSH2 0x1244 JUMP JUMPDEST SWAP1 POP SWAP2 SWAP1 POP JUMP JUMPDEST PUSH0 PUSH2 0x128E DUP3 PUSH2 0xC11 JUMP JUMPDEST SWAP2 POP PUSH2 0x1299 DUP4 PUSH2 0xC11 JUMP JUMPDEST SWAP3 POP DUP3 DUP3 SUB SWAP1 POP DUP2 DUP2 GT ISZERO PUSH2 0x12B1 JUMPI PUSH2 0x12B0 PUSH2 0x10CE JUMP JUMPDEST JUMPDEST SWAP3 SWAP2 POP POP JUMP JUMPDEST PUSH0 DUP2 SWAP1 POP SWAP3 SWAP2 POP POP JUMP JUMPDEST PUSH0 PUSH2 0x12CB DUP3 PUSH2 0xEE0 JUMP JUMPDEST PUSH2 0x12D5 DUP2 DUP6 PUSH2 0x12B7 JUMP JUMPDEST SWAP4 POP PUSH2 0x12E5 DUP2 DUP6 PUSH1 0x20 DUP7 ADD PUSH2 0xEFA JUMP JUMPDEST DUP1 DUP5 ADD SWAP2 POP POP SWAP3 SWAP2 POP POP JUMP JUMPDEST PUSH0 PUSH2 0x12FC DUP3 DUP5 PUSH2 0x12C1 JUMP JUMPDEST SWAP2 POP DUP2 SWAP1 POP SWAP3 SWAP2 POP POP JUMP JUMPDEST PUSH32 0x41626F7274696E672C2063616C6C20776173206E6F7420737563636573736675 PUSH0 DUP3 ADD MSTORE PUSH32 0x6C00000000000000000000000000000000000000000000000000000000000000 PUSH1 0x20 DUP3 ADD MSTORE POP JUMP JUMPDEST PUSH0 PUSH2 0x1361 PUSH1 0x21 DUP4 PUSH2 0xF60 JUMP JUMPDEST SWAP2 POP PUSH2 0x136C DUP3 PUSH2 0x1307 JUMP JUMPDEST PUSH1 0x40 DUP3 ADD SWAP1 POP SWAP2 SWAP1 POP JUMP JUMPDEST PUSH0 PUSH1 0x20 DUP3 ADD SWAP1 POP DUP2 DUP2 SUB PUSH0 DUP4 ADD MSTORE PUSH2 0x138E DUP2 PUSH2 0x1355 JUMP JUMPDEST SWAP1 POP SWAP2 SWAP1 POP JUMP INVALID LOG2 PUSH5 0x6970667358 0x22 SLT KECCAK256 0xC2 0xE1 PUSH31 0x6538EBB05D6281BEDE0AEC1165943433FEFDF2EE2A4C1239D9C531D5A26473 PUSH16 0x6C634300081A00330000000000000000 "
				},
				"gasEstimates": {
					"creation": {
						"codeDepositCost": "1013400",
						"executionCost": "25317",
						"totalCost": "1038717"
					},
					"external": {
						"allowance(address)": "2802",
						"confirmationFromGuardiansForReset()": "347",
						"guardians(address)": "2834",
						"isAllowedToSend(address)": "2856",
						"owner()": "2549",
						"proposeNewOwner(address)": "63024",
						"setAllowance(address,uint256)": "49445",
						"setGuardian(address,bool)": "27191",
						"transfer(address,uint256,bytes)": "infinite"
					}
				},
				"methodIdentifiers": {
					"allowance(address)": "3e5beab9",
					"confirmationFromGuardiansForReset()": "58e404b1",
					"guardians(address)": "0633b14a",
					"isAllowedToSend(address)": "0bc605ad",
					"owner()": "8da5cb5b",
					"proposeNewOwner(address)": "b1f8100d",
					"setAllowance(address,uint256)": "310ec4a7",
					"setGuardian(address,bool)": "2b8a1c5a",
					"transfer(address,uint256,bytes)": "be45fd62"
				}
			},
			"storageLayout": {
				"storage": [
					{
						"astId": 20,
						"contract": "contracts/SmartContractWallet.sol:SmartContractWallet",
						"label": "owner",
						"offset": 0,
						"slot": "0",
						"type": "t_address_payable"
					},
					{
						"astId": 24,
						"contract": "contracts/SmartContractWallet.sol:SmartContractWallet",
						"label": "allowance",
						"offset": 0,
						"slot": "1",
						"type": "t_mapping(t_address,t_uint256)"
					},
					{
						"astId": 28,
						"contract": "contracts/SmartContractWallet.sol:SmartContractWallet",
						"label": "isAllowedToSend",
						"offset": 0,
						"slot": "2",
						"type": "t_mapping(t_address,t_bool)"
					},
					{
						"astId": 32,
						"contract": "contracts/SmartContractWallet.sol:SmartContractWallet",
						"label": "guardians",
						"offset": 0,
						"slot": "3",
						"type": "t_mapping(t_address,t_bool)"
					},
					{
						"astId": 34,
						"contract": "contracts/SmartContractWallet.sol:SmartContractWallet",
						"label": "nextOwner",
						"offset": 0,
						"slot": "4",
						"type": "t_address_payable"
					},
					{
						"astId": 40,
						"contract": "contracts/SmartContractWallet.sol:SmartContractWallet",
						"label": "nextOwnerGuardianVotedBool",
						"offset": 0,
						"slot": "5",
						"type": "t_mapping(t_address,t_mapping(t_address,t_bool))"
					},
					{
						"astId": 42,
						"contract": "contracts/SmartContractWallet.sol:SmartContractWallet",
						"label": "guardiansResetCount",
						"offset": 0,
						"slot": "6",
						"type": "t_uint256"
					}
				],
				"types": {
					"t_address": {
						"encoding": "inplace",
						"label": "address",
						"numberOfBytes": "20"
					},
					"t_address_payable": {
						"encoding": "inplace",
						"label": "address payable",
						"numberOfBytes": "20"
					},
					"t_bool": {
						"encoding": "inplace",
						"label": "bool",
						"numberOfBytes": "1"
					},
					"t_mapping(t_address,t_bool)": {
						"encoding": "mapping",
						"key": "t_address",
						"label": "mapping(address => bool)",
						"numberOfBytes": "32",
						"value": "t_bool"
					},
					"t_mapping(t_address,t_mapping(t_address,t_bool))": {
						"encoding": "mapping",
						"key": "t_address",
						"label": "mapping(address => mapping(address => bool))",
						"numberOfBytes": "32",
						"value": "t_mapping(t_address,t_bool)"
					},
					"t_mapping(t_address,t_uint256)": {
						"encoding": "mapping",
						"key": "t_address",
						"label": "mapping(address => uint256)",
						"numberOfBytes": "32",
						"value": "t_uint256"
					},
					"t_uint256": {
						"encoding": "inplace",
						"label": "uint256",
						"numberOfBytes": "32"
					}
				}
			},
			"userdoc": {
				"kind": "user",
				"methods": {},
				"version": 1
			}
		}
	}
}