{
	"contracts/ExampleTryCatch.sol": {
		"ErrorHandling": {
			"abi": [
				{
					"anonymous": false,
					"inputs": [
						{
							"indexed": false,
							"internalType": "bytes",
							"name": "lowLevelData",
							"type": "bytes"
						}
					],
					"name": "ErrorLogBytes",
					"type": "event"
				},
				{
					"anonymous": false,
					"inputs": [
						{
							"indexed": false,
							"internalType": "uint256",
							"name": "code",
							"type": "uint256"
						}
					],
					"name": "ErrorLogCode",
					"type": "event"
				},
				{
					"anonymous": false,
					"inputs": [
						{
							"indexed": false,
							"internalType": "string",
							"name": "reason",
							"type": "string"
						}
					],
					"name": "ErrorLogging",
					"type": "event"
				},
				{
					"inputs": [],
					"name": "catchTheError",
					"outputs": [],
					"stateMutability": "nonpayable",
					"type": "function"
				}
			],
			"devdoc": {
				"kind": "dev",
				"methods": {},
				"version": 1
			},
			"evm": {
				"assembly": "    /* \"contracts/ExampleTryCatch.sol\":352:979  contract ErrorHandling {... */\n  mstore(0x40, 0x80)\n  callvalue\n  dup1\n  iszero\n  tag_1\n  jumpi\n  0x00\n  dup1\n  revert\ntag_1:\n  pop\n  dataSize(sub_0)\n  dup1\n  dataOffset(sub_0)\n  0x00\n  codecopy\n  0x00\n  return\nstop\n\nsub_0: assembly {\n        /* \"contracts/ExampleTryCatch.sol\":352:979  contract ErrorHandling {... */\n      mstore(0x40, 0x80)\n      callvalue\n      dup1\n      iszero\n      tag_1\n      jumpi\n      0x00\n      dup1\n      revert\n    tag_1:\n      pop\n      jumpi(tag_2, lt(calldatasize, 0x04))\n      shr(0xe0, calldataload(0x00))\n      dup1\n      0x9e957cf8\n      eq\n      tag_3\n      jumpi\n    tag_2:\n      0x00\n      dup1\n      revert\n        /* \"contracts/ExampleTryCatch.sol\":504:974  function catchTheError() public {... */\n    tag_3:\n      tag_4\n      tag_5\n      jump\t// in\n    tag_4:\n      stop\n    tag_5:\n        /* \"contracts/ExampleTryCatch.sol\":547:561  WillThrow will */\n      0x00\n        /* \"contracts/ExampleTryCatch.sol\":564:579  new WillThrow() */\n      mload(0x40)\n      tag_7\n      swap1\n      tag_8\n      jump\t// in\n    tag_7:\n      mload(0x40)\n      dup1\n      swap2\n      sub\n      swap1\n      0x00\n      create\n      dup1\n      iszero\n      dup1\n      iszero\n      tag_9\n      jumpi\n      returndatasize\n      0x00\n      dup1\n      returndatacopy\n      revert(0x00, returndatasize)\n    tag_9:\n      pop\n        /* \"contracts/ExampleTryCatch.sol\":547:579  WillThrow will = new WillThrow() */\n      swap1\n      pop\n        /* \"contracts/ExampleTryCatch.sol\":594:598  will */\n      dup1\n        /* \"contracts/ExampleTryCatch.sol\":594:608  will.aFunction */\n      0xffffffffffffffffffffffffffffffffffffffff\n      and\n      0x39c117a4\n        /* \"contracts/ExampleTryCatch.sol\":594:610  will.aFunction() */\n      mload(0x40)\n      dup2\n      0xffffffff\n      and\n      0xe0\n      shl\n      dup2\n      mstore\n      0x04\n      add\n      0x00\n      mload(0x40)\n      dup1\n      dup4\n      sub\n      dup2\n      dup7\n      dup1\n      extcodesize\n      iszero\n      dup1\n      iszero\n      tag_10\n      jumpi\n      0x00\n      dup1\n      revert\n    tag_10:\n      pop\n      gas\n      staticcall\n      swap3\n      pop\n      pop\n      pop\n      dup1\n      iszero\n      tag_11\n      jumpi\n      pop\n      0x01\n    tag_11:\n        /* \"contracts/ExampleTryCatch.sol\":590:967  try will.aFunction(){... */\n      tag_12\n      jumpi\n      tag_16\n      tag_17\n      jump\t// in\n    tag_16:\n      dup1\n      0x08c379a0\n      sub\n      tag_15\n      jumpi\n      pop\n      tag_18\n      tag_19\n      jump\t// in\n    tag_18:\n      dup1\n      tag_20\n      jumpi\n      pop\n      jump(tag_14)\n    tag_20:\n        /* \"contracts/ExampleTryCatch.sol\":742:762  ErrorLogging(reason) */\n      0xdcbe72357183be3854887085e70fd914c4c1733a94106878f48e8ba069d8fabc\n        /* \"contracts/ExampleTryCatch.sol\":755:761  reason */\n      dup2\n        /* \"contracts/ExampleTryCatch.sol\":742:762  ErrorLogging(reason) */\n      mload(0x40)\n      tag_21\n      swap2\n      swap1\n      tag_22\n      jump\t// in\n    tag_21:\n      mload(0x40)\n      dup1\n      swap2\n      sub\n      swap1\n      log1\n        /* \"contracts/ExampleTryCatch.sol\":673:774  catch Error(string memory reason){... */\n      pop\n        /* \"contracts/ExampleTryCatch.sol\":590:967  try will.aFunction(){... */\n      jump(tag_13)\n    tag_15:\n      0x4e487b71\n      sub\n      tag_14\n      jumpi\n      tag_23\n      tag_24\n      jump\t// in\n    tag_23:\n      swap1\n      tag_25\n      jumpi\n      pop\n      jump(tag_14)\n    tag_25:\n        /* \"contracts/ExampleTryCatch.sol\":831:854  ErrorLogCode(errorCode) */\n      0x29b40167f3248a50a300e50f3ea6088477baca03aa8065424bd02d92d8b87970\n        /* \"contracts/ExampleTryCatch.sol\":844:853  errorCode */\n      dup2\n        /* \"contracts/ExampleTryCatch.sol\":831:854  ErrorLogCode(errorCode) */\n      mload(0x40)\n      tag_26\n      swap2\n      swap1\n      tag_27\n      jump\t// in\n    tag_26:\n      mload(0x40)\n      dup1\n      swap2\n      sub\n      swap1\n      log1\n        /* \"contracts/ExampleTryCatch.sol\":784:866  catch Panic(uint errorCode){... */\n      pop\n        /* \"contracts/ExampleTryCatch.sol\":590:967  try will.aFunction(){... */\n      jump(tag_13)\n    tag_14:\n      returndatasize\n      dup1\n      0x00\n      dup2\n      eq\n      tag_29\n      jumpi\n      mload(0x40)\n      swap2\n      pop\n      and(add(returndatasize, 0x3f), not(0x1f))\n      dup3\n      add\n      0x40\n      mstore\n      returndatasize\n      dup3\n      mstore\n      returndatasize\n      0x00\n      0x20\n      dup5\n      add\n      returndatacopy\n      jump(tag_28)\n    tag_29:\n      0x60\n      swap2\n      pop\n    tag_28:\n      pop\n        /* \"contracts/ExampleTryCatch.sol\":928:955  ErrorLogBytes(lowLevelData) */\n      0xca0c98a5e8f87f29ffdaadfa103d8e525236a2912c2caedb8aa606eb60041f10\n        /* \"contracts/ExampleTryCatch.sol\":942:954  lowLevelData */\n      dup2\n        /* \"contracts/ExampleTryCatch.sol\":928:955  ErrorLogBytes(lowLevelData) */\n      mload(0x40)\n      tag_30\n      swap2\n      swap1\n      tag_31\n      jump\t// in\n    tag_30:\n      mload(0x40)\n      dup1\n      swap2\n      sub\n      swap1\n      log1\n        /* \"contracts/ExampleTryCatch.sol\":876:967  catch(bytes memory lowLevelData){... */\n      pop\n        /* \"contracts/ExampleTryCatch.sol\":590:967  try will.aFunction(){... */\n    tag_13:\n      jump(tag_32)\n    tag_12:\n    tag_32:\n        /* \"contracts/ExampleTryCatch.sol\":536:974  {... */\n      pop\n        /* \"contracts/ExampleTryCatch.sol\":504:974  function catchTheError() public {... */\n      jump\t// out\n    tag_8:\n      dataSize(sub_0)\n      dup1\n      dataOffset(sub_0)\n      dup4\n      codecopy\n      add\n      swap1\n      jump\t// out\n        /* \"#utility.yul\":7:113   */\n    tag_33:\n        /* \"#utility.yul\":51:59   */\n      0x00\n        /* \"#utility.yul\":100:105   */\n      dup2\n        /* \"#utility.yul\":95:98   */\n      0xe0\n        /* \"#utility.yul\":91:106   */\n      shr\n        /* \"#utility.yul\":70:106   */\n      swap1\n      pop\n        /* \"#utility.yul\":7:113   */\n      swap2\n      swap1\n      pop\n      jump\t// out\n        /* \"#utility.yul\":119:302   */\n    tag_17:\n        /* \"#utility.yul\":154:157   */\n      0x00\n        /* \"#utility.yul\":192:193   */\n      0x03\n        /* \"#utility.yul\":174:190   */\n      returndatasize\n        /* \"#utility.yul\":171:194   */\n      gt\n        /* \"#utility.yul\":168:296   */\n      iszero\n      tag_50\n      jumpi\n        /* \"#utility.yul\":230:231   */\n      0x04\n        /* \"#utility.yul\":227:228   */\n      0x00\n        /* \"#utility.yul\":224:225   */\n      dup1\n        /* \"#utility.yul\":209:232   */\n      returndatacopy\n        /* \"#utility.yul\":252:286   */\n      tag_51\n        /* \"#utility.yul\":283:284   */\n      0x00\n        /* \"#utility.yul\":277:285   */\n      mload\n        /* \"#utility.yul\":252:286   */\n      tag_33\n      jump\t// in\n    tag_51:\n        /* \"#utility.yul\":245:286   */\n      swap1\n      pop\n        /* \"#utility.yul\":168:296   */\n    tag_50:\n        /* \"#utility.yul\":119:302   */\n      swap1\n      jump\t// out\n        /* \"#utility.yul\":308:383   */\n    tag_34:\n        /* \"#utility.yul\":341:347   */\n      0x00\n        /* \"#utility.yul\":374:376   */\n      0x40\n        /* \"#utility.yul\":368:377   */\n      mload\n        /* \"#utility.yul\":358:377   */\n      swap1\n      pop\n        /* \"#utility.yul\":308:383   */\n      swap1\n      jump\t// out\n        /* \"#utility.yul\":389:491   */\n    tag_35:\n        /* \"#utility.yul\":430:436   */\n      0x00\n        /* \"#utility.yul\":481:483   */\n      0x1f\n        /* \"#utility.yul\":477:484   */\n      not\n        /* \"#utility.yul\":472:474   */\n      0x1f\n        /* \"#utility.yul\":465:470   */\n      dup4\n        /* \"#utility.yul\":461:475   */\n      add\n        /* \"#utility.yul\":457:485   */\n      and\n        /* \"#utility.yul\":447:485   */\n      swap1\n      pop\n        /* \"#utility.yul\":389:491   */\n      swap2\n      swap1\n      pop\n      jump\t// out\n        /* \"#utility.yul\":497:677   */\n    tag_36:\n        /* \"#utility.yul\":545:622   */\n      0x4e487b7100000000000000000000000000000000000000000000000000000000\n        /* \"#utility.yul\":542:543   */\n      0x00\n        /* \"#utility.yul\":535:623   */\n      mstore\n        /* \"#utility.yul\":642:646   */\n      0x41\n        /* \"#utility.yul\":639:640   */\n      0x04\n        /* \"#utility.yul\":632:647   */\n      mstore\n        /* \"#utility.yul\":666:670   */\n      0x24\n        /* \"#utility.yul\":663:664   */\n      0x00\n        /* \"#utility.yul\":656:671   */\n      revert\n        /* \"#utility.yul\":683:964   */\n    tag_37:\n        /* \"#utility.yul\":766:793   */\n      tag_56\n        /* \"#utility.yul\":788:792   */\n      dup3\n        /* \"#utility.yul\":766:793   */\n      tag_35\n      jump\t// in\n    tag_56:\n        /* \"#utility.yul\":758:764   */\n      dup2\n        /* \"#utility.yul\":754:794   */\n      add\n        /* \"#utility.yul\":896:902   */\n      dup2\n        /* \"#utility.yul\":884:894   */\n      dup2\n        /* \"#utility.yul\":881:903   */\n      lt\n        /* \"#utility.yul\":860:878   */\n      0xffffffffffffffff\n        /* \"#utility.yul\":848:858   */\n      dup3\n        /* \"#utility.yul\":845:879   */\n      gt\n        /* \"#utility.yul\":842:904   */\n      or\n        /* \"#utility.yul\":839:927   */\n      iszero\n      tag_57\n      jumpi\n        /* \"#utility.yul\":907:925   */\n      tag_58\n      tag_36\n      jump\t// in\n    tag_58:\n        /* \"#utility.yul\":839:927   */\n    tag_57:\n        /* \"#utility.yul\":947:957   */\n      dup1\n        /* \"#utility.yul\":943:945   */\n      0x40\n        /* \"#utility.yul\":936:958   */\n      mstore\n        /* \"#utility.yul\":726:964   */\n      pop\n        /* \"#utility.yul\":683:964   */\n      pop\n      pop\n      jump\t// out\n        /* \"#utility.yul\":970:1681   */\n    tag_19:\n        /* \"#utility.yul\":1009:1012   */\n      0x00\n        /* \"#utility.yul\":1047:1051   */\n      0x44\n        /* \"#utility.yul\":1029:1045   */\n      returndatasize\n        /* \"#utility.yul\":1026:1052   */\n      lt\n        /* \"#utility.yul\":1055:1060   */\n      tag_59\n        /* \"#utility.yul\":1023:1062   */\n      jumpi\n        /* \"#utility.yul\":1084:1104   */\n      tag_61\n      tag_34\n      jump\t// in\n    tag_61:\n        /* \"#utility.yul\":1159:1160   */\n      0x04\n        /* \"#utility.yul\":1141:1157   */\n      returndatasize\n        /* \"#utility.yul\":1137:1161   */\n      sub\n        /* \"#utility.yul\":1134:1135   */\n      0x04\n        /* \"#utility.yul\":1128:1132   */\n      dup3\n        /* \"#utility.yul\":1113:1162   */\n      returndatacopy\n        /* \"#utility.yul\":1192:1196   */\n      dup1\n        /* \"#utility.yul\":1186:1197   */\n      mload\n        /* \"#utility.yul\":1291:1307   */\n      returndatasize\n        /* \"#utility.yul\":1284:1288   */\n      0x24\n        /* \"#utility.yul\":1276:1282   */\n      dup3\n        /* \"#utility.yul\":1272:1289   */\n      add\n        /* \"#utility.yul\":1269:1308   */\n      gt\n        /* \"#utility.yul\":1236:1254   */\n      0xffffffffffffffff\n        /* \"#utility.yul\":1228:1234   */\n      dup3\n        /* \"#utility.yul\":1225:1255   */\n      gt\n        /* \"#utility.yul\":1209:1322   */\n      or\n        /* \"#utility.yul\":1206:1352   */\n      iszero\n      tag_62\n      jumpi\n        /* \"#utility.yul\":1337:1342   */\n      pop\n      pop\n      jump(tag_59)\n        /* \"#utility.yul\":1206:1352   */\n    tag_62:\n        /* \"#utility.yul\":1383:1389   */\n      dup1\n        /* \"#utility.yul\":1377:1381   */\n      dup3\n        /* \"#utility.yul\":1373:1390   */\n      add\n        /* \"#utility.yul\":1419:1422   */\n      dup1\n        /* \"#utility.yul\":1413:1423   */\n      mload\n        /* \"#utility.yul\":1446:1464   */\n      0xffffffffffffffff\n        /* \"#utility.yul\":1438:1444   */\n      dup2\n        /* \"#utility.yul\":1435:1465   */\n      gt\n        /* \"#utility.yul\":1432:1475   */\n      iszero\n      tag_63\n      jumpi\n        /* \"#utility.yul\":1468:1473   */\n      pop\n      pop\n      pop\n      pop\n      jump(tag_59)\n        /* \"#utility.yul\":1432:1475   */\n    tag_63:\n        /* \"#utility.yul\":1516:1522   */\n      dup1\n        /* \"#utility.yul\":1509:1513   */\n      0x20\n        /* \"#utility.yul\":1504:1507   */\n      dup4\n        /* \"#utility.yul\":1500:1514   */\n      add\n        /* \"#utility.yul\":1496:1523   */\n      add\n        /* \"#utility.yul\":1575:1576   */\n      0x04\n        /* \"#utility.yul\":1557:1573   */\n      returndatasize\n        /* \"#utility.yul\":1553:1577   */\n      sub\n        /* \"#utility.yul\":1547:1551   */\n      dup6\n        /* \"#utility.yul\":1543:1578   */\n      add\n        /* \"#utility.yul\":1538:1541   */\n      dup2\n        /* \"#utility.yul\":1535:1579   */\n      gt\n        /* \"#utility.yul\":1532:1589   */\n      iszero\n      tag_64\n      jumpi\n        /* \"#utility.yul\":1582:1587   */\n      pop\n      pop\n      pop\n      pop\n      pop\n      jump(tag_59)\n        /* \"#utility.yul\":1532:1589   */\n    tag_64:\n        /* \"#utility.yul\":1599:1656   */\n      tag_65\n        /* \"#utility.yul\":1647:1653   */\n      dup3\n        /* \"#utility.yul\":1641:1645   */\n      0x20\n        /* \"#utility.yul\":1637:1654   */\n      add\n        /* \"#utility.yul\":1629:1635   */\n      dup6\n        /* \"#utility.yul\":1625:1655   */\n      add\n        /* \"#utility.yul\":1619:1623   */\n      dup7\n        /* \"#utility.yul\":1599:1656   */\n      tag_37\n      jump\t// in\n    tag_65:\n        /* \"#utility.yul\":1672:1675   */\n      dup3\n        /* \"#utility.yul\":1665:1675   */\n      swap6\n      pop\n        /* \"#utility.yul\":1013:1681   */\n      pop\n      pop\n      pop\n      pop\n      pop\n        /* \"#utility.yul\":970:1681   */\n    tag_59:\n      swap1\n      jump\t// out\n        /* \"#utility.yul\":1687:1786   */\n    tag_38:\n        /* \"#utility.yul\":1739:1745   */\n      0x00\n        /* \"#utility.yul\":1773:1778   */\n      dup2\n        /* \"#utility.yul\":1767:1779   */\n      mload\n        /* \"#utility.yul\":1757:1779   */\n      swap1\n      pop\n        /* \"#utility.yul\":1687:1786   */\n      swap2\n      swap1\n      pop\n      jump\t// out\n        /* \"#utility.yul\":1792:1961   */\n    tag_39:\n        /* \"#utility.yul\":1876:1887   */\n      0x00\n        /* \"#utility.yul\":1910:1916   */\n      dup3\n        /* \"#utility.yul\":1905:1908   */\n      dup3\n        /* \"#utility.yul\":1898:1917   */\n      mstore\n        /* \"#utility.yul\":1950:1954   */\n      0x20\n        /* \"#utility.yul\":1945:1948   */\n      dup3\n        /* \"#utility.yul\":1941:1955   */\n      add\n        /* \"#utility.yul\":1926:1955   */\n      swap1\n      pop\n        /* \"#utility.yul\":1792:1961   */\n      swap3\n      swap2\n      pop\n      pop\n      jump\t// out\n        /* \"#utility.yul\":1967:2106   */\n    tag_40:\n        /* \"#utility.yul\":2056:2062   */\n      dup3\n        /* \"#utility.yul\":2051:2054   */\n      dup2\n        /* \"#utility.yul\":2046:2049   */\n      dup4\n        /* \"#utility.yul\":2040:2063   */\n      mcopy\n        /* \"#utility.yul\":2097:2098   */\n      0x00\n        /* \"#utility.yul\":2088:2094   */\n      dup4\n        /* \"#utility.yul\":2083:2086   */\n      dup4\n        /* \"#utility.yul\":2079:2095   */\n      add\n        /* \"#utility.yul\":2072:2099   */\n      mstore\n        /* \"#utility.yul\":1967:2106   */\n      pop\n      pop\n      pop\n      jump\t// out\n        /* \"#utility.yul\":2112:2489   */\n    tag_41:\n        /* \"#utility.yul\":2200:2203   */\n      0x00\n        /* \"#utility.yul\":2228:2267   */\n      tag_70\n        /* \"#utility.yul\":2261:2266   */\n      dup3\n        /* \"#utility.yul\":2228:2267   */\n      tag_38\n      jump\t// in\n    tag_70:\n        /* \"#utility.yul\":2283:2354   */\n      tag_71\n        /* \"#utility.yul\":2347:2353   */\n      dup2\n        /* \"#utility.yul\":2342:2345   */\n      dup6\n        /* \"#utility.yul\":2283:2354   */\n      tag_39\n      jump\t// in\n    tag_71:\n        /* \"#utility.yul\":2276:2354   */\n      swap4\n      pop\n        /* \"#utility.yul\":2363:2428   */\n      tag_72\n        /* \"#utility.yul\":2421:2427   */\n      dup2\n        /* \"#utility.yul\":2416:2419   */\n      dup6\n        /* \"#utility.yul\":2409:2413   */\n      0x20\n        /* \"#utility.yul\":2402:2407   */\n      dup7\n        /* \"#utility.yul\":2398:2414   */\n      add\n        /* \"#utility.yul\":2363:2428   */\n      tag_40\n      jump\t// in\n    tag_72:\n        /* \"#utility.yul\":2453:2482   */\n      tag_73\n        /* \"#utility.yul\":2475:2481   */\n      dup2\n        /* \"#utility.yul\":2453:2482   */\n      tag_35\n      jump\t// in\n    tag_73:\n        /* \"#utility.yul\":2448:2451   */\n      dup5\n        /* \"#utility.yul\":2444:2483   */\n      add\n        /* \"#utility.yul\":2437:2483   */\n      swap2\n      pop\n        /* \"#utility.yul\":2204:2489   */\n      pop\n        /* \"#utility.yul\":2112:2489   */\n      swap3\n      swap2\n      pop\n      pop\n      jump\t// out\n        /* \"#utility.yul\":2495:2808   */\n    tag_22:\n        /* \"#utility.yul\":2608:2612   */\n      0x00\n        /* \"#utility.yul\":2646:2648   */\n      0x20\n        /* \"#utility.yul\":2635:2644   */\n      dup3\n        /* \"#utility.yul\":2631:2649   */\n      add\n        /* \"#utility.yul\":2623:2649   */\n      swap1\n      pop\n        /* \"#utility.yul\":2695:2704   */\n      dup2\n        /* \"#utility.yul\":2689:2693   */\n      dup2\n        /* \"#utility.yul\":2685:2705   */\n      sub\n        /* \"#utility.yul\":2681:2682   */\n      0x00\n        /* \"#utility.yul\":2670:2679   */\n      dup4\n        /* \"#utility.yul\":2666:2683   */\n      add\n        /* \"#utility.yul\":2659:2706   */\n      mstore\n        /* \"#utility.yul\":2723:2801   */\n      tag_75\n        /* \"#utility.yul\":2796:2800   */\n      dup2\n        /* \"#utility.yul\":2787:2793   */\n      dup5\n        /* \"#utility.yul\":2723:2801   */\n      tag_41\n      jump\t// in\n    tag_75:\n        /* \"#utility.yul\":2715:2801   */\n      swap1\n      pop\n        /* \"#utility.yul\":2495:2808   */\n      swap3\n      swap2\n      pop\n      pop\n      jump\t// out\n        /* \"#utility.yul\":2814:3014   */\n    tag_24:\n        /* \"#utility.yul\":2850:2857   */\n      0x00\n        /* \"#utility.yul\":2859:2863   */\n      dup1\n        /* \"#utility.yul\":2898:2902   */\n      0x23\n        /* \"#utility.yul\":2880:2896   */\n      returndatasize\n        /* \"#utility.yul\":2877:2903   */\n      gt\n        /* \"#utility.yul\":2874:3008   */\n      iszero\n      tag_77\n      jumpi\n        /* \"#utility.yul\":2939:2943   */\n      0x20\n        /* \"#utility.yul\":2936:2937   */\n      0x04\n        /* \"#utility.yul\":2933:2934   */\n      0x00\n        /* \"#utility.yul\":2918:2944   */\n      returndatacopy\n        /* \"#utility.yul\":2968:2969   */\n      0x01\n        /* \"#utility.yul\":2957:2969   */\n      swap2\n      pop\n        /* \"#utility.yul\":2996:2997   */\n      0x00\n        /* \"#utility.yul\":2990:2998   */\n      mload\n        /* \"#utility.yul\":2982:2998   */\n      swap1\n      pop\n        /* \"#utility.yul\":2874:3008   */\n    tag_77:\n        /* \"#utility.yul\":2814:3014   */\n      swap1\n      swap2\n      jump\t// out\n        /* \"#utility.yul\":3020:3097   */\n    tag_42:\n        /* \"#utility.yul\":3057:3064   */\n      0x00\n        /* \"#utility.yul\":3086:3091   */\n      dup2\n        /* \"#utility.yul\":3075:3091   */\n      swap1\n      pop\n        /* \"#utility.yul\":3020:3097   */\n      swap2\n      swap1\n      pop\n      jump\t// out\n        /* \"#utility.yul\":3103:3221   */\n    tag_43:\n        /* \"#utility.yul\":3190:3214   */\n      tag_80\n        /* \"#utility.yul\":3208:3213   */\n      dup2\n        /* \"#utility.yul\":3190:3214   */\n      tag_42\n      jump\t// in\n    tag_80:\n        /* \"#utility.yul\":3185:3188   */\n      dup3\n        /* \"#utility.yul\":3178:3215   */\n      mstore\n        /* \"#utility.yul\":3103:3221   */\n      pop\n      pop\n      jump\t// out\n        /* \"#utility.yul\":3227:3449   */\n    tag_27:\n        /* \"#utility.yul\":3320:3324   */\n      0x00\n        /* \"#utility.yul\":3358:3360   */\n      0x20\n        /* \"#utility.yul\":3347:3356   */\n      dup3\n        /* \"#utility.yul\":3343:3361   */\n      add\n        /* \"#utility.yul\":3335:3361   */\n      swap1\n      pop\n        /* \"#utility.yul\":3371:3442   */\n      tag_82\n        /* \"#utility.yul\":3439:3440   */\n      0x00\n        /* \"#utility.yul\":3428:3437   */\n      dup4\n        /* \"#utility.yul\":3424:3441   */\n      add\n        /* \"#utility.yul\":3415:3421   */\n      dup5\n        /* \"#utility.yul\":3371:3442   */\n      tag_43\n      jump\t// in\n    tag_82:\n        /* \"#utility.yul\":3227:3449   */\n      swap3\n      swap2\n      pop\n      pop\n      jump\t// out\n        /* \"#utility.yul\":3455:3553   */\n    tag_44:\n        /* \"#utility.yul\":3506:3512   */\n      0x00\n        /* \"#utility.yul\":3540:3545   */\n      dup2\n        /* \"#utility.yul\":3534:3546   */\n      mload\n        /* \"#utility.yul\":3524:3546   */\n      swap1\n      pop\n        /* \"#utility.yul\":3455:3553   */\n      swap2\n      swap1\n      pop\n      jump\t// out\n        /* \"#utility.yul\":3559:3727   */\n    tag_45:\n        /* \"#utility.yul\":3642:3653   */\n      0x00\n        /* \"#utility.yul\":3676:3682   */\n      dup3\n        /* \"#utility.yul\":3671:3674   */\n      dup3\n        /* \"#utility.yul\":3664:3683   */\n      mstore\n        /* \"#utility.yul\":3716:3720   */\n      0x20\n        /* \"#utility.yul\":3711:3714   */\n      dup3\n        /* \"#utility.yul\":3707:3721   */\n      add\n        /* \"#utility.yul\":3692:3721   */\n      swap1\n      pop\n        /* \"#utility.yul\":3559:3727   */\n      swap3\n      swap2\n      pop\n      pop\n      jump\t// out\n        /* \"#utility.yul\":3733:4106   */\n    tag_46:\n        /* \"#utility.yul\":3819:3822   */\n      0x00\n        /* \"#utility.yul\":3847:3885   */\n      tag_86\n        /* \"#utility.yul\":3879:3884   */\n      dup3\n        /* \"#utility.yul\":3847:3885   */\n      tag_44\n      jump\t// in\n    tag_86:\n        /* \"#utility.yul\":3901:3971   */\n      tag_87\n        /* \"#utility.yul\":3964:3970   */\n      dup2\n        /* \"#utility.yul\":3959:3962   */\n      dup6\n        /* \"#utility.yul\":3901:3971   */\n      tag_45\n      jump\t// in\n    tag_87:\n        /* \"#utility.yul\":3894:3971   */\n      swap4\n      pop\n        /* \"#utility.yul\":3980:4045   */\n      tag_88\n        /* \"#utility.yul\":4038:4044   */\n      dup2\n        /* \"#utility.yul\":4033:4036   */\n      dup6\n        /* \"#utility.yul\":4026:4030   */\n      0x20\n        /* \"#utility.yul\":4019:4024   */\n      dup7\n        /* \"#utility.yul\":4015:4031   */\n      add\n        /* \"#utility.yul\":3980:4045   */\n      tag_40\n      jump\t// in\n    tag_88:\n        /* \"#utility.yul\":4070:4099   */\n      tag_89\n        /* \"#utility.yul\":4092:4098   */\n      dup2\n        /* \"#utility.yul\":4070:4099   */\n      tag_35\n      jump\t// in\n    tag_89:\n        /* \"#utility.yul\":4065:4068   */\n      dup5\n        /* \"#utility.yul\":4061:4100   */\n      add\n        /* \"#utility.yul\":4054:4100   */\n      swap2\n      pop\n        /* \"#utility.yul\":3823:4106   */\n      pop\n        /* \"#utility.yul\":3733:4106   */\n      swap3\n      swap2\n      pop\n      pop\n      jump\t// out\n        /* \"#utility.yul\":4112:4421   */\n    tag_31:\n        /* \"#utility.yul\":4223:4227   */\n      0x00\n        /* \"#utility.yul\":4261:4263   */\n      0x20\n        /* \"#utility.yul\":4250:4259   */\n      dup3\n        /* \"#utility.yul\":4246:4264   */\n      add\n        /* \"#utility.yul\":4238:4264   */\n      swap1\n      pop\n        /* \"#utility.yul\":4310:4319   */\n      dup2\n        /* \"#utility.yul\":4304:4308   */\n      dup2\n        /* \"#utility.yul\":4300:4320   */\n      sub\n        /* \"#utility.yul\":4296:4297   */\n      0x00\n        /* \"#utility.yul\":4285:4294   */\n      dup4\n        /* \"#utility.yul\":4281:4298   */\n      add\n        /* \"#utility.yul\":4274:4321   */\n      mstore\n        /* \"#utility.yul\":4338:4414   */\n      tag_91\n        /* \"#utility.yul\":4409:4413   */\n      dup2\n        /* \"#utility.yul\":4400:4406   */\n      dup5\n        /* \"#utility.yul\":4338:4414   */\n      tag_46\n      jump\t// in\n    tag_91:\n        /* \"#utility.yul\":4330:4414   */\n      swap1\n      pop\n        /* \"#utility.yul\":4112:4421   */\n      swap3\n      swap2\n      pop\n      pop\n      jump\t// out\n    stop\n\n    sub_0: assembly {\n            /* \"contracts/ExampleTryCatch.sol\":60:348  contract WillThrow {... */\n          mstore(0x40, 0x80)\n          callvalue\n          dup1\n          iszero\n          tag_1\n          jumpi\n          0x00\n          dup1\n          revert\n        tag_1:\n          pop\n          dataSize(sub_0)\n          dup1\n          dataOffset(sub_0)\n          0x00\n          codecopy\n          0x00\n          return\n        stop\n\n        sub_0: assembly {\n                /* \"contracts/ExampleTryCatch.sol\":60:348  contract WillThrow {... */\n              mstore(0x40, 0x80)\n              callvalue\n              dup1\n              iszero\n              tag_1\n              jumpi\n              0x00\n              dup1\n              revert\n            tag_1:\n              pop\n              jumpi(tag_2, lt(calldatasize, 0x04))\n              shr(0xe0, calldataload(0x00))\n              dup1\n              0x39c117a4\n              eq\n              tag_3\n              jumpi\n            tag_2:\n              0x00\n              dup1\n              revert\n                /* \"contracts/ExampleTryCatch.sol\":122:343  function aFunction() public pure {... */\n            tag_3:\n              tag_4\n              tag_5\n              jump\t// in\n            tag_4:\n              stop\n            tag_5:\n                /* \"contracts/ExampleTryCatch.sol\":298:335  NotAllowedError(\"You're not allowed\") */\n              mload(0x40)\n              0xb94e62a100000000000000000000000000000000000000000000000000000000\n              dup2\n              mstore\n              0x04\n              add\n              tag_7\n              swap1\n              tag_8\n              jump\t// in\n            tag_7:\n              mload(0x40)\n              dup1\n              swap2\n              sub\n              swap1\n              revert\n                /* \"#utility.yul\":7:176   */\n            tag_9:\n                /* \"#utility.yul\":91:102   */\n              0x00\n                /* \"#utility.yul\":125:131   */\n              dup3\n                /* \"#utility.yul\":120:123   */\n              dup3\n                /* \"#utility.yul\":113:132   */\n              mstore\n                /* \"#utility.yul\":165:169   */\n              0x20\n                /* \"#utility.yul\":160:163   */\n              dup3\n                /* \"#utility.yul\":156:170   */\n              add\n                /* \"#utility.yul\":141:170   */\n              swap1\n              pop\n                /* \"#utility.yul\":7:176   */\n              swap3\n              swap2\n              pop\n              pop\n              jump\t// out\n                /* \"#utility.yul\":182:350   */\n            tag_10:\n                /* \"#utility.yul\":322:342   */\n              0x596f75277265206e6f7420616c6c6f7765640000000000000000000000000000\n                /* \"#utility.yul\":318:319   */\n              0x00\n                /* \"#utility.yul\":310:316   */\n              dup3\n                /* \"#utility.yul\":306:320   */\n              add\n                /* \"#utility.yul\":299:343   */\n              mstore\n                /* \"#utility.yul\":182:350   */\n              pop\n              jump\t// out\n                /* \"#utility.yul\":356:722   */\n            tag_11:\n                /* \"#utility.yul\":498:501   */\n              0x00\n                /* \"#utility.yul\":519:586   */\n              tag_16\n                /* \"#utility.yul\":583:585   */\n              0x12\n                /* \"#utility.yul\":578:581   */\n              dup4\n                /* \"#utility.yul\":519:586   */\n              tag_9\n              jump\t// in\n            tag_16:\n                /* \"#utility.yul\":512:586   */\n              swap2\n              pop\n                /* \"#utility.yul\":595:688   */\n              tag_17\n                /* \"#utility.yul\":684:687   */\n              dup3\n                /* \"#utility.yul\":595:688   */\n              tag_10\n              jump\t// in\n            tag_17:\n                /* \"#utility.yul\":713:715   */\n              0x20\n                /* \"#utility.yul\":708:711   */\n              dup3\n                /* \"#utility.yul\":704:716   */\n              add\n                /* \"#utility.yul\":697:716   */\n              swap1\n              pop\n                /* \"#utility.yul\":356:722   */\n              swap2\n              swap1\n              pop\n              jump\t// out\n                /* \"#utility.yul\":728:1147   */\n            tag_8:\n                /* \"#utility.yul\":894:898   */\n              0x00\n                /* \"#utility.yul\":932:934   */\n              0x20\n                /* \"#utility.yul\":921:930   */\n              dup3\n                /* \"#utility.yul\":917:935   */\n              add\n                /* \"#utility.yul\":909:935   */\n              swap1\n              pop\n                /* \"#utility.yul\":981:990   */\n              dup2\n                /* \"#utility.yul\":975:979   */\n              dup2\n                /* \"#utility.yul\":971:991   */\n              sub\n                /* \"#utility.yul\":967:968   */\n              0x00\n                /* \"#utility.yul\":956:965   */\n              dup4\n                /* \"#utility.yul\":952:969   */\n              add\n                /* \"#utility.yul\":945:992   */\n              mstore\n                /* \"#utility.yul\":1009:1140   */\n              tag_19\n                /* \"#utility.yul\":1135:1139   */\n              dup2\n                /* \"#utility.yul\":1009:1140   */\n              tag_11\n              jump\t// in\n            tag_19:\n                /* \"#utility.yul\":1001:1140   */\n              swap1\n              pop\n                /* \"#utility.yul\":728:1147   */\n              swap2\n              swap1\n              pop\n              jump\t// out\n\n            auxdata: 0xa2646970667358221220af4bcbea7dda45b56b2be6976d4db626f45260bacfe355ad24c3497387197f7e64736f6c634300081a0033\n        }\n    }\n\n    auxdata: 0xa2646970667358221220d94e12f7c496e81c710a0c104e76940496bd60777c72e04984f7812a8860be7f64736f6c634300081a0033\n}\n",
				"bytecode": {
					"linkReferences": {},
					"object": "6080604052348015600e575f80fd5b506105cd8061001c5f395ff3fe608060405234801561000f575f80fd5b5060043610610029575f3560e01c80639e957cf81461002d575b5f80fd5b610035610037565b005b5f604051610044906101e9565b604051809103905ff08015801561005d573d5f803e3d5ffd5b5090508073ffffffffffffffffffffffffffffffffffffffff166339c117a46040518163ffffffff1660e01b81526004015f6040518083038186803b1580156100a4575f80fd5b505afa9250505080156100b5575060015b6101e5576100c1610202565b806308c379a00361011d57506100d5610298565b806100e05750610177565b7fdcbe72357183be3854887085e70fd914c4c1733a94106878f48e8ba069d8fabc8160405161010f9190610387565b60405180910390a1506101e0565b634e487b71036101775761012f6103a7565b9061013a5750610177565b7f29b40167f3248a50a300e50f3ea6088477baca03aa8065424bd02d92d8b879708160405161016991906103dd565b60405180910390a1506101e0565b3d805f81146101a1576040519150601f19603f3d011682016040523d82523d5f602084013e6101a6565b606091505b507fca0c98a5e8f87f29ffdaadfa103d8e525236a2912c2caedb8aa606eb60041f10816040516101d69190610448565b60405180910390a1505b6101e6565b5b50565b61012f8061046983390190565b5f8160e01c9050919050565b5f60033d111561021e5760045f803e61021b5f516101f6565b90505b90565b5f604051905090565b5f601f19601f8301169050919050565b7f4e487b71000000000000000000000000000000000000000000000000000000005f52604160045260245ffd5b6102708261022a565b810181811067ffffffffffffffff8211171561028f5761028e61023a565b5b80604052505050565b5f60443d10610324576102a9610221565b60043d036004823e80513d602482011167ffffffffffffffff821117156102d1575050610324565b808201805167ffffffffffffffff8111156102ef5750505050610324565b80602083010160043d03850181111561030c575050505050610324565b61031b82602001850186610267565b82955050505050505b90565b5f81519050919050565b5f82825260208201905092915050565b8281835e5f83830152505050565b5f61035982610327565b6103638185610331565b9350610373818560208601610341565b61037c8161022a565b840191505092915050565b5f6020820190508181035f83015261039f818461034f565b905092915050565b5f8060233d11156103c157602060045f3e600191505f5190505b9091565b5f819050919050565b6103d7816103c5565b82525050565b5f6020820190506103f05f8301846103ce565b92915050565b5f81519050919050565b5f82825260208201905092915050565b5f61041a826103f6565b6104248185610400565b9350610434818560208601610341565b61043d8161022a565b840191505092915050565b5f6020820190508181035f8301526104608184610410565b90509291505056fe6080604052348015600e575f80fd5b506101138061001c5f395ff3fe6080604052348015600e575f80fd5b50600436106026575f3560e01c806339c117a414602a575b5f80fd5b60306032565b005b6040517fb94e62a100000000000000000000000000000000000000000000000000000000815260040160629060c1565b60405180910390fd5b5f82825260208201905092915050565b7f596f75277265206e6f7420616c6c6f77656400000000000000000000000000005f82015250565b5f60ad601283606b565b915060b682607b565b602082019050919050565b5f6020820190508181035f83015260d68160a3565b905091905056fea2646970667358221220af4bcbea7dda45b56b2be6976d4db626f45260bacfe355ad24c3497387197f7e64736f6c634300081a0033a2646970667358221220d94e12f7c496e81c710a0c104e76940496bd60777c72e04984f7812a8860be7f64736f6c634300081a0033",
					"opcodes": "PUSH1 0x80 PUSH1 0x40 MSTORE CALLVALUE DUP1 ISZERO PUSH1 0xE JUMPI PUSH0 DUP1 REVERT JUMPDEST POP PUSH2 0x5CD DUP1 PUSH2 0x1C PUSH0 CODECOPY PUSH0 RETURN INVALID PUSH1 0x80 PUSH1 0x40 MSTORE CALLVALUE DUP1 ISZERO PUSH2 0xF JUMPI PUSH0 DUP1 REVERT JUMPDEST POP PUSH1 0x4 CALLDATASIZE LT PUSH2 0x29 JUMPI PUSH0 CALLDATALOAD PUSH1 0xE0 SHR DUP1 PUSH4 0x9E957CF8 EQ PUSH2 0x2D JUMPI JUMPDEST PUSH0 DUP1 REVERT JUMPDEST PUSH2 0x35 PUSH2 0x37 JUMP JUMPDEST STOP JUMPDEST PUSH0 PUSH1 0x40 MLOAD PUSH2 0x44 SWAP1 PUSH2 0x1E9 JUMP JUMPDEST PUSH1 0x40 MLOAD DUP1 SWAP2 SUB SWAP1 PUSH0 CREATE DUP1 ISZERO DUP1 ISZERO PUSH2 0x5D JUMPI RETURNDATASIZE PUSH0 DUP1 RETURNDATACOPY RETURNDATASIZE PUSH0 REVERT JUMPDEST POP SWAP1 POP DUP1 PUSH20 0xFFFFFFFFFFFFFFFFFFFFFFFFFFFFFFFFFFFFFFFF AND PUSH4 0x39C117A4 PUSH1 0x40 MLOAD DUP2 PUSH4 0xFFFFFFFF AND PUSH1 0xE0 SHL DUP2 MSTORE PUSH1 0x4 ADD PUSH0 PUSH1 0x40 MLOAD DUP1 DUP4 SUB DUP2 DUP7 DUP1 EXTCODESIZE ISZERO DUP1 ISZERO PUSH2 0xA4 JUMPI PUSH0 DUP1 REVERT JUMPDEST POP GAS STATICCALL SWAP3 POP POP POP DUP1 ISZERO PUSH2 0xB5 JUMPI POP PUSH1 0x1 JUMPDEST PUSH2 0x1E5 JUMPI PUSH2 0xC1 PUSH2 0x202 JUMP JUMPDEST DUP1 PUSH4 0x8C379A0 SUB PUSH2 0x11D JUMPI POP PUSH2 0xD5 PUSH2 0x298 JUMP JUMPDEST DUP1 PUSH2 0xE0 JUMPI POP PUSH2 0x177 JUMP JUMPDEST PUSH32 0xDCBE72357183BE3854887085E70FD914C4C1733A94106878F48E8BA069D8FABC DUP2 PUSH1 0x40 MLOAD PUSH2 0x10F SWAP2 SWAP1 PUSH2 0x387 JUMP JUMPDEST PUSH1 0x40 MLOAD DUP1 SWAP2 SUB SWAP1 LOG1 POP PUSH2 0x1E0 JUMP JUMPDEST PUSH4 0x4E487B71 SUB PUSH2 0x177 JUMPI PUSH2 0x12F PUSH2 0x3A7 JUMP JUMPDEST SWAP1 PUSH2 0x13A JUMPI POP PUSH2 0x177 JUMP JUMPDEST PUSH32 0x29B40167F3248A50A300E50F3EA6088477BACA03AA8065424BD02D92D8B87970 DUP2 PUSH1 0x40 MLOAD PUSH2 0x169 SWAP2 SWAP1 PUSH2 0x3DD JUMP JUMPDEST PUSH1 0x40 MLOAD DUP1 SWAP2 SUB SWAP1 LOG1 POP PUSH2 0x1E0 JUMP JUMPDEST RETURNDATASIZE DUP1 PUSH0 DUP2 EQ PUSH2 0x1A1 JUMPI PUSH1 0x40 MLOAD SWAP2 POP PUSH1 0x1F NOT PUSH1 0x3F RETURNDATASIZE ADD AND DUP3 ADD PUSH1 0x40 MSTORE RETURNDATASIZE DUP3 MSTORE RETURNDATASIZE PUSH0 PUSH1 0x20 DUP5 ADD RETURNDATACOPY PUSH2 0x1A6 JUMP JUMPDEST PUSH1 0x60 SWAP2 POP JUMPDEST POP PUSH32 0xCA0C98A5E8F87F29FFDAADFA103D8E525236A2912C2CAEDB8AA606EB60041F10 DUP2 PUSH1 0x40 MLOAD PUSH2 0x1D6 SWAP2 SWAP1 PUSH2 0x448 JUMP JUMPDEST PUSH1 0x40 MLOAD DUP1 SWAP2 SUB SWAP1 LOG1 POP JUMPDEST PUSH2 0x1E6 JUMP JUMPDEST JUMPDEST POP JUMP JUMPDEST PUSH2 0x12F DUP1 PUSH2 0x469 DUP4 CODECOPY ADD SWAP1 JUMP JUMPDEST PUSH0 DUP2 PUSH1 0xE0 SHR SWAP1 POP SWAP2 SWAP1 POP JUMP JUMPDEST PUSH0 PUSH1 0x3 RETURNDATASIZE GT ISZERO PUSH2 0x21E JUMPI PUSH1 0x4 PUSH0 DUP1 RETURNDATACOPY PUSH2 0x21B PUSH0 MLOAD PUSH2 0x1F6 JUMP JUMPDEST SWAP1 POP JUMPDEST SWAP1 JUMP JUMPDEST PUSH0 PUSH1 0x40 MLOAD SWAP1 POP SWAP1 JUMP JUMPDEST PUSH0 PUSH1 0x1F NOT PUSH1 0x1F DUP4 ADD AND SWAP1 POP SWAP2 SWAP1 POP JUMP JUMPDEST PUSH32 0x4E487B7100000000000000000000000000000000000000000000000000000000 PUSH0 MSTORE PUSH1 0x41 PUSH1 0x4 MSTORE PUSH1 0x24 PUSH0 REVERT JUMPDEST PUSH2 0x270 DUP3 PUSH2 0x22A JUMP JUMPDEST DUP2 ADD DUP2 DUP2 LT PUSH8 0xFFFFFFFFFFFFFFFF DUP3 GT OR ISZERO PUSH2 0x28F JUMPI PUSH2 0x28E PUSH2 0x23A JUMP JUMPDEST JUMPDEST DUP1 PUSH1 0x40 MSTORE POP POP POP JUMP JUMPDEST PUSH0 PUSH1 0x44 RETURNDATASIZE LT PUSH2 0x324 JUMPI PUSH2 0x2A9 PUSH2 0x221 JUMP JUMPDEST PUSH1 0x4 RETURNDATASIZE SUB PUSH1 0x4 DUP3 RETURNDATACOPY DUP1 MLOAD RETURNDATASIZE PUSH1 0x24 DUP3 ADD GT PUSH8 0xFFFFFFFFFFFFFFFF DUP3 GT OR ISZERO PUSH2 0x2D1 JUMPI POP POP PUSH2 0x324 JUMP JUMPDEST DUP1 DUP3 ADD DUP1 MLOAD PUSH8 0xFFFFFFFFFFFFFFFF DUP2 GT ISZERO PUSH2 0x2EF JUMPI POP POP POP POP PUSH2 0x324 JUMP JUMPDEST DUP1 PUSH1 0x20 DUP4 ADD ADD PUSH1 0x4 RETURNDATASIZE SUB DUP6 ADD DUP2 GT ISZERO PUSH2 0x30C JUMPI POP POP POP POP POP PUSH2 0x324 JUMP JUMPDEST PUSH2 0x31B DUP3 PUSH1 0x20 ADD DUP6 ADD DUP7 PUSH2 0x267 JUMP JUMPDEST DUP3 SWAP6 POP POP POP POP POP POP JUMPDEST SWAP1 JUMP JUMPDEST PUSH0 DUP2 MLOAD SWAP1 POP SWAP2 SWAP1 POP JUMP JUMPDEST PUSH0 DUP3 DUP3 MSTORE PUSH1 0x20 DUP3 ADD SWAP1 POP SWAP3 SWAP2 POP POP JUMP JUMPDEST DUP3 DUP2 DUP4 MCOPY PUSH0 DUP4 DUP4 ADD MSTORE POP POP POP JUMP JUMPDEST PUSH0 PUSH2 0x359 DUP3 PUSH2 0x327 JUMP JUMPDEST PUSH2 0x363 DUP2 DUP6 PUSH2 0x331 JUMP JUMPDEST SWAP4 POP PUSH2 0x373 DUP2 DUP6 PUSH1 0x20 DUP7 ADD PUSH2 0x341 JUMP JUMPDEST PUSH2 0x37C DUP2 PUSH2 0x22A JUMP JUMPDEST DUP5 ADD SWAP2 POP POP SWAP3 SWAP2 POP POP JUMP JUMPDEST PUSH0 PUSH1 0x20 DUP3 ADD SWAP1 POP DUP2 DUP2 SUB PUSH0 DUP4 ADD MSTORE PUSH2 0x39F DUP2 DUP5 PUSH2 0x34F JUMP JUMPDEST SWAP1 POP SWAP3 SWAP2 POP POP JUMP JUMPDEST PUSH0 DUP1 PUSH1 0x23 RETURNDATASIZE GT ISZERO PUSH2 0x3C1 JUMPI PUSH1 0x20 PUSH1 0x4 PUSH0 RETURNDATACOPY PUSH1 0x1 SWAP2 POP PUSH0 MLOAD SWAP1 POP JUMPDEST SWAP1 SWAP2 JUMP JUMPDEST PUSH0 DUP2 SWAP1 POP SWAP2 SWAP1 POP JUMP JUMPDEST PUSH2 0x3D7 DUP2 PUSH2 0x3C5 JUMP JUMPDEST DUP3 MSTORE POP POP JUMP JUMPDEST PUSH0 PUSH1 0x20 DUP3 ADD SWAP1 POP PUSH2 0x3F0 PUSH0 DUP4 ADD DUP5 PUSH2 0x3CE JUMP JUMPDEST SWAP3 SWAP2 POP POP JUMP JUMPDEST PUSH0 DUP2 MLOAD SWAP1 POP SWAP2 SWAP1 POP JUMP JUMPDEST PUSH0 DUP3 DUP3 MSTORE PUSH1 0x20 DUP3 ADD SWAP1 POP SWAP3 SWAP2 POP POP JUMP JUMPDEST PUSH0 PUSH2 0x41A DUP3 PUSH2 0x3F6 JUMP JUMPDEST PUSH2 0x424 DUP2 DUP6 PUSH2 0x400 JUMP JUMPDEST SWAP4 POP PUSH2 0x434 DUP2 DUP6 PUSH1 0x20 DUP7 ADD PUSH2 0x341 JUMP JUMPDEST PUSH2 0x43D DUP2 PUSH2 0x22A JUMP JUMPDEST DUP5 ADD SWAP2 POP POP SWAP3 SWAP2 POP POP JUMP JUMPDEST PUSH0 PUSH1 0x20 DUP3 ADD SWAP1 POP DUP2 DUP2 SUB PUSH0 DUP4 ADD MSTORE PUSH2 0x460 DUP2 DUP5 PUSH2 0x410 JUMP JUMPDEST SWAP1 POP SWAP3 SWAP2 POP POP JUMP INVALID PUSH1 0x80 PUSH1 0x40 MSTORE CALLVALUE DUP1 ISZERO PUSH1 0xE JUMPI PUSH0 DUP1 REVERT JUMPDEST POP PUSH2 0x113 DUP1 PUSH2 0x1C PUSH0 CODECOPY PUSH0 RETURN INVALID PUSH1 0x80 PUSH1 0x40 MSTORE CALLVALUE DUP1 ISZERO PUSH1 0xE JUMPI PUSH0 DUP1 REVERT JUMPDEST POP PUSH1 0x4 CALLDATASIZE LT PUSH1 0x26 JUMPI PUSH0 CALLDATALOAD PUSH1 0xE0 SHR DUP1 PUSH4 0x39C117A4 EQ PUSH1 0x2A JUMPI JUMPDEST PUSH0 DUP1 REVERT JUMPDEST PUSH1 0x30 PUSH1 0x32 JUMP JUMPDEST STOP JUMPDEST PUSH1 0x40 MLOAD PUSH32 0xB94E62A100000000000000000000000000000000000000000000000000000000 DUP2 MSTORE PUSH1 0x4 ADD PUSH1 0x62 SWAP1 PUSH1 0xC1 JUMP JUMPDEST PUSH1 0x40 MLOAD DUP1 SWAP2 SUB SWAP1 REVERT JUMPDEST PUSH0 DUP3 DUP3 MSTORE PUSH1 0x20 DUP3 ADD SWAP1 POP SWAP3 SWAP2 POP POP JUMP JUMPDEST PUSH32 0x596F75277265206E6F7420616C6C6F7765640000000000000000000000000000 PUSH0 DUP3 ADD MSTORE POP JUMP JUMPDEST PUSH0 PUSH1 0xAD PUSH1 0x12 DUP4 PUSH1 0x6B JUMP JUMPDEST SWAP2 POP PUSH1 0xB6 DUP3 PUSH1 0x7B JUMP JUMPDEST PUSH1 0x20 DUP3 ADD SWAP1 POP SWAP2 SWAP1 POP JUMP JUMPDEST PUSH0 PUSH1 0x20 DUP3 ADD SWAP1 POP DUP2 DUP2 SUB PUSH0 DUP4 ADD MSTORE PUSH1 0xD6 DUP2 PUSH1 0xA3 JUMP JUMPDEST SWAP1 POP SWAP2 SWAP1 POP JUMP INVALID LOG2 PUSH5 0x6970667358 0x22 SLT KECCAK256 0xAF 0x4B 0xCB 0xEA PUSH30 0xDA45B56B2BE6976D4DB626F45260BACFE355AD24C3497387197F7E64736F PUSH13 0x634300081A0033A26469706673 PC 0x22 SLT KECCAK256 0xD9 0x4E SLT 0xF7 0xC4 SWAP7 0xE8 SHR PUSH18 0xA0C104E76940496BD60777C72E04984F781 0x2A DUP9 PUSH1 0xBE PUSH32 0x64736F6C634300081A0033000000000000000000000000000000000000000000 "
				},
				"gasEstimates": {
					"creation": {
						"codeDepositCost": "297000",
						"executionCost": "335",
						"totalCost": "297335"
					},
					"external": {
						"catchTheError()": "infinite"
					}
				},
				"methodIdentifiers": {
					"catchTheError()": "9e957cf8"
				}
			},
			"storageLayout": {
				"storage": [],
				"types": null
			},
			"userdoc": {
				"kind": "user",
				"methods": {},
				"version": 1
			}
		}
	}
}